:100000000C9444030C946C030C946C030C946C03DC
:100010000C946C030C946C030C946C030C946C03A4
:100020000C946C030C946C030C9447240C94B6242D
:100030000C946C030C946C030C946C030C946C0384
:100040000C946C030C946C030C946C030C946C0374
:100050000C946C030C946C030C946C030C94E826C5
:100060000C946C030C946C030C946C030C946C0354
:100070000C946C030C946C030C946C030C946C0344
:100080000C946C030C946C030C946C030C946C0334
:100090000C946C030C946C030C946C030C946C0324
:1000A0000C946C030C946C030C946C034849474803
:1000B0002053434F52453A2000535441525420415B
:1000C00054204C4556454C004D4154434820004D6A
:1000D0004F444500FFFFFFFFFFFFFFFF4E45572046
:1000E000484947482053434F5245210054494D4504
:1000F00020424F4E55533A200020436C65617221D7
:100100000047616D65204F766572004C6576656CC1
:1001100020000306005C00060006287C285CD674DC
:100120004820102854680006003844000044381461
:100130000814103810804000101010004000C0302B
:100140000C7C447C447C4074545C44547C1C107C87
:100150005C54747C547404047C7C547C5C547C003B
:100160002800402800102844282828442810045437
:100170000C3844587C147C7C546C7C44447C44385B
:100180007C54447C14047C44747C107C447C446027
:10019000407C7C106C7C40407C187C7C047C7C44E3
:1001A0007C7C141C7CC47C7C146C5C5474047C04C7
:1001B0007C407C3C403C7C307C6C106C1C701C6433
:1001C000544C7C44000C30C000447C08040840407F
:1001D000400C0C003048787C483078484830487CE7
:1001E000306850107C14B8A8787C087000740080C7
:1001F00074007C1068047C0078107878087878485F
:1002000078F848303048F8780818505828083C48A2
:10021000784078384038782078681068B8A07868D6
:100220004858106C44007E00446C100408002F00F5
:100230000000030003143E143E246B120012080455
:1002400012142A342000030000001E210000211E89
:100250000005020500040E04004020000008080804
:100260000000200000300C03001E29251E223F2024
:1002700000322929261221251A0C0A3F08172525A4
:10028000191E252518013905031A25251A062929BD
:100290001E0014000020140000081422001414147E
:1002A0000022140800012906001E2129263E090902
:1002B0003E3F25251A1E2121123F21211E3F2525C3
:1002C000213F0505011E21293A3F04043F213F211A
:1002D000001021211F3F040A313F2020203F02044B
:1002E000023F02043F1E21211E3F0909061E211163
:1002F0002E3F0909362225251901013F011F202023
:100300001F0F10201F3F1008103B04043B0304384C
:1003100007312D2321003F2100030C300000213F35
:1003200000020102002020202002050200102A2ADB
:100330003C3F2424181C2222141824243F1C2A2A5F
:100340002C047E05014C52523E3F040438243D20CB
:10035000004040443D3F081422213F20003E040855
:10036000043E04023C1C22221C7E22221C1C22224F
:100370007E3E040204242A2A12021F22201E20206C
:100380001E0E10201E3E100810360808364E505023
:100390003E322A26220C332100007F000021330C3C
:1003A00000030C3000F0F89C8E8783878E9CF8F059
:1003B0000000FEFF0303030303070EFCF80000FE2A
:1003C000FF0303030303070EFCF80000FFFF000018
:1003D0000000000000FFFF0000FEFF838383838393
:1003E000C7EE7C380000F8FC0E07030303070EFC81
:1003F000F800003F7FE0C08080C0E07F3FFFFF014A
:10040000010101010101FFFF0000FFFF0C0C0C0CBA
:100410001C3E77E3C100007FFFC0C0C0C0C0E070D9
:100420003F1F00001F3F70E0C0C0C0E0703F1F00D2
:10043000007FFFC1C1C1C1C1E3773E1C00001F3F67
:1004400070E0C0C0C0E0703F1F000000000001FF6E
:10045000FF01000000D5F08D14A1C881CFD9F1AF04
:100460002000080B00020202000009040000010243
:1004700002000005240010010524010101042402EA
:100480000605240600010705810310004009040148
:1004900000020A0000000705020240000007058371
:1004A000024000000403090412010002EF020140AF
:1004B0004123368000010102030141726475696EB7
:1004C0006F204C4C430041726475696E6F204C651F
:1004D0006F6E6172646F0006010200260102004A1D
:1004E0000102005D01020088010200B8010200EE75
:1004F0000102000B020200FFFF880107004A01070A
:1005000000060107000B020300FFFF90010000FF3F
:10051000FF2C010000FFFFC8000200060102004A94
:1005200001020088010100FFFFC8000200C80001AD
:1005300000FFFFC800080096000300FFFF640001F1
:10054000006E00010078000100820001008C0001B3
:1005500000960001008C000100C80001008200012B
:100560000078000100FFFF88010400060106000B6F
:10057000020100FFFF060103000701030008010359
:100580000007010300060103000501030004010345
:100590000005010300FFFF06010100080101000A38
:1005A000010100080101000601010004010100022F
:1005B00001010004010100FFFF0601000008010025
:1005C000000A01000008010000060100000401000B
:1005D000000201000004010000FFFF06010000FF0F
:1005E000FF0601010006010000FFFF06010500C42F
:1005F000000200FFFF00C06030903060C0080002C1
:1006000000000103060406030100000000436972B4
:10061000636C65204C61756E6368000707071C22D8
:10062000414141221C1C3E7F7F7F3E1C1C2A556B92
:10063000552A1C1C36774177361C1C2A6B6B6B2A9B
:100640001C1C22417F41221C1C36634963361C0856
:1006500008050373733030373703037131103017D7
:10066000130101713110101717030131101010130D
:10067000010100301010000301010808013C7EFF59
:10068000FFFFFF7E3C00652711241FBECFEFDAE09D
:10069000DEBFCDBF11E0A0E0B1E0E2E0F1E602C0D4
:1006A00005900D92A235B107D9F728E0A2E5B1E097
:1006B00001C01D92A738B207E1F713E0C4E4D3E00C
:1006C00004C02197FE010E947930C334D107C9F7D5
:1006D0000E945A280C947F300C940000089520E06A
:1006E00030E0E22FF0E0EE0FFF1FE952FB4F4591A3
:1006F00054914F3F5F4FA1F43F5F2F5F361788F350
:10070000FC01E85BFF4F30E0220F331F29523B4FC3
:1007100031832083865B9F4FFC01118210820895F4
:100720002E5FECCF77FD0FC08B30910560F428E091
:1007300030E080FF02C027E030E081E062177307FD
:100740001CF480E0089581E008958F929F92AF920B
:10075000BF92CF92DF92EF92FF920F93CF93DF93EE
:10076000EB0169017A0188809980AA80BB808C1492
:100770009D04AE04BF0409F460C0002309F45AC00C
:1007800040917C0550917D0560917E0570917F05BB
:10079000452B462B472B09F44DC0FC0125813681A2
:1007A00050E040E060E070E087E090E00E94532D70
:1007B000232F342F452F552747FD5A95D901A501E1
:1007C00094012C193D094E095F090E947D2D24EDED
:1007D0003FEF4FEF5FEF0E94532D2115310549F494
:1007E0002FEF3FEF8C149D04AE04BF0414F421E0FE
:1007F00030E0C901032E000CAA0BBB0B880D991D1C
:10080000AA1DBB1D88839983AA83BB83662777278C
:10081000621B730B072E000C880B990BDF91CF9195
:100820000F91FF90EF90DF90CF90BF90AF909F908F
:100830008F900895A7E0B0E0C2CF60E070E0CB01F8
:10084000EDCFE0917A05F0917B0580E081118FEF8B
:10085000002481938193819381930394D1F7089528
:10086000FC0180917905882311F13FB7F89482E06B
:100870008093E9002091F200822F90E0181619066B
:1008800014F481E090E0882339F0289844E64093FE
:1008900078054091F1004083222339F02091F20045
:1008A000211103C02BE62093E8003FBF08958FEF8E
:1008B0009FEF08952FB7F89483E08093E90090911B
:1008C000E800892F807295FF04C09091F20080E4C7
:1008D000891B2FBF08958091700581110DC082E0A2
:1008E00080936C0584E080936D0510926F051092E3
:1008F0006E0581E0809370058CE695E00895CF93B6
:10090000DF931F92CDB7DEB76983DC01ED91FC91D7
:100910000280F381E02D41E050E0BE016F5F7F4F28
:1009200009950F90DF91CF91089583E08093E900BE
:100930008091F200882319F08AE38093E8000895FB
:100940000E945A0490E00895CF93DF931F92CDB791
:10095000DEB7FC018485958597FD08C02FEF3FEF3A
:10096000358724870F90DF91CF910895CE010196AE
:100970000E943004019719F4898190E0F3CF8FEF42
:100980009FEFF0CF0F931F93CF93DF931F92CDB7BD
:10099000DEB78C01FC018485958597FF0BC0CE01E5
:1009A00001960E943004019771F4898190E0F8016A
:1009B00095878487F801848595850F90DF91CF9185
:1009C0001F910F9108958FEF9FEFF1CFFC01848568
:1009D000958597FD0BC09FB7F89482E08093E9005E
:1009E0008091F2009FBF90E0019608959FB7F89420
:1009F00082E08093E9008091F2009FBF90E008952B
:100A00004091660550916705209164053091650518
:100A100042175307B4F49091E8009570E1F3909178
:100A2000E80092FD19C08093F100809166059091D5
:100A3000670501968F739927892B19F48EEF8093A0
:100A4000E80080916605909167050196909367058F
:100A50008093660581E0089580E00895DF92EF922B
:100A6000FF920F931F93CF93DF93D82E8A01EB0150
:100A70007B01E40EF51ECE15DF0559F0D7FE12C03E
:100A8000FE0184910E94000521968111F4CF0FEFA1
:100A90001FEFC801DF91CF911F910F91FF90EF9051
:100AA000DF9008958881EECF0F931F93CF93DF934C
:100AB0001F92CDB7DEB782E0898342E450E062E660
:100AC00074E080E80E942E050E946B04DC011296FF
:100AD0000D911C910115110589F0D801ED91FC9142
:100AE0000280F381E02DBE016F5F7F4FC801099541
:100AF00097FD04C0F80100851185ECCF89810F9026
:100B0000DF91CF911F910F910895615030F02091A6
:100B1000F100FC0120830196F8CF289884E68093A9
:100B2000780508953FB7F89480916005909161052C
:100B3000A0916205B091630526B5A89B05C02F3F23
:100B400019F00196A11DB11D3FBFBA2FA92F982FF3
:100B50008827BC01CD01620F711D811D911D42E0EE
:100B6000660F771F881F991F4A95D1F708958F92B6
:100B70009F92AF92BF92CF92DF92EF92FF926B0162
:100B80007C010E9492054B015C01C114D104E10477
:100B9000F104B9F00E949205681979098A099B0944
:100BA000683E73408105910580F321E0C21AD108A7
:100BB000E108F10888EE880E83E0981EA11CB11CA4
:100BC000E4CFFF90EF90DF90CF90BF90AF909F90D9
:100BD0008F9008958F929F92AF92BF92CF92DF92A3
:100BE000EF92FF920F931F93CF93DF936C017B01E2
:100BF0008A0180911001882309F45CC080917905F5
:100C0000882309F457C080916B0580FF05C080914F
:100C1000E00082608093E000E801B12C8AEFA82E0A
:100C200093E0892E2AE3922E209711F4BB20D9F16C
:100C30000E945A0481110AC0AA94AA20D9F161E045
:100C400070E080E090E00E94B705EECF8C171D06A3
:100C500011F00CF08C2F9FB7F8948092E90020914E
:100C6000E80025FD02C09FBFDFCF282F30E0C21B68
:100C7000D30BF701815020F041914093F100FACF5E
:100C8000E20EF31EBB2021F09092E800B12CEBCFD6
:100C90008091E80085FDE7CF9092E800BB24B394F3
:100CA000209709F3F3CF5D9884E680936A051016C8
:100CB00011063CF081E090E0F6019383828310E01E
:100CC00000E0C801DF91CF911F910F91FF90EF904D
:100CD000DF90CF90BF90AF909F908F9008952FB7E7
:100CE000F89460915C0570915D0580915E0590912E
:100CF0005F052FBF08954F3F11F4FC0143A541301C
:100D0000E9F4633241F1862F8F7D873521F18D34EF
:100D100011F1643501F1893471F06C3661F0862F80
:100D20008D7F8C3241F06A3331F0862F8F7B803299
:100D300011F0673269F484E090E00895423071F474
:100D40006C3679F0603669F0653211F0633299F7EC
:100D500085E090E0089586E090E0089590E080E0DE
:100D6000089583E090E008959C01AA27269FB12D65
:100D70003702C00172039A0BB00D811D9A1F360312
:100D80009A0BB00D811D9A1F11240895CF92DF9206
:100D9000EF92FF920F931F93CF93DF936C0120EE9E
:100DA000D21A86010027107CEC01CC0FDD1FCC0F7E
:100DB000DD1FC11580E8D80711F4C1E0D0E8BE01FD
:100DC000CE010E94B4067C01EE0CFF1CB701D6FEDA
:100DD00019C087EF97E00E94B406B701815F9E4477
:100DE0000E94B4068150904817FF03C091958195E9
:100DF0009109DF91CF911F910F91FF90EF90DF90BC
:100E0000CF90089582E491E00E94B406B7018B5A16
:100E100094410E94B406BE0188579B490E94B406C3
:100E2000880F991F0196E0CFCF93DF93EC019B01D0
:100E3000770F440B550B61E070E08FEF9FEF0E943E
:100E4000532DC29FB001C39F700DD29F700D11240E
:100E500080E090E4861B970B0E94C606BC01990FA8
:100E6000880B990B0E94D22E9B01AC010E94B72DDA
:100E700020E03FEF4FE757E40E94282E20E030E0CB
:100E800048EC52EC0E94822F0E949A2ECB01DF91F7
:100E9000CF910895CF93DF93EC019B01770F440B23
:100EA000550B61E070E08FEF9FEF0E94532DC29FC2
:100EB000C001C39F900DD29F900D11240E94C606C1
:100EC000BC01990F880B990B0E94D22E9B01AC019B
:100ED0000E94B72D20E03FEF4FE757E40E94282EF5
:100EE00020E030E048EC52EC0E94822F0E949A2EC3
:100EF000CB01DF91CF9108952D9A08958FB1809500
:100F0000807F669B88601C9B84600895CF93C82F68
:100F10000E947E07982F9C2381E09C1380E0CF9154
:100F200008958EBD00000DB407FEFDCF0895E09139
:100F30007A05F0917B0580E0A0E0B8E000800EBC6F
:100F40008111012C1197A0FDFDCF0192B9F70DB4CD
:100F500008950F938091260690912706FC0144ADD9
:100F600055AD66AD77AD452B462B472BB1F0409183
:100F70007C0550917D0560917E0570917F05433021
:100F800051056105710548F0BC01645C7F4F01E0CB
:100F900020E030E0A9010E94A5030F910C9497076F
:100FA000BC0190E080E00C94B7054F925F926F9285
:100FB0007F928F929F92AF92BF92CF92DF92EF92E9
:100FC000FF920F931F93CF93DF9330E0F901E80F67
:100FD000F91F1E161F060CF0B8C0803891050CF0E2
:100FE000B4C0FB01E00FF11D1E161F060CF0ADC0D2
:100FF000603471050CF0A9C0DB0177FF04C0AA279B
:10100000BB27A61BB70BA770BB27FB0177FD379645
:10101000C3E0F595E795CA95E1F777FF07C03197EB
:1010200068E070E0EB01CA1BDB0BDE01802E8694CA
:1010300086948694912C077019F0DFEF8D1A9D0A23
:10104000BF01EF01D695DC2FCC27D795C795C80FE8
:10105000D91FE0917A05F0917B05CE0FDF1F8A0141
:10106000860E971E48E050E03A016A1A7B0A68151E
:10107000790509F46AC06830710509F466C06F3FEC
:10108000EFEF7E070CF457C050E040E06E01F0E84F
:10109000CF0ED11C421753070CF04DC0FA01E80FD8
:1010A000F91FE038F1050CF046C0F7FD37C0FA0132
:1010B000E00FF11F54906F3F760709F443C0FE0123
:1010C000E40FF51FF080A52C0A2E01C0AA0C0A948B
:1010D000EAF744244394E41003C0AF28A08205C07B
:1010E000E1101FC0A094FA20F0821097B9F0673089
:1010F0007105A1F0E52DF0E02F01062C02C05594FA
:1011000047940A94E2F75601A40EB51EF501F0804B
:10111000F1E0EF1208C0F428F501F0824F5F5F4F55
:10112000B9CFAF24DBCFE11004C0E42DE095FE225F
:10113000F3CFF424F1CF6F5F7F4FC058DF4F020F22
:10114000131F95CF1097B1F6E9CFDF91CF911F9183
:101150000F91FF90EF90DF90CF90BF90AF909F9056
:101160008F907F906F905F904F900895EF920F93C4
:101170001F93D801A770BB27E8E0F0E0EA1BFB0B48
:10118000AB2B11F4F0E0E0E00E0F1F1F0E94D5071B
:101190001F910F91EF9008952F923F924F925F927F
:1011A0006F927F928F929F92AF92BF92CF92DF9277
:1011B000EF92FF920F931F93CF93DF932C013B018C
:1011C0006A01FA01A490B12C31968491882E912C59
:1011D00031964491E82FE77081E090E011F490E0BF
:1011E00080E0B40153E0759567955A95E1F7860F55
:1011F000971F8A9D10018B9D300C9A9D300C1124F5
:10120000229EE001239ED00D329ED00D112447FF77
:101210002FC0CC0FDD1F2396A6014C0F5D1FF12CB4
:10122000E12C84019501B301C2010E94B608C20DF0
:10123000D31DA6014C0F5D1FEE24E394F12C840115
:101240009501B301C2010E94B608DF91CF911F91B1
:101250000F91FF90EF90DF90CF90BF90AF909F9055
:101260008F907F906F905F904F903F902F90089558
:101270002396DFCF80389105D8F460347105C0F42F
:1012800020E191E061FD94E060FD990F62FD92958F
:10129000687F269FD0011124A80F20917A053091F4
:1012A0007B05A20FB31F8C9140FF03C0892B8C9349
:1012B000089590958923FBCF423029F5A62FA7707A
:1012C000E62FE695E695E69540E8E49F9001112427
:1012D000E0917A05F0917B05E20FF31FE80FF11D15
:1012E000208130E041E050E00A2E02C0440F551F3B
:1012F0000A94E2F72423352302C035952795AA9551
:10130000E2F741E0421B0C943A09CF92DF92EF9250
:10131000FF920F931F93CF93DF938C017B010E9469
:101320006F0626EA30E040E050E00E94852D2370F1
:10133000332784E090E06C01C21AD30AD0E0C0E009
:10134000CE018C0D9D1D83709927019641E0039776
:1013500008F440E0B701C8010E945C09CD30D10516
:101360007CF40F5F1F4F2196C433D10549F7DF91FD
:10137000CF911F910F91FF90EF90DF90CF90089544
:10138000CA31D10524F48FEFE81AF80AECCFC7323E
:10139000D1051CF401501109E6CF81E0E81AF108EB
:1013A000E2CFEF92FF920F931F93FA01349131969F
:1013B000E491F0E0A32FB0E0239F400D511D1124D4
:1013C0004E5F5F4F78018F019D010E94B6081F910B
:1013D0000F91FF90EF9008956034710508F042C0BE
:1013E000480F592F511D14161506E4F58038910544
:1013F000CCF597FF02C090E080E04138510514F031
:1014000040E850E0481BFB0133E0F595E7953A953D
:10141000E1F7F695FE2FEE27F795E7958E0F9F1FC4
:10142000E0917A05F0917B05E80FF91F6770772747
:1014300081E090E001C0880F6A95EAF7382F2130EB
:1014400041F4415078F08191DF011197832B8C9307
:10145000F8CF8095415030F09191DF01119798239A
:101460009C93F8CF0895DF92EF92FF920F931F9312
:10147000CF93DF9380389105D0F4D22EEB017C011D
:101480008B01040F111D77FF02C0D0E0C0E0C8013E
:101490000134110514F080E490E0C817D9073CF43A
:1014A0004D2DBE01C7010E945C092196F0CFDF914E
:1014B000CF911F910F91FF90EF90DF900895EF92E1
:1014C000FF920F931F93CF93DF937C018B01C42F67
:1014D000D22F21E00E94EC09B8016D0F711D6150FF
:1014E000710921E04C2FC7010E94EC0921E04D2F2A
:1014F000B801C7010E94330AC7018C0F911D21E07A
:101500004D2FB8010197DF91CF911F910F91FF905F
:10151000EF900C94330A8F929F92AF92BF92CF922A
:10152000DF92EF92FF920F931F93CF93DF93EC0123
:10153000EBA4EE2009F471C08CA59DA5803891051F
:101540000CF06BC02FEF2E0D223008F066C0F62E87
:101550002FED260F2D3508F055C0A62E660FBB08BF
:1015600021E2A21AB10831E022E1822E21E0922E7E
:10157000E31204C03BE2832E32E0932ECEA4DFA41C
:1015800022E0E21203C032E0C31AD10809A91AA965
:101590002A2DA401B6010E94D1098CA59DA521E0A8
:1015A000E2124EC033E2F31213C06EA57FA56E5F48
:1015B0007F4F49A904960E945C096EA57FA56C5FC8
:1015C0007F4F8CA59DA549A904960E945C091AC06D
:1015D0002F2D2F7D273511F02D3461F529A930E607
:1015E00046E03F150CF445E061E070E030E63F1561
:1015F00014F070E060E0EEA5FFA56E0F7F1F04966B
:101600000E94330A4E2D6F2DCE010E947B062CA521
:101610003DA5820F931F9DA78CA7DF91CF911F91AE
:101620000F91FF90EF90DF90CF90BF90AF909F9081
:101630008F90089524E5F212E5CF6EA57FA5C3CF64
:1016400035E2F31211C06EA57FA56F5F7F4F49A9E8
:1016500003960E945C096EA57FA56C5F7F4F8CA5E9
:101660009DA549A90396B1CF23E2F212CBCF09A9D8
:101670001AA92A2DA401B60102960E94D109C2CF4F
:10168000AF92BF92CF92DF92EF92FF920F931F9390
:10169000CF93DF93CDB7DEB729970FB6F894DEBFAF
:1016A0000FBECDBF6C018B01CE0101967C0189E09C
:1016B000F70111928A95E9F777FF07C06DE2C6013D
:1016C0000E948B0A119501951109F7018AE0A82E55
:1016D000B12C9F012E193F09C801B5010E944A3063
:1016E000805D81938B01161617069CF389010F5FAD
:1016F0001F4F0E0D1F1DF80162918F01C6010E9440
:101700008B0AE016F106B9F729960FB6F894DEBFFA
:101710000FBECDBFDF91CF911F910F91FF90EF9042
:10172000DF90CF90BF90AF9008952F923F924F924D
:101730005F926F927F928F929F92AF92BF92CF9261
:10174000DF92EF92FF920F931F93CF93DF931C01D1
:10175000C0912606D091270682E08BA77DA76CA7B3
:101760005FA74EA705E010E080EAC82E86E8D82ED5
:10177000EE24E394F12C4101032C000CAA08BB08D1
:101780009AE0492E512C612C712C8C149D04AE04CE
:10179000BF047CF4C701B601A30192010E94532D3E
:1017A00069017A0160E3CE010E948B0A01501109A0
:1017B00061F7B101CE01DF91CF911F910F91FF90A1
:1017C000EF90DF90CF90BF90AF909F908F907F90E1
:1017D0006F905F904F903F902F900C94400B0F9321
:1017E0001F93CF93DF93FC0123A5222359F08C0193
:1017F000EB01FE0164912196662321F0C8010E944D
:101800008B0AF7CFDF91CF911F910F910895FB01C4
:1018100023E0F595E7952A95E1F767707727E80FBC
:10182000F91F248930E0062E02C0359527950A94C9
:10183000E2F720FF0BC0878990E002C0959587955D
:101840006A95E2F7809590958170089580E00895FB
:101850000895CF93DF93EC01688710925201E091D5
:101860002606F091270681E0828F838F26E030E004
:10187000358F248F2FE030E0378F268F198A80A78D
:1018800081A712A6E881F981068CF78DE02DCE01A3
:1018900009958885811109C0E881F9810680F78161
:1018A000E02DCE01DF91CF9109948A3031F4E881A7
:1018B000F9810284F385E02DF4CF8B3031F4E88197
:1018C000F9810484F585E02DECCF8C3031F4E8818A
:1018D000F9810684F785E02DE4CFDF91CF9108955B
:1018E000DC0118962C911897211106C0ED91FC91FE
:1018F0000088F189E02D0994213031F4ED91FC91BB
:101900000288F389E02DF7CF2A3031F4ED91FC9174
:101910000488F589E02DEFCF2B3031F4ED91FC9167
:101920000688F789E02DE7CF2C3031F4ED91FC915A
:10193000008CF18DE02DDFCF0895FC01BC016055D6
:101940007E4F80A18823B1F0208D318D448D558D3F
:10195000240F351F318F208F268D378D428D538D6B
:10196000420F531F538F428F295F3F4F378F268F70
:10197000815080A33996E617F70719F70895DF928B
:10198000EF92FF920F931F93CF93DF93EC018B01A4
:101990007A01D22EBA01C8010E94920381110DC0B2
:1019A0002BE02E9DC0012F9D900D1124C80FD91F33
:1019B000C00FD11FC453DE4FD882DF91CF911F914A
:1019C0000F91FF90EF90DF900895DF92EF92FF92DA
:1019D0000F931F93CF93DF93EC018B017A01D22EEB
:1019E000BA01C8010E94920381111FC02BE02E9DF5
:1019F000C0012F9D900D1124C80FD91FC00FD11FFA
:101A0000C453DE4F8881082E000C990BDD2029F08D
:101A100097FF03C0919581959109DF91CF911F9117
:101A20000F91FF90EF90DF90089590E080E0F5CF68
:101A30003F924F925F926F927F928F929F92AF925E
:101A4000BF92CF92DF92EF92FF920F931F93CF93AB
:101A5000DF93CDB7DEB72C970FB6F894DEBF0FBE7D
:101A6000CDBF5C01462E342E490122273327281989
:101A700039090E94BF0CFE01319688E0DF011D92FA
:101A80008A95E9F79FEF9A8381E08C839D838F830A
:101A900099878B878FEF40FC81E08A878C878F0145
:101AA0003E01BDE06B0E711C55245394F801C180BA
:101AB000C30C0C2C000CDD08E080E40C0E2C000C98
:101AC000FF0820E0A601B701C5010E94E50C8816B9
:101AD000990669F4B601C7010E949203811126C0DC
:101AE0009401A601B701C5010E94180D580E0E5FA2
:101AF0001F4F60167106D1F6852D90E02C960FB61B
:101B0000F894DEBF0FBECDBFDF91CF911F910F9133
:101B1000FF90EF90DF90CF90BF90AF909F908F900D
:101B20007F906F905F904F903F90089580E0DECF60
:101B3000FB01BA0121503109DC0116964D915C91EF
:101B40004A5D5F4F63507109CF0103970C94CC0835
:101B500088539E4F2CE130E0FC01318320830895AF
:101B6000FC01E25CFD4F11821082369610823296A3
:101B7000DC01A95BBD4F2C912083709610823196B9
:101B80001082118212821382855A9D4FFC011082AD
:101B90000895AF92BF92CF92DF92EF92FF920F9390
:101BA0001F93CF93DF93EC01F12CE12C88A18823C4
:101BB000C9F0853120F490917C0590FD13C0998D7A
:101BC000C92ED92EDD0CDD089B8DA92EB92EBB0C9C
:101BD000BB08E0FC02C08B30C0F442E0B501C60196
:101BE0000E945C098FEFE81AF80A299680E3E8164C
:101BF000F104E1F6DF91CF911F910F91FF90EF90EB
:101C0000DF90CF90BF90AF90089510E000E0B80152
:101C1000759567956A0D7B1DC8018170992742E013
:101C20008C0D9D1D0E945C090F5F1F4F0430110534
:101C300071F7D8CF2F923F924F925F926F927F921F
:101C40008F929F92AF92BF92CF92DF92EF92FF92CC
:101C50000F931F93CF93DF9300D000D000D01F923B
:101C6000CDB7DEB79D838C8381E090E00E943D2D4F
:101C700081FF91C02EEF422E55245A9481E090E0CE
:101C80009F838E8330E2832E912CEE80FF8091E241
:101C9000E90EF11C8401EE81FF810E1B1F0B17FF63
:101CA00002C010E000E0C701F1E4EF16F10414F007
:101CB00080E490E0081719074CF440E0B80180E494
:101CC00090E00E945C090F5F1F4FEDCFAA24A39400
:101CD000B12C8E819F81A81AB90A32018C01CC24C3
:101CE000C394D12CF12CE12CB7FC07C00150110991
:101CF00092E0690E711CA60CB71CEFEFEE1AFE0AFB
:101D0000F2E0CF0ED11CAC0CBD1C302E330C339442
:101D10003B8220E0432DC401801B910B9A83898371
:101D2000BC01C701805C9F4F0E94330A14012E182A
:101D30003F0820E04C2DB101C801805C9F4F0E94FC
:101D4000330A20E04B8169817A8180E490E08E192A
:101D50009F090E94330A20E04C2DB10180E490E0FD
:101D6000801B910B0E94330AE016F1060CF4BCCFE5
:101D7000EE81FF813396FF83EE830E9497078FE009
:101D800090E00E94D007F6E04F1A51088E819F81A3
:101D9000CD9709F07ACFEC81FD8182898823F9F013
:101DA00050E040E070E060E0CF0127960FB6F89475
:101DB000DEBF0FBECDBFDF91CF911F910F91FF907E
:101DC000EF90DF90CF90BF90AF909F908F907F90DB
:101DD0006F905F904F903F902F900C94290C279616
:101DE0000FB6F894DEBF0FBECDBFDF91CF911F912C
:101DF0000F91FF90EF90DF90CF90BF90AF909F90AA
:101E00008F907F906F905F904F903F902F900895AC
:101E1000CF92DF92EF92FF920F931F93CF93DF93B6
:101E20008C01EB01C81BD90B0E94DC2C6B017C01DF
:101E30000E946F066C0D7D1D8E1D9F1D9E01DD0F86
:101E4000440B550B0E94852DC801860F971FDF910B
:101E5000CF911F910F91FF90EF90DF90CF90089559
:101E60004F925F926F927F928F929F92AF92BF92AA
:101E7000CF92DF92EF92FF920F931F93CF93DF9356
:101E80006C01962E842E790169E270E090E080E08A
:101E90000E94080F44972C01400E511E052C000C87
:101EA0006608770887E0440C551C661C771C8A95E9
:101EB000D1F7E601860100551E4F88A1811136C079
:101EC00060E170E090E080E00E94080F6C01188EE5
:101ED000998E1A8E8B8E60E170E00E944A075C0139
:101EE00060E170E0C6010E9414076C019501BB0C13
:101EF000440B550BC301B2010E94532D3D8F2C8F13
:101F00009601DD0C440B550BC301B2010E94532D09
:101F10003F8F2E8F69E170E090E080E00E94080F13
:101F2000875E88A381E0E81AF10821F02996C0179E
:101F3000D10719F6DF91CF911F910F91FF90EF908C
:101F4000DF90CF90BF90AF909F908F907F906F90D9
:101F50005F904F9008952F923F924F925F926F92B1
:101F60007F928F929F92AF92BF92CF92DF92EF9229
:101F7000FF920F931F93CF93DF93CDB7DEB7609798
:101F80000FB6F894DEBF0FBECDBF7C0120E5222E38
:101F9000312C2AE030E0388B2F87712C612CAC017A
:101FA000455C5D4F5C834B83845C9D4F98878F833A
:101FB000F701E45AFD4FFA87E9879701225B3D4F0D
:101FC0003C872B87435F5F4F5E874D878F8598895E
:101FD000817099275F8550FF82C0E7E0F0E0FA83C7
:101FE000E9834F8458884E0C5F1CD12CC12C28E00B
:101FF00030E0A901481B590B5E834D838D819E8182
:10200000C816D9060CF070C0F201E453FE4F80816F
:1020100087FF5EC0B6018F8598890E949203811167
:1020200054C021E0A6016F857889C7010E94E50CA4
:10203000892B09F44AC030E020E0A6016F85788939
:10204000C7010E94BF0CEB81FC8180818F5F808380
:10205000EF81F8856081718180E390E00E944A30D1
:102060004B016B3071051CF09AE0892E912C5601C2
:1020700083E0AA0CBB1C8A95E1F729813A81A20E64
:10208000B31EE985FA85808191810BE210E0081B7F
:10209000190BED85FE8520813181032E000C440B48
:1020A000550BEB85FC8560817181828193810E9453
:1020B000852DB801621B730B620D731D02E310E0E6
:1020C0009401A501C7010E94300FFFEF6F1A7F0A2C
:1020D0002FEFC21AD20A3BE0430E511C8FCF23E0F0
:1020E00030E03A8329837DCF4F855889415051098B
:1020F000588B4F8758E0251A31088F859889892B8E
:1021000009F064CFC30160960FB6F894DEBF0FBE2E
:10211000CDBFDF91CF911F910F91FF90EF90DF9096
:10212000CF90BF90AF909F908F907F906F905F9077
:102130004F903F902F900895EF92FF920F931F932F
:10214000CF93DF93EC01FC01E55AFD4F808188239A
:1021500079F1EE24EA94FE2C09E110E021E030E070
:10216000A70166E270E0CE010E94300F82E0E80E27
:10217000F11C81E4E816F10479F7FE01EB5BFD4FF9
:10218000E081EE0FFF0BEC0FFD1FDE01A25CBD4FE7
:102190008D919C91E05CFD4F20813181281739079A
:1021A00038F49183808381E0FE01EC5BFD4F8083F6
:1021B0008AE58B8BDF91CF911F910F91FF90EF906C
:1021C00008953F924F925F926F927F928F929F926B
:1021D000AF92BF92CF92DF92EF92FF920F931F9335
:1021E000CF93DF936C0122EAC21A2DEFD20AF601D7
:1021F0002081222309F4A8C0EC01F09783E090E04D
:102200009183808332968CE390E0918380833A9728
:102210008CE291E0A0E0B0E080839183A283B3835D
:10222000349680E797E1A0E0B0E080839183A283B9
:10223000B3833C9610828E01085C1D4FF8018081AB
:102240009E012B5D3D4F79018F3F69F4F90160815B
:10225000062E000C770B6F5F7F4F81E090E00E94AD
:10226000080FF8018083F8018081FE01E95CFD4FD1
:1022700080834E01F4E38F1AFEEF9F0A88E0A82EB8
:10228000B12CF7016081062E000C770B6F5F7F4F3A
:1022900081E090E00E94080FF8018083312C50E02B
:1022A00040E0082E000C990BF401E40FF51F70E0DC
:1022B00060E09A0121703327D501A21BB30B6A1786
:1022C0007B0794F42081022E000C330B37FF03C0F0
:1022D0003195219531093B962817390719F06F5F21
:1022E0007F4FEDCF332433944F5F5F4F4B30510519
:1022F000D9F6F601608170E090E080E00E94D22E75
:102300002B013C01F7016081062E000C770B880B36
:10231000990B0E94D22E20E030E040EA5FE30E9459
:10232000822F9B01AC01C301B2010E94232E18161B
:102330001CF0332009F4A5CFFE01E55CFD4F1082AF
:10234000C45CDD4F19821882DF91CF911F910F91EC
:10235000FF90EF90DF90CF90BF90AF909F908F90C5
:102360007F906F905F904F903F9008952F923F9293
:102370004F925F926F927F928F929F92AF92BF9295
:10238000CF92DF92EF92FF920F931F93CF93DF9341
:10239000CDB7DEB762970FB6F894DEBF0FBECDBFE4
:1023A0001C01912C812CF12CE12C9C01225B3D4FD6
:1023B0003E872D87AC01485B5D4F588B4F87BC0132
:1023C000645A7D4F7E836D83865B9D4F9A8389839C
:1023D000C7018170992707E0602E712CE0FC03C0D3
:1023E00013E0612E712C5101AE0CBF1CD12CC12CFD
:1023F00028E030E02901481A590AAF85B8892D91A3
:102400003C91032E000C440B550BED85FE8560813D
:102410007181828193810E94852DB901AD81BE8138
:102420008D919C91C414D5040CF04EC0F501E45379
:10243000FE4FB081EB2F0E2E000CFF0BF887EF83C1
:102440003097C1F10BE210E0081B190B021B130BB4
:10245000080D191DF7FF1BC0A981BA818D919C91B0
:1024600018161906A4F480917C0580FF10C0F101B4
:1024700080858A3061F462E070E090E080E00E9444
:10248000080F892BF1F081E090E0080F191F2F81D0
:10249000388537FF03C0319521953109A601B3E096
:1024A000440F551FBA95E1F7460D571DB801C101FC
:1024B0000E94980DFFEFCF1ADF0A2BE0A20EB11C8D
:1024C0009CCF8FEF9FEFE1CF3FEFE31AF30A48E095
:1024D000840E911C5BE0E516F10409F079CF00E869
:1024E00010E0081B190B061B170B68E870E0601B57
:1024F000710B7A83698377FF04C0695F7F4F7A83AA
:10250000698389819A81F3E095958795FA95E1F73A
:102510009A838983F12CE12CA4E08A2E912C580116
:10252000D12CC12CA981BA81CA16DB06BCF4940156
:102530002C193D0937FF02C030E020E0F10146814F
:102540005781465A5F4FB701C5010E94CC08FFEF83
:10255000CF1ADF0A28E0A20EB11CE4CF38E0E30E68
:10256000F11C40E4E416F104D1F6D10118968C91E7
:102570008A3031F1F101E55AFD4F80818823C9F19C
:1025800050E040E070E060E0F101E25CFD4F8081EE
:1025900091810E94950BF10180858B3081F1F101D1
:1025A000E95CFD4F2081022E000C330B37974081F0
:1025B0005181329760817181C1010E94980D24C0C0
:1025C00011E02FEF3FEF3A83298301E0102739F024
:1025D00041E069817A8186E290E00E945C0969812C
:1025E0007A816F5F7F4F7A8369836F33710571F7EB
:1025F000C7CF11E04FEF5FEF5A834983E6CFE55A2B
:10260000FD4F80818111CBCFD10153968C918111E7
:102610002EC0F101EA5CFD4F8081882309F455C08A
:10262000F10180858B3009F431C1F101E85CFD4F87
:102630002081298327FD1BC08A30C9F4422F042E34
:10264000000C550B5A8349833697608171818281D2
:10265000938124E630E040E050E00E94532DA90130
:1026600029813A8163E070E0C1010E94980DF10177
:10267000E55AFD4F2081222331F0D10153968C91F0
:10268000811114C321E0F10130853A3021F48389AE
:10269000882309F40BC3F101EA5BFD4F90819A3066
:1026A0000CF0CFC347E050E05A834983712C612C72
:1026B0003B3009F0F2C081E08227682E712C9A30FD
:1026C0000CF4EBC045E250E0EAC08101005D1D4F13
:1026D000D8018D919C914F9709F0A2CFF10180858F
:1026E0008A3009F09DCF6101F8E3CF1AFEEFDF0ACF
:1026F000D6018D919C91FC0127EB3DEFE29FC0013B
:10270000E39F900DF29F900D11240E94C606EE24C7
:10271000FF24E81AF90AD6018D919C91E7EBFDEFB1
:102720008E9F90018F9F300D9E9F300D112480E071
:1027300090E4821B930B0E94C606919581959109A6
:1027400022E030E03A8B298BAC01990F660B770BB6
:1027500049835A836B837C83B101625D7D4F7887A7
:102760006F83C701FF0CAA0BBB0B89879A87AB87C6
:10277000BC8760917C0570917D0580917E0590916C
:102780007F05E3E09695879577956795EA95D1F76C
:1027900023E030E040E050E00E94852D072E000C41
:1027A000880B990B0E94D22E6B017C01A989BA89F2
:1027B000BD01BB0F880B990B0E94D22E20E030E0A8
:1027C00040E450E40E94822F9B01AC01C701B60196
:1027D0000E94B72D6B017C01F801608171816F5FF0
:1027E0007F4F072E000C880B990B0E94D22E4B01B5
:1027F0005C0169817A818B819C810E94D22EA70124
:1028000096010E94822F20E03EEF4FEF56E40E9497
:10281000282E9B01AC01C501B4010E94B72D0E9476
:102820009A2E4B01AF81B8856D917C916F5F7F4F80
:10283000072E000C880B990B0E94D22E2B013C0115
:1028400069857A858B859C850E94D22EA701960189
:102850000E94822F20E03EEF4FEF56E40E94282E88
:102860009B01AC01C301B2010E94B72D0E949A2EB8
:10287000CB0141E0B4010E945C09E989FA893196F3
:10288000FA8BE98B3A9709F074CFCACEE55AFD4F1F
:1028900090819111CACE20E0F6CE40E250E0C30113
:1028A00065E0880F991F6A95E1F7840F951F222331
:1028B00009F4C2C20C9620E04090260650902706EC
:1028C00078E0780F7F83D201D5967C93BCE02B9F74
:1028D00090011124EEE0E20FE987D201D696EC9345
:1028E000D697C72ED12CD8966D917D918D919C91C4
:1028F000DB9704E6802E912CA12CB12CA50194012C
:102900000E94532D60E870E06C197D0975956795FC
:10291000620F731F7A8B698B7985E72EF12CD201B8
:10292000DC966D917D918D919C91DF97A50194012D
:102930000E94532D00E410E00E191F09159507950C
:10294000020F131F89898C5FF20183AB84E0800F33
:1029500084AB84E087AB29854F81B80189899A8946
:102960000E945F0A40E0B80189899A890E943A0969
:1029700029893A89C20ED31E31E0C31AD10840E03A
:10298000B801C6010E943A09E00EF11E41E0E41AC6
:10299000F10840E0B701C6010E943A0940E0B701E2
:1029A00089899A890E943A09D201D6968C91D69744
:1029B00082508F83D596EC90EA94EA945801BFEF49
:1029C000AB1ABB0AC988DA88EFEFCE1ADE0A4601D5
:1029D000EC0CFD2CF11C8E149F0454F420E04F816C
:1029E000B501C4010E94330AFFEF8F1A9F0AF3CF8B
:1029F0000150110929893A892150310938872F83DB
:102A0000D201D5964C91425020E0B801C6010E94F7
:102A1000EC09F20145A9425066A9600F712F711DA2
:102A20006F5F7F4F20E0C6010E94EC09D201D6966D
:102A30004C91425020E0B5018F8198850E94330A65
:102A4000F20146A9425085A92F813885280F311DF2
:102A5000C90120E0B50101960E94330A81E0D2014C
:102A60009B968C939B9781E090E0D2969C938E935B
:102A7000D197D3968C91D39790E0D596EC91D101D4
:102A800018962C9142E050E02B3011F050E040E0DD
:102A90009101255A3D4F38872F83D9012C9121115F
:102AA0001FC067E0669D8001679D100D112429817C
:102AB0003A81020F131F2BEF2003B001219F700DED
:102AC00011249B012E0F311D24503109420F531F39
:102AD00057FF02C04F5F5F4F55954795840F951F75
:102AE000D201D4962C91D49730E09D969C938E93EE
:102AF0009C979F963C932E939E97EF81F8858081BB
:102B00008111EFC06BE071E0C2010E94EF0BF10197
:102B1000EA5BFD4F6081062E000C770B6F5F7F4FE5
:102B2000C2010E94400BD10118968C918B3009F0A4
:102B3000BDC069EF70E0C2010E94EF0B82E0D201DC
:102B40009B968C939B97D3968C91D397482F50E06C
:102B5000D5968C918450990BED81FE8160817181B5
:102B6000E5E0E69F9001E79F300D1124B90137FFA2
:102B700004C066277727621B730B6A3071050CF45B
:102B80004FC1643671050CF44EC1683EF3E07F0717
:102B90000CF44CC1603177420CF04BC164E070E042
:102BA00037FF02C06F5F7F4FF20124A930E0245F3E
:102BB0003F4F645F7F4F660F771F660F771F861B3F
:102BC000970B97FD019695958795840F951F019713
:102BD000D2019D969C938E939C979F963C932E93A7
:102BE0009E976CEE70E0C2010E94EF0BED81FE81BA
:102BF0008081918125E0289FB001299F700D1124CB
:102C00006115710519F0C2010E94400BD101539664
:102C10008C9181114BC0ED81FE8100811181AF81CA
:102C2000B8858C9181111EC0EF85F8892081318192
:102C3000032E000C440B550BAD85BE856D917D9127
:102C40008D919C910E94852DC801012E000CAA0B2C
:102C5000BB0B820F931FA41FB51F80359105A105E3
:102C6000B10520F50F5F1F4FED81FE8111830083B9
:102C7000F101E25CFD4F8081918105969183808313
:102C800060917C0570917D0580917E0590917F0516
:102C90002AE030E040E050E00E94852D672B682B51
:102CA000692B21F462E0C2010E946F03C1016296A8
:102CB0000FB6F894DEBF0FBECDBFDF91CF911F914D
:102CC0000F91FF90EF90DF90CF90BF90AF909F90CB
:102CD0008F907F906F905F904F903F902F900C94CB
:102CE000C90D61E071E0C2010E94EF0BF101EC5BE4
:102CF000FD4F80818823D1F2F20184AD95ADA6AD60
:102D0000B7AD892B8A2B8B2B89F682E083A782E2D1
:102D100090E095A784A782E390E097A786A7BCEDF3
:102D2000EB2EB0E0FB2EF70184918C3719F0319631
:102D30008111FACF0E946F062EE130E040E050E0B2
:102D40000E94852DACE38A2E912CA12CB12CCA01B6
:102D5000B901A50194010E94852D9B01AC01AFEF43
:102D6000BFEF0E94722DA50194010E94532D3901DD
:102D7000812C912C5401C501B4012FE030E040E0DA
:102D800050E00E94532DC301820F931F0E94C6067C
:102D900023E030E0DC010E945E30AB01BC01FFE0CB
:102DA0007595679557954795FA95D1F7CA01C296DB
:102DB000D2019F969C938E939E97F701F491FD8389
:102DC000FF2309F473CF6A0121E3C20ED11C9C9644
:102DD0000D911C91F8013197FA83E9830D5F1F4F24
:102DE00029813A812017310771F020E047E0B601D0
:102DF00089819A810E94330A49815A814F5F5F4FCE
:102E00005A834983EDCF6D81C2010E948B0A5FEF27
:102E1000850E951EA11CB11C6FEFE61AF60AABCF0A
:102E200061E070E0BDCE62E070E0BACE63E070E0D9
:102E3000B7CE65E070E0B4CE21E03B3009F03BCD89
:102E40003BCD68E070E07A8369833B3009F433CC92
:102E5000712C612C37CCEF92FF920F931F93CF937D
:102E6000DF93EC0100912606109127067C0185EA8C
:102E7000E81A8DEFF80AF7018081882361F08B89C9
:102E8000882349F080E097EEAFEFBFEFF80184AF01
:102E900095AFA6AFB7AFF80184AD95ADA6ADB7AD10
:102EA000892B8A2B8B2B49F00E946F06FE01EE5A6C
:102EB000FD4F60837183828393838B8981116CC002
:102EC000F701F080F11023C0FE01E85BFD4F208187
:102ED0003181032E000C440B550B369660817181B5
:102EE000828193810E94852DFE01E45AFD4F8081ED
:102EF0009181092E000CAA0BBB0B820F931FA41FFC
:102F0000B51F80359105A105B10508F445C069E0FC
:102F100070E0C8010E94070C811114C068E070E0E5
:102F2000C8010E94070C81110DC0F1100BC081E097
:102F300049855A856B857C85493651406105710507
:102F400008F480E09989892B898B882329F1FF2057
:102F500069F042E050E070E060E0CE01DF91CF9197
:102F60001F910F91FF90EF900C94290CFE01EA5BEA
:102F7000FD4F80818F5F8083E881F981028CF38D22
:102F8000E02DCE01099588E78B8B50E040E06AE0A8
:102F900070E0CE010E94290CCE010E949D0C0E947F
:102FA0002104CE010E94B611DF91CF911F910F91A4
:102FB000FF90EF900C94A9070F931F93CF93DF938B
:102FC000809164008E7F8093640080917A00806499
:102FD00080937A0080917A0086FDFCCFC0917800C2
:102FE000D09179000E949205AB01BC01CE01B0E006
:102FF000A0E0DC01992788278C019D01040F151F93
:10300000261F371FC901B801209164002160209359
:103010006400611571058105910531F0DF91CF9153
:103020001F910F910C942B2DDF91CF911F910F9138
:1030300008952F923F924F925F926F927F928F925C
:103040009F92AF92BF92CF92DF92EF92FF920F9337
:103050001F93CF93DF93CDB7DEB72A970FB6F894BF
:10306000DEBF0FBECDBF8C017A8369837A01FC017C
:10307000E25BFD4FDC01A85BBD4F2D913C91032E1F
:10308000000C440B550B60817181828193810E94F9
:10309000852D69817A814B01072E000CAA08BB0897
:1030A0008BE790E0A0E0B0E0821B930BA40BB50B84
:1030B00088169906AA06BB0608F098C0F886EF8223
:1030C000CB011E830D831A8619868B97BC01620F74
:1030D000731F7A836983798587E090E070FD02C071
:1030E00083E090E029853A8543E0220F331F4A951B
:1030F000E1F749805A80421A530A10E000E029851E
:103100003A852170332748E050E0421B530B5C8323
:103110004B83052C000C660877082F803884281A0A
:10312000390A6B817C8106171707F4F521E0A801A5
:1031300069857A858D819E810E94E50C892B89F1B4
:10314000C301B2010E94D22E6B017C01C80123E0B1
:10315000880F991F2A95E1F7B101681B790B072E9B
:10316000000C880B990B0E94D22E9B01AC010E948F
:10317000822F4B015C01A7019601C701B6010E9495
:10318000822F9B01AC01C501B4010E94B72D0E94A2
:10319000F52F20E030E040EE50E40E94232E87FD22
:1031A00025C00F5F1F4FBDCF89859A8501969A87ED
:1031B00089870B9709F08FCF80E02A960FB6F89495
:1031C000DEBF0FBECDBFDF91CF911F910F91FF905A
:1031D000EF90DF90CF90BF90AF909F908F907F90B7
:1031E0006F905F904F903F902F90089581E0E5CFD2
:1031F0002F923F924F925F926F927F928F929F9207
:10320000AF92BF92CF92DF92EF92FF920F931F93F4
:10321000CF93DF93CDB7DEB7A0970FB6F894DEBF9C
:103220000FBECDBF1C0120912606309127063A83A0
:103230002983FC018389811146C05101FAECAF1A40
:10324000FDEFBF0AF501808181113DC085E090E06E
:10325000F901978F868F84E090E0958F848F6101CC
:10326000F0EDCF1AFDEFDF0AF60180819181B10107
:103270006E5C7D4F4F9709F44CC08CE29AE1A0E060
:10328000B0E0FB0180839183A283B38301E02EE44D
:103290003CE040E050E07101F6EDEF1AFDEFFF0A6F
:1032A000B70189819A810E94A503F701608171812C
:1032B0008281938124E630E040E050E00E94532D6B
:1032C000F60131832083E981FA818689887188310A
:1032D00009F0B6C050E040E070E060E0C101A096A7
:1032E0000FB6F894DEBF0FBECDBFDF91CF911F9117
:1032F0000F91FF90EF90DF90CF90BF90AF909F9095
:103300008F907F906F905F904F903F902F900C9494
:10331000290C01E022EA37E140E050E089819A81FE
:103320000E94A50363E170E089819A810E94070CE5
:10333000F82E65E170E089819A810E94070C810175
:1033400008531E4F4F2D480F5527551FF801E08099
:10335000F180E41AF50AF182E08264E170E089818B
:103360009A810E94070CD82E66E170E089819A81CB
:103370000E94070C2D2D280F3327331FC9018E0DF6
:103380009F1D813391050CF048C0F8019183808323
:1033900080819181089724F488E090E09183808374
:1033A00069E070E089819A810E94070C811109C04F
:1033B00068E070E089819A810E94070C882309F4F3
:1033C00082CFBAE0EB2EF12C88E0482E512C41013F
:1033D0008E0C9F1CD12CC12CC70181709927320102
:1033E000681A790AC614D704DCF4F401E453FE4FDA
:1033F0002081022E000C330B37FF08C03195219538
:103400003109A601B701C1010E94BF0CFFEFCF1A1D
:10341000DF0A2BE0820E911CE5CF80E390E0B5CF70
:1034200031E0E31AF10899F681E0F5018083F801B3
:1034300080819181F101E653FE4F9183808343CFD8
:10344000F101E55AFD4F8081882361F066E08981B2
:103450009A810E946F0350E040E06BE070E0C10190
:103460000E94290CF101838981118CC1EA5CFD4F16
:103470008081882309F435C1810106531E4F60E71E
:1034800070E0F801808191810E944A077C0160E729
:1034900070E0F801808191810E9414079E838D83E2
:1034A000B701FF0C880B990B0E94D22E69837A8397
:1034B0008B839C832101FAED4F1AFDEF5F0AF20125
:1034C00060817181828193810E94D22E6B017C0187
:1034D00020E030E040EA50E469817A818B819C8170
:1034E0000E94822F9B01AC01C701B6010E94B72D3B
:1034F0000E949A2E4B012D813E81B901330F880B1A
:10350000990B0E94D22E6D837E838F839887A101B1
:10351000465D5D4F5A874987FA01608171818281DA
:1035200093810E94D22E6B017C0120E030E040EAC2
:1035300050E46D817E818F8198850E94822F9B014E
:10354000AC01C701B6010E94B72D0E949A2E6B01F3
:1035500024E630E0CB01B9010E944A30FB01C401EE
:10356000B9010E944A30AF01C1010E941918882395
:1035700009F46AC009851A855E864D86F801808047
:103580009180A280B380C501B40124E630E040E020
:1035900050E00E94532D29873A874B875C87ED8541
:1035A000FE854080518062807380C301B20124E6B1
:1035B00030E040E050E00E94532D69013A8B298BA6
:1035C00049855A85B601C1010E941918811104C1AB
:1035D000C301B2010E94D22E6B017C012DEC3CECA8
:1035E0004CEC5EE369817A818B819C810E94822F01
:1035F0009B01AC01C701B6010E94B72D0E949A2E13
:10360000ED85FE856083718382839383C501B40158
:103610000E94D22E6B017C012DEC3CEC4CEC5EE365
:103620006D817E818F8198850E94822F9B01AC01E4
:10363000C701B6010E94B72D0E949A2EF80160833F
:103640007183828393839ACFB401990C880B990B71
:10365000F20160837183828393830D2C000CEE084A
:10366000FF08E985FA85C082D182E282F382A4E66E
:103670008A2E912CA12CB12CA50194010E94532DCE
:10368000F101E25DFD4F31832083C701B601A50141
:1036900094010E94532DF101E05DFD4F31832083A1
:1036A000FCE2CF1AF1E0DF0AE108F10821EEC216D0
:1036B00025E1D206E104F104A0F0F8012081318176
:1036C00088E390E0821B930B9183808360E770E036
:1036D0000E944A0760E770E0F801808191810E94B2
:1036E0001407C1010E949D0C610152EBC51A5DEFE8
:1036F000D50AF60180809180A280B3803697208120
:103700003181032E000C440B550BC501B4010E94FE
:10371000852D225031094109510983E0569547957D
:10372000379527958A95D1F73A832983C90162E0B5
:1037300070E00E944A3028E030E07901E81AF90A86
:1037400010E000E021E0A80169817A81C1010E94B6
:10375000E50C181619060CF4D7C30F5F1F4FE016BF
:10376000F10681F780E0F101E55AFD4F80838091F9
:103770005A05880E911CA11CB11CF6018082918211
:10378000A282B382F101E65BFD4F80819181181620
:1037900019061CF40197918380830E942104C101C2
:1037A0000E94B611A0960FB6F894DEBF0FBECDBF33
:1037B000DF91CF911F910F91FF90EF90DF90CF900D
:1037C000BF90AF909F908F907F906F905F904F9041
:1037D0003F902F900C94A907F101E25DFD4FD1823B
:1037E000C082329629853A853183208340E550E0B6
:1037F0005E834D838FE097E29E878D87EAE0F0E05D
:10380000F8A3EF8F9101245A3D4F388B2F87A101E8
:10381000425B5D4F5E8B4D8BC101885B9D4F988FE6
:103820008F8BF101E65CFD4FFC8FEB8F235231094A
:103830003E8F2D8F8F8D98A1817099279C01220F2B
:10384000331F220F331F3A8229824F8C58A0420C1B
:10385000531C712C612C48E050E0481B590B5C8BC9
:103860004B8B89859A85821B930BFC013397FA8FCA
:10387000E98F2B893C89621673060CF07AC0F2013D
:10388000E453FE4F808181116DC0EF85F8898081FE
:1038900091810BE210E0081B190BEF89F88D208154
:1038A0003181032E000C440B550BED89FE8960819C
:1038B0007181828193810E94852D021B130B2D81C2
:1038C0003E81020F131F69897A89601B710B072ED5
:1038D000000C880B990B0E94D22E6B017C01C30156
:1038E000E3E0880F991FEA95E1F7698D7A8D681BEF
:1038F000790B072E000C880B990B0E94D22E9B018E
:10390000AC010E94822F4B015C01A7019601C70107
:10391000B6010E94822F9B01AC01C501B4010E9437
:10392000B72D0E94F52F6B017C014D855E85BA0194
:10393000550F880B990B0E94D22E9B01AC01C70139
:10394000B6010E94232E87FF0DC02F8DEB8DFC8DBD
:103950002083ED8DFE8D6082C701B6010E949A2EF4
:103960007E876D87FFEF6F1A7F0A2BE0420E511C96
:1039700080CF4F8D58A14150510958A34F8F8D8151
:103980009E8108979E838D834F3F5F4F09F052CFF2
:103990007101E9ECEE1AEDEFFE0AF7012081022E2B
:1039A000000C330B8101075C1D4FF8014081042E90
:1039B000000C550BC101865C9D4F9E838D83FC01DD
:1039C0006081062E000C770BC1010E94BF0CF8012C
:1039D0000081002E000C110BED81FE81F0812F2F54
:1039E000022E000C330B3E832D83B801C9010E94C7
:1039F0009203811165C0F7012081022E000C330B68
:103A0000A8016D817E81C1010E94180DF101EB5B5F
:103A1000FD4F408123E030E0241B310947FD339501
:103A2000821793070CF435C2379725E0289FA00131
:103A3000299F500D112420813181240F351F31839E
:103A40002083329791838083C1010E94AB0F29E0CC
:103A500030E03E832D83512C412C78E0C72ED12CB1
:103A6000ED80FE80E20CF31C10E000E08D819E8171
:103A7000817099275601A81AB90A0A151B051CF569
:103A8000F701E453FE4F20812223A1F0022E000C07
:103A9000330B37FF03C031952195310931952195BD
:103AA0003109A8016D817E81C1010E94BF0C3FEFE9
:103AB000431A530A0F5F1F4F4BE0E40EF11CDDCF9A
:103AC00090E080E0A3CF8D819E8101979E838D83BE
:103AD000892B31F669E0E62EF12CF88AEF861E82FA
:103AE0001D82EAE0F0E0EE19FF09FC8BEB8B8F857D
:103AF000988981709927E8E0F0E0E81BF90BFA8BD0
:103B0000E98B2D813E818F849888232B09F40EC187
:103B100031E0831A9108009709F40CC1E1E0F0E06C
:103B2000FE87ED8757E0652E712C681A790AD12C33
:103B3000C12C86011A8619865BE0509FF001519FC7
:103B4000F00D1124E20DF31D8F859889E80FF91F00
:103B5000E453FE4FA0800A2C000CBB08B7FE39C00E
:103B600020E0A8014F5F5F4FBC01C1010E94E50C3E
:103B7000181619060CF120E0A801415051096F8573
:103B80007889C1010E94E50C18161906ACF020E0F6
:103B9000A801B401C1010E94E50C1816190664F0D1
:103BA00020E04D855E85400F511FB401C1010E9488
:103BB000E50C181619066CF4222733272A193B093D
:103BC000A8016F857889C1010E94BF0C91E0491A54
:103BD0005108E985FA85319709F0B1C0FFEFCF1A96
:103BE000DF0A21E0621A710849895A894C155D057E
:103BF00009F09FCF8D819E81019709F08EC091E0E1
:103C0000E91AF10809F069CF08E010E0712C612C85
:103C10007801EFEFEE1AFE0A970121703327C901F0
:103C2000880F991F188A1F8648E050E0421B530BEB
:103C30005A874987F8013296FE83ED839C01225012
:103C400031093E872D8749855A858F859889841744
:103C500095070CF07AC020E0AC01B701C1010E94C9
:103C6000E50C6C018F8498889FEF891A990AD7FE1A
:103C700051C020E0A401B701C1010E94E50C181653
:103C80001906C4F120E04F85588941505109B70108
:103C9000C1010E94E50C1816190664F120E04F8559
:103CA00058896D817E81C1010E94E50C18161906A4
:103CB0000CF1AD84BE84A80CB91C20E0A5016D8177
:103CC0007E81C1010E94E50C181619069CF020E0C7
:103CD0004F855889B801C1010E94E50C18161906D4
:103CE0004CF020E0A501B801C1010E94E50C1816B6
:103CF000190684F4222733272C193D094F8558894A
:103D0000B701C1010E94BF0CE1E04E1A5108FFEF5C
:103D10006F1A7F0A988A8F8696CF2B893C89388BB9
:103D20002F8741E050E05E834D83E1CE4FEF841A50
:103D3000940AF1CE2FEF3FEF3E872D87F3CE83011C
:103D400041E050E05A874987F7CE0150110908F049
:103D50005FCF672809F058CFF101E45CFD4F608127
:103D60007181640D751D7183608380E390E00E9412
:103D70004A306B30710514F06AE070E0649D800198
:103D8000659D100D749D100D11240133110514F063
:103D900000E310E0910120553E4F40E350E05E8388
:103DA0004D8381E090E0E981FA8140A1411102C098
:103DB00090E080E04D815E81481B590B5E834D830E
:103DC00089819A8109969A8389832817390749F747
:103DD00029E0F22E60E370E090E080E00E94080F9E
:103DE000F89EF001F99EF00D1124E20DF31D80A163
:103DF000882331F010A2ED81FE813196FE83ED83A0
:103E00002D813E81201731072CF3F101E25CFD4F3B
:103E1000C201019745E0489F9001499F300D112450
:103E2000265F3F4F249DC001259D900D349D900D30
:103E3000112420813181820F931F91838083C101DE
:103E40000E94AB0F10E000E01A82198298E0C92EA0
:103E5000D12CF12CE12C89819A818170992756010E
:103E6000A81AB90AEA14FB0404F521E0A701698144
:103E70007A81C1010E94E50C21E030E01816190694
:103E800014F030E020E0020F131F3FEFE31AF30AB3
:103E9000E9CF4111D7CF0297ACF28FE090E0F1016A
:103EA000E65BFD4F91838083CDCF49815A814F5F7F
:103EB0005F4F5A8349834B30510559F6F101E25A5D
:103EC000FD4F0083809126069091270601110EC0B8
:103ED00061E00E946F03C1010E94E11050E040E0E8
:103EE0006BE070E0C1010E94290CFBCBF101E55CA5
:103EF000FD4F208164E0211101C062E00E946F0348
:103F0000C1010E94E110EDCB81E02DCC2F923F92B8
:103F10004F925F926F927F928F929F92AF92BF92D9
:103F2000CF92DF92EF92FF920F931F93CF93DF9385
:103F3000EC01E0912606F091270680E097EEAFEFC6
:103F4000BFEF84AF95AFA6AFB7AFFE01E65BFD4F05
:103F500011821082349610821182128213823E9650
:103F6000118210827697808188300CF053C08E5F6A
:103F70005E012CEDA21A2DEFB20AD5018C936E01D1
:103F8000B2EACB1ABDEFDB0AF601108288E5E259EE
:103F9000F109DF011D928A95E9F70E94DC1710E014
:103FA00000E088E0282E312C9AE0492E512C3E0169
:103FB000BBED6B1ABDEF7B0AF12CE12CC8018170BF
:103FC00099274101881A990AE814F90444F5F50182
:103FD00080819201281B310987FD33952017310715
:103FE000DCF4D3016C91062E000C770B6F5F7F4FD2
:103FF00081E090E00E94080F9C01A701B801CE016A
:104000000E94BF0CF60180818F5F8083FFEFEF1A63
:10401000FF0ADACF8AE0ACCF90E080E0EDCF0F5F0F
:104020001F4F0B30110541F6FE01E85CFD4F8FEF8D
:104030008083CE01DF91CF911F910F91FF90EF9080
:10404000DF90CF90BF90AF909F908F907F906F90B8
:104050005F904F903F902F900C94E1102F923F92E1
:104060004F925F926F927F928F929F92AF92BF9288
:10407000CF92DF92EF92FF920F931F93CF93DF9334
:10408000CDB7DEB72C970FB6F894DEBF0FBECDBF0D
:104090002C0120912606309127063A832983D901E5
:1040A0005B961C92FC01EB5BFD4FFE83ED838081F0
:1040B00005E010E087FF02C001E010E066E170E07B
:1040C00089819A810E94070CF82E65E170E0898150
:1040D0009A810E94070C9201245B3D4F3C832B8305
:1040E000AF2DA81BBB0BCD01F90120813181820FBF
:1040F000931F081719070CF42AC191838083EB8161
:10410000FC818081918197FF02C011821082809191
:104110005201882359F044F0082E000C990B0197A6
:10412000AB81BC818D939C931092520169E070E049
:1041300089819A810E94070C8823F9F0EB81FC8128
:1041400060817181623071050CF006C1AD81BE8164
:104150006C93F201E85BFD4F062E000C770B6F5F4E
:104160007F4F8EEB9AE00E944A307183608382E039
:1041700090E0EB81FC8191838083F201838981113E
:1041800010C0EA5AFD4F8081882359F08AE5D20198
:1041900053968C9341E050E06AE070E0C2010E94C7
:1041A000290CC2010E949D0C0E942104A8E06A2EE5
:1041B000712C1A861986F201E95AFD4FFA83E983B8
:1041C00029853A852F5F3F4F38872F83F12CE12CCB
:1041D0000E946F064B015C01C984DA8489859A8547
:1041E00005971CF0F4E0CF2ED12CD20116962D901D
:1041F0003C90BAE52B0E311CE981FA816081718116
:104200008281938124E630E040E050E00E94532D0B
:104210002C5B3F4F890106191709C501B40121E73D
:1042200032E040E050E00E94852DC9018770992757
:104230009601A101B801D701A81BB90BCD010E94BD
:10424000CC08B8E0EB0EF11CE8E8EE16F10409F03A
:10425000BFCFF8E06F0E711C2F8138853A87298710
:104260002630310509F0ACCF609026067090270605
:1042700081E0D3019B968C939B97D2961C921E92C1
:10428000D197F201828193810E94342D6C0129E043
:104290002C9DC0012D9D900D112421E830E0281B9C
:1042A000390B38872F8337FF04C02F5F3F4F388784
:1042B0002F838F8198859595879598878F83F12C8B
:1042C000E12C52019AEAA91A9DEFB90AE7E08E2E75
:1042D000912CD5018C91EC14FD040CF06FC0D2012F
:1042E0001296ED91FC91EE0DFF1D3490B0E23B165D
:1042F00029F10F8118850E5F1F4F81114CC0F2010B
:10430000468157814B575F4F30E020E066E070E018
:104310008F8198850E94CC08D3019D961C930E93A3
:104320009C979F969C928E929E97B0E6B31514F43C
:10433000E0EE3E0E632DC3010E948B0ABFEFEB1A25
:10434000FB0AEF81F8853996F887EF83C2CFAB81FE
:10435000BC810D931C93D3CE92012A5B3D4F3A83CF
:1043600029836250D9016C93D201ED91FC91028CAA
:10437000F38DE02DC2010995E981FA818081F20176
:10438000E95BFD4F808381E03F9680838CE3D2011F
:1043900053968C93F2CED20153968C918C3371F656
:1043A00002E310E024E030E049E050E06F817885DE
:1043B0006D5F7F4FC2010E94300FC0CF882351F044
:1043C00000E022EF32E140E050E069817A81C301F0
:1043D0000E94A50381E090E0D301D2969C938E9336
:1043E000D197E981FA81608171818281938124E68C
:1043F00030E040E050E00E94532D6901FAE1CF0E19
:10440000D11CAD81BE818C9187FD09C001E020E007
:1044100030E0A90160E071E0C3010E94A503609152
:10442000000170910101809102019091030124E645
:1044300030E040E050E00E94532D4901F9013E96E2
:10444000FA83E9831C861B8696012250310938873E
:104450002F8365E0262E312CC4010A969A8789871E
:104460008B859C85B1010E944A30FB0153E0EE0F21
:10447000FF1F5A95E1F7EC31F10514F0EBE1F0E0A4
:10448000AF81B885EA0FFB1F8B859C85B1010E9427
:104490004A3043E0880F991F4A95E1F78D31910525
:1044A00014F08CE190E0E12C08E028E044ED50E0CD
:1044B000BF01E985FA858E0F9F1F0E94D5072B85C6
:1044C0003C852F5F3F4F3C872B872931310541F6D3
:1044D00082E0D3019B968C939B9789819A81069663
:1044E0009D969C938E939C979F96DC92CE929E97DE
:1044F0006FEC70E0C3010E94EF0B1601B8E02B0EC9
:10450000311CE3E18E0E911C1C861B869601245FF4
:104510003F4F3A8729873EE0A32EB12C740195E0E6
:10452000E91AF108E1E0D3019B96EC939B979D96E5
:104530009C928E929C9729853A859F963C932E93C8
:104540009E976B856F5BC3010E948B0AAB81BC8118
:104550008D919C91EB85FC858E179F0721F4B1010D
:10456000C7010E948509AD81BE818C91082E000C87
:10457000990BEB85FC858E179F0791F410E000E006
:10458000C801B5010E944A30620D731D42E08E0DD4
:104590009F1D0E945C090F5F1F4F043C110581F7AE
:1045A000FEE08F0E911C2B853C852130310509F0F2
:1045B000F1C082E0D3019B968C939B97E981FA81AD
:1045C0009D96FC93EE939C97C60149969F969C936B
:1045D0008E939E9768EC70E0C3010E94EF0BAB8155
:1045E000BC818D919C9163E070E0681B790B029710
:1045F0004CF0ED81FE81808163E070E0681B710901
:1046000087FD7395C3010E94400B6091000170917A
:104610000101809102019091030122E330E040E02A
:1046200050E00E94532D4901285C3F4F3E832D836B
:104630001C861B86C401C4969A8389836B857C85FE
:10464000687F6531710514F064E170E0AF81B88571
:104650006A0F7B1F8B859C858770992723E0880FC5
:10466000991F2A95E1F7E12C08E028E044ED50E09D
:10467000E981FA818E0F9F1F0E94D5072B853C850B
:104680002F5F3F4F3C872B8720323105B9F682E000
:10469000D3019B968C939B978D819E8101969D96CD
:1046A0009C938E939C979F96DC92CE929E9769EBFB
:1046B00070E0C3010E94EF0BF401FD96FA83E983D9
:1046C000B12CA12C99249394E980FA8085E0E81A12
:1046D000F108D3019B969C929B97E981FA819D9664
:1046E000FC93EE939C9729853A859F963C932E9355
:1046F0009E9785010F5F1F4FB801C3010E94400BB9
:10470000AB81BC818D919C9102978A159B0521F408
:10471000B101C7010E94850929813A81225F3F4F7B
:104720003A83298358010430110571F65201BBEB1D
:10473000AB1ABDEFBB0AF501808187FF34C0992415
:10474000939486010A5E1F4F88248394ED80FE8037
:10475000F8E3EF0EF11C201631062CF52D813E8179
:104760003A83298381E0A981BA81AE15BF05BCF4E3
:10477000811101C09824992031F040E0B101898174
:104780009A810E945C09E981FA813196FA83E98372
:1047900080E0E9CF81E090E09C878B87BFCEFFEF80
:1047A0002F1A3F0AD8CFD501EC91E7FD53C00E2E4A
:1047B000000CFF0BE05EFE4FEE0FFF1FE40DF51D3A
:1047C00080819181892B09F445C08601025E1F4FCB
:1047D000E4E3F0E0FA83E98320E049E0B80189816D
:1047E0009A810E94330A29813A812F5F3F4F3A8391
:1047F00029832038310581F7C60180969A83898301
:1048000088E390E0D3019D969C938E939C97E981D9
:10481000FA819F96FC93EE939E9782E09B968C93F1
:104820006CEA70E0C3010E94EF0BD3019C966D917E
:104830007C91D501EC910E2E000CFF0BE05EFE4F3B
:10484000EE0FFF1FE40DF51D49815A818081918192
:104850000E94950BC2010E94C90D2C960FB6F894C8
:10486000DEBF0FBECDBFDF91CF911F910F91FF90A3
:10487000EF90DF90CF90BF90AF909F908F907F9000
:104880006F905F904F903F902F900C94A9071F92CC
:104890000F920FB60F9211248F939F938091E10096
:1048A0009091E100937F9093E10083FF0FC01092FD
:1048B000E90091E09093EB001092EC0092E390936A
:1048C000ED001092790598E09093F00082FF22C0ED
:1048D00093E09093E9009091F200992319F09AE304
:1048E0009093E80090916A05992341F090916A05B0
:1048F000915090936A05911101C05D9A909178054D
:10490000992341F0909178059150909378059111F9
:1049100001C0289A84FF18C08091E2008E7E8160D9
:104920008093E2008091E1008F7E8093E10080918E
:104930006B058E7E806180936B059F918F910F90A8
:104940000FBE0F901F90189580FFF7CF8091E20067
:104950008E7E80618093E2008091E1008E7E809364
:10496000E10080916B058E7E8160E5CF1F920F92F2
:104970000FB60F921124CF92DF92EF92FF920F9316
:104980001F932F933F934F935F936F937F938F93D7
:104990009F93AF93BF93EF93FF93CF93DF93CDB7E5
:1049A000DEB76C97DEBFCDBF1092E9008091E800C2
:1049B00083FF25C068E0CE0145960E94850582EF01
:1049C0008093E8008D8987FF39C09091E80090FFBF
:1049D000FCCF982F907609F034C19E894F89588D6D
:1049E0002F89F88C911131C0803861F5809169056B
:1049F0008093F1001092F1008EEF8093E8006C96A6
:104A00000FB6F894DEBF0FBECDBFDF91CF91FF91FF
:104A1000EF91BF91AF919F918F917F916F915F9136
:104A20004F913F912F911F910F91FF90EF90DF9049
:104A3000CF900F900FBE0F901F9018959EEF909300
:104A4000E800C7CF1092F100D5CF913059F4811111
:104A5000D3CF4130510581F6809169058D7F8093D8
:104A60006905CACF933049F48111C6CF4130510551
:104A700019F6809169058260F2CF953041F48091FA
:104A8000E80080FFFCCF20682093E300B5CF96308C
:104A900009F0A9C00B8D1C8D22E01092E900109244
:104AA000670510926605F2122EC0109265051092ED
:104AB00064050E9454051F8299E09983FA8291E06F
:104AC0009E8390EA98879AEF9987209166053091A6
:104AD0006705275F3F4F3C832B838D831092E9004E
:104AE00010926705109266051093650500936405A2
:104AF00049E050E0BE016F5F7F4F80E00E942E05CD
:104B00000E94540579CF10936505009364050E94B7
:104B10006B04DC0112960D911C910115110509F42D
:104B200051C1D801ED91FC910480F581E02DBE01C9
:104B30006B5E7F4FC8010995009709F03EC1F801EF
:104B400000851185EACFF3E0FF120EC08F8988231C
:104B500009F440C0823061F440E860E186EC94E002
:104B60000E943227811148CF81E28093EB0047CF2A
:104B7000813029F440E86BE08AEB94E0F1CF833098
:104B800099F70E946B04DC011296ED90FC908E0167
:104B90000F5F1F4F6801E114F10479F0D701ED9127
:104BA000FC910680F781E02DB801C7010995080F37
:104BB000111DF701E084F184EECFD8011C92F601BB
:104BC00001900020E9F73197BF016C197D0940E0A1
:104BD000C601C6CF64EA74E0FB01449150E080E86E
:104BE0000E942E0509CF973009F4BECF983021F4EA
:104BF00081E08093F10000CF993009F0FDCE837001
:104C000009F0B2CFE6E1F1E081E031E096E32191F5
:104C1000222371F08093E9003093EB00DF011197BC
:104C20002C912093EC009093ED008F5F873079F703
:104C30008EE78093EA001092EA008F8980937905CD
:104C4000DBCE8B8D9C8D1092E9001092670510923F
:104C500066059093650580936405898D811192C0E6
:104C60008E899D89913A49F4813209F07DCF47E0E0
:104C700050E069E071E080E0B3CF913209F074CF89
:104C8000833269F48F89988DB0E0A0E080930501AC
:104C900090930601A0930701B0930801ADCE803236
:104CA00069F48091E80082FFFCCF67E089E091E041
:104CB0000E9485058BEF8093E8009ECE823209F03A
:104CC0009BCE8F8980931001EEEFFFE78591949141
:104CD0008B3F9C4D51F1E0E0F8E08091090190910B
:104CE0000A01A0910B01B0910C01803B9440A105F9
:104CF000B105F1F48091100180FD1AC0EE3F8AE009
:104D0000F80789F587E797E79183808380916000B2
:104D10008093680588E19BE00FB6F894A89580938E
:104D200060000FBE9093600067CEEEEFFAE0D5CF43
:104D3000808191818737974709F05ECEA895809151
:104D400060008861809360008091680580936000B6
:104D5000EE3F2AE0F20789F08091FE0A9091FF0A67
:104D60009183808349CE808191818737980751F262
:104D70009093FF0A8093FE0AC5CF1092FF0A10920B
:104D8000FE0A3ACE0E946B04DC0112960D911C9132
:104D90000115110509F4E8CED801ED91FC910190BF
:104DA000F081E02DBE016B5E7F4FC8010995811136
:104DB00023CEF80100851185EBCF181619060CF4E7
:104DC0001BCED2CEF1E0FF12BECE68EA74E004CF73
:104DD0001F920F920FB60F9211242F933F938F9330
:104DE0009F93AF93BF9380915C0590915D05A091D7
:104DF0005E05B0915F0530915B0523E0230F2D37F1
:104E000058F50196A11DB11D20935B0580935C05AB
:104E100090935D05A0935E05B0935F05809160055A
:104E200090916105A0916205B09163050196A11D65
:104E3000B11D8093600590936105A0936205B093C6
:104E40006305BF91AF919F918F913F912F910F90EB
:104E50000FBE0F901F90189526E8230F0296A11DF4
:104E6000B11DD2CFEF92FF920F931F93CF93DF9399
:104E7000F82E192FE62E042F81E0860F880F0E944E
:104E8000000583E00E940005CF2DD12FEC0EFD2EF2
:104E9000F11CCE15DF05B9F007FF13C0FE018491A8
:104EA0000E940005182F80E00E94000581232196B2
:104EB0008111EFCFDF91CF911F910F91FF90EF9074
:104EC00008958881EDCF81E0F5CF1092830510928F
:104ED000820588EE93E0A0E0B0E080938405909393
:104EE0008505A0938605B093870580E291E09093B5
:104EF0008105809380052FEF3FEF30938D05209340
:104F00008C0580911E06811178C08CE390E090930F
:104F1000D2058093D1051092DB051092DC0510922A
:104F2000DD051092DE051092E0051092E105109269
:104F3000E2051092E3051092E4051092E505109247
:104F4000E6051092E7051092E8051092E90581E068
:104F50008093EA058093EB0546E050E05093ED0521
:104F60004093EC054FE050E05093EF054093EE0581
:104F7000E2EFF5E096E0DF011D929A95E9F73093B4
:104F8000F1052093F0051092F8051092F9051092A2
:104F9000FA051092FB051092000621E030E03093F4
:104FA000020620930106109208061092090610923C
:104FB0000A0610920B0610920C0610920D06109223
:104FC0000E0610920F061092100610921106109203
:104FD00012061092130610921406109215061092E3
:104FE00016061092170610921906109218061092C3
:104FF0001B0610921A0680931E0680ED95E0909392
:1050000027068093260610923006109231061092E1
:105010003206109233061092340610923506109222
:10502000360610923706109238061092390681E043
:1050300080933A0610923B0610923D0610923C0671
:1050400082E391E09093290680932806E8E2F6E057
:1050500010A23996B7E0E83DFB07D1F7E4EFF7E09F
:1050600088E5DF011D928A95E9F787E080934D0876
:10507000109268081092690810926A0810926B08E2
:105080008FEF80936D0810926F0810927508109240
:10509000740885EF95E090932F0680932E069093E9
:1050A0002D0680932C068DE096E090932B0680933E
:1050B0002A060895789484B5826084BD84B58160A1
:1050C00084BD85B5826085BD85B5816085BD8091D3
:1050D0006E00816080936E0010928100809181004B
:1050E0008260809381008091810081608093810043
:1050F0008091800081608093800080919100826027
:1051000080939100809191008160809391008091C3
:1051100090008160809390008091C10084608093B2
:10512000C1008091C10082608093C1008091C10064
:1051300081608093C1008091C30081608093C3002F
:105140008091C00082608093C0008091C200816025
:105150008093C20080917A00846080937A0080916D
:105160007A00826080937A0080917A0081608093D7
:105170007A0080917A00806880937A001092790595
:105180001092690510926B058091D7008160809321
:10519000D70080EA8093D80089B5806189BD89B540
:1051A000826089BD09B400FEFDCF61E070E080E05F
:1051B00090E00E94B7058091D8008F7C8061809339
:1051C000D8008091E000807F8093E0008091E10032
:1051D0008E7E8093E1008DE08093E200559A209AC4
:1051E000E0912606F091270683E591E090937B05F8
:1051F00080937A058CE390E09283818380E18093B1
:10520000530581EC80937C0085B1806F85B984B1B2
:10521000877E84B984B1876E84B95E9A5F988AB1BB
:10522000806D8AB9769A6E9881B3806F81BB8998B8
:1052300080B38D7080BB80E58CBD81E08DBD81E841
:105240008093640080916500816080936500009187
:105250007A0510917B05D0E0C0E0F801EC0FFD1F4E
:1052600084910E9491072196C11524E0D207A9F7E5
:1052700085E090E00E94D0075F9A85E090E00E9470
:10528000D0075E985C98C5E5D4E002E614E0FE0124
:1052900084910E94910721960C171D07C1F75C9A13
:1052A00080E80E948607882391F05C9885EA0E9436
:1052B00091075C9A2E982F982D98809164008062B7
:1052C0008093640081E083BF889513BEFCCF84E0A7
:1052D0000E948607882309F448C02D9884E80E941C
:1052E00086078823E1F00E947C0788EC90E00E940A
:1052F000D0072F9882E090E00E943D2D8F3F29F04B
:105300006FEF82E090E00E94452D84EF91E00E94D3
:10531000D0072F9A84E80E9486078111FBCF84E191
:105320000E9486078823E1F00E947C0788EC90E0C9
:105330000E94D0072E9882E090E00E943D2D8823A5
:1053400029F060E082E090E00E94452D84EF91E03A
:105350000E94D0072E9A84E10E9486078111FBCF1C
:1053600088EC90E00E94D007B2CF0E947C0782E0D8
:1053700090E00E943D2D882309F477C03E9A3F9A21
:10538000109290008AE08093910081E090E00E946A
:105390003D2DC82F81E090E00E943D2D81FF10C07F
:1053A0001C2F1470C2FD2E98C1EFDFEF80E40E9425
:1053B0008607882309F45CC02E9A2F9A0E947C07E6
:1053C00082E390E00E94D0070E947E078111F8CF0F
:1053D000E0912606F091270681E0828F838F86E098
:1053E00090E0958F848F8FE090E0978F868F0E945A
:1053F000DC171092390688E296E00E941A0E10928D
:105400003A062091300680910401082E000C990B79
:105410002817190651F01092310610923206109298
:1054200033061092340620930401C0912606D091D1
:1054300027060E946F064B015C01809155059091F3
:105440005605A0915705B0915805A5019401281B58
:10545000390B4A0B5B0BDA01C90120915405222359
:1054600089F18F8710925405E4CF3E983F9888CFFA
:10547000112329F0C430D10511F42E9A2F980E94DF
:105480002104EE24E39400E128E545EA53E0BE015F
:1054900084E190E00E94D5070E9497078FE090E09A
:1054A0000E94D0072196C931D10509F07FCF112381
:1054B00011F02F9A2D9880E991E00E94D0070E9468
:1054C0007C077ECFC0905305D12CF12CE12C8C159C
:1054D0009D05AE05BF0574F40196A11DB11D8C1587
:1054E0009D05AE05BF050CF0A4CF81E090E00E94C1
:1054F000D0079FCF4F80588469847A8420915A05C1
:1055000030E050E040E02419350946095709280DDC
:10551000391D4A1D5B1D542F432F322F222760E077
:1055200070E080ED97E00E94532D3C832B83942FF5
:10553000832F722F6627662799273980212C9101A6
:1055400050E040E00E94532D3E832D83882D841926
:1055500080935A05C80CD91CEA1CFB1CCB86DC8640
:10556000ED86FE868F829886A986BA86809255053A
:1055700090925605A0925705B092580531E03093AD
:10558000540580917C0590917D05A0917E05B09198
:105590007F050196A11DB11D80937C0590937D052B
:1055A000A0937E05B0937F058C898F8B1C8A8D8993
:1055B000888F1D8A8E89898F1E8A10E000E0043151
:1055C000110509F4A4C00CF097C080E8033111055F
:1055D00009F49AC00830110509F46EC009301105AC
:1055E00009F465C00F5F1F4F0831110509F055C060
:1055F000CC8CDD8C1C141D040CF099C06E88712CB1
:10560000A0902606B0902706FE0103E010E0902E41
:10561000C301002E02C0959587950A94E2F780FF9A
:1056200033C1E0A0F1A050E040E0F7FE0EC0D5018C
:1056300015962D913C91AE8DBF8D0E945E30472F07
:10564000582F692F772767FD7A95C701019791A396
:1056500080A3EF2809F062C081E090E0A0E0B0E014
:1056600004C0880F991FAA1FBB1F9A94D2F7809578
:10567000998D8923898FD50115962D913C91D6015D
:105680000E945E30672F782F892F992787FD9A9582
:10569000640F751F71A360A343C00130110549F069
:1056A0000230110509F08BCF8B8D882339F084E00F
:1056B0002BC08B8D882311F088E026C080E090E01D
:1056C00098012770332741E050E060E070E004C0AB
:1056D000440F551F661F771F2A95D2F7F80153E034
:1056E000F595E7955A95E1F7EC0FFD1F2489892B75
:1056F00091F0422B448B76CF0531110551F080E4B7
:105700000631110509F066CF0E948607D8CF80E1E7
:10571000FBCF80E2F9CF40954223ECCF97FDABCF92
:105720000F5F1F4F32960730110509F070CF88A523
:10573000811115C09F898C89981308C0988D8D8917
:10574000981304C0998D8E89981749F089A5811105
:1057500006C00E946F06688B798B8A8B9B8B89A50C
:10576000882331F08AA5882319F018A619A61AA64D
:1057700089A5882359F08C89811108C08D898111F0
:1057800005C08E89811102C031E03AA78091590588
:10579000882339F0815080935905811102C01092FD
:1057A00090008E01085B1F4FD8018D919C91892B31
:1057B00021F16E01BCE4CB0ED11CF60111821082E6
:1057C000F12CE12CC65BDF4FD8018D919C91FC013F
:1057D000EE0DFF1D6591749177FF5BC0F80111829A
:1057E000108219821882D8018D919C91892B29F001
:1057F0008881998101969983888388E296E00E9446
:10580000700C8091310690913206A0913306B091D0
:1058100034060196A11DB11D809331069093320686
:10582000A0933306B09334068091350690913606E6
:10583000A0913706B09138060196A11DB11D809345
:10584000350690933606A0933706B09338068091BC
:105850003B06882319F0815080933B0680913C06DB
:1058600090913D06181619060CF0CBCD20915A05E3
:1058700030E0821793070CF49C01821B930B9093EA
:105880003D0680933C06BDCD2FEF3FEF31A320A313
:1058900047CFF7013296E80FF91FA590B490FFEFBC
:1058A000AF1ABF0A28813981D6018D919C912817A2
:1058B000390729F5072E000C880B990B0E94D22E70
:1058C0002B013C0120E030E040E05FE30E94822FAA
:1058D00020E034E244E759E40E94B72DA30192018D
:1058E0000E94282E0E94A12E61507109A092590594
:1058F000B0E4B09390007093990060939800F60123
:1059000080819181A80EB91EB182A082F4E0EF0ED1
:10591000F11C888199818A159B050CF055CF63CFC6
:105920008F929F92AF92BF92CF92DF92EF92FF92AF
:10593000CF93DF93EC01688179818A819B81611526
:1059400071058105910521F464E279ED8BE597E01D
:105950002DE133EF41E050E00E94532D49015A01FF
:105960009B01AC01A7EAB1E40E94722D6B017C019E
:10597000ACEEB4EFA50194010E94802DC60ED71E97
:10598000E81EF91EF7FE06C081E0C81AD108E1083A
:1059900080E8F80AC882D982EA82FB82C701B60190
:1059A0009F77DF91CF91FF90EF90DF90CF90BF90E6
:1059B000AF909F908F9008958F929F92AF92BF92D9
:1059C000CF92DF92EF92FF926091110170911201DC
:1059D0008091130190911401611571058105910564
:1059E00021F464E279ED8BE597E02DE133EF41E0BE
:1059F00050E00E94532D49015A019B01AC01A7EAD6
:105A0000B1E40E94722D6B017C01ACEEB4EFA501F4
:105A100094010E94802DC60ED71EE81EF91EF7FEC7
:105A200006C081E0C81AD108E10880E8F80AC092EF
:105A30001101D0921201E0921301F0921401C701FA
:105A4000B6019F77FF90EF90DF90CF90BF90AF901F
:105A50009F908F900895609311017093120180932D
:105A60001301909314010895FC0105900020E9F7BB
:105A7000809590958E0F9F1F0895F999FECF92BD46
:105A800081BDF89A992780B50895262FF999FECF00
:105A90001FBA92BD81BD20BD0FB6F894FA9AF99A4B
:105AA0000FBE01960895052E97FB1EF400940E94E8
:105AB0006A2D57FD07D00E94852D07FC03D04EF4B8
:105AC0000C946A2D50954095309521953F4F4F4F3E
:105AD0005F4F089590958095709561957F4F8F4F9A
