:100000000C947F090C94A7090C94A7090C94A709D8
:100010000C94A7090C94A7090C94A7090C94A709A0
:100020000C94A7090C94A7090C9466110C94D51193
:100030000C94A7090C94A7090C94A7090C94A70980
:100040000C94A7090C94A7090C94A7090C94A70970
:100050000C94A7090C94A7090C94A7090C941C11E3
:100060000C94A7090C94A7090C94A7090C94A70950
:100070000C94A7090C94A7090C94A7090C94A70940
:100080000C9407140C94A7090C94A7090C94A709C5
:100090000C94A7090C94A7090C94A7090C94A70920
:1000A0000C94A7090C94A7090C94A7090706060845
:1000B000080E0909060706060909060909060706C2
:1000C0000202040408080F070606090907010106D1
:1000D00007060708080701010F070608081F090A95
:1000E0000C0807060708080608080707060F01029C
:1000F00004080906070507020202020302070606B2
:1001000009090909090600000000003E5B4F5B3E3B
:100110003E6B4F6B3E1C3E7C3E1C183C7E3C181CCC
:10012000577D571C1C5E7F5E1C00183C1800FFE7C3
:10013000C3E7FF0018241800FFE7DBE7FF30483A69
:10014000060E2629792926407F050507407F0525CB
:100150003F5A3CE73C5A7F3E1C1C08081C1C3E7F53
:1001600014227F22145F5F005F5F06097F017F001A
:100170006689956A606060606094A2FFA29408043A
:100180007E040810207E201008082A1C08081C2A5B
:1001900008081E101010100C1E0C1E0C30383E38B3
:1001A00030060E3E0E06000000000000005F00005A
:1001B0000007000700147F147F14242A7F2A1223CB
:1001C0001308646236495620500008070300001CDB
:1001D0002241000041221C002A1C7F1C2A08083EE4
:1001E00008080080703000080808080800006060F7
:1001F0000020100804023E5149453E00427F400065
:1002000072494949462141494D331814127F10273C
:10021000454545393C4A494931412111090736498B
:10022000494936464949291E00001400000040345F
:100230000000000814224114141414140041221464
:100240000802015909063E415D594E7C1211127C8B
:100250007F494949363E414141227F4141413E7FEC
:10026000494949417F090909013E414151737F08CC
:1002700008087F00417F41002040413F017F081472
:1002800022417F404040407F021C027F7F040810D3
:100290007F3E4141413E7F090909063E4151215EB1
:1002A0007F09192946264949493203017F01033F45
:1002B0004040403F1F2040201F3F4038403F6314D4
:1002C00008146303047804036159494D43007F41D6
:1002D00041410204081020004141417F0402010213
:1002E0000440404040400003070800205454784038
:1002F0007F284444383844444428384444287F38CC
:100300005454541800087E090218A4A49C787F084D
:1003100004047800447D40002040403D007F1028C8
:10032000440000417F40007C047804787C08040489
:10033000783844444438FC1824241818242418FC21
:100340007C08040408485454542404043F44243CC6
:100350004040207C1C2040201C3C4030403C442835
:100360001028444C9090907C4464544C44000836CF
:10037000410000007700000041360800020102043D
:10038000023C2623263C1EA1A161123A4040207A5D
:1003900038545455592155557941215454784121A7
:1003A0005554784020545579400C1E5272123955DC
:1003B00055555939545454593955545458000045D9
:1003C0007C410002457D420001457C40F029242902
:1003D000F0F0282528F07C545545002054547C54D6
:1003E0007C0A097F49324949493232484848323209
:1003F0004A4848303A4141217A3A42402078009DAB
:10040000A0A07D39444444393D4040403D3C24FF58
:100410002424487E4943662B2FFC2F2BFF0929F605
:1004200020C0887E090320545479410000447D4156
:100430003048484A32384040227A007A0A0A727DAF
:100440000D19317D2629292F2826292929263048CA
:100450004D4020380808080808080808382F10C838
:10046000ACBA2F102834FA00007B000008142A14BC
:100470002222142A14089500220095AA005500AAE9
:10048000AA55AA55AA000000FF00101010FF001482
:100490001414FF001010FF00FF1010F010F01414DF
:1004A00014FC001414F700FF0000FF00FF1414F404
:1004B00004FC141417101F10101F101F1414141F05
:1004C00000101010F0000000001F101010101F107E
:1004D000101010F010000000FF101010101010107D
:1004E0001010FF10000000FF140000FF00FF0000CC
:1004F0001F10170000FC04F414141710171414F440
:1005000004F40000FF00F714141414141414F7007A
:10051000F7141414171410101F101F141414F414CB
:100520001010F010F000001F101F0000001F14003A
:100530000000FC140000F010F01010FF10FF141465
:1005400014FF141010101F00000000F010FFFFFF38
:10055000FFFFF0F0F0F0F0FFFFFF0000000000FFF1
:10056000FF0F0F0F0F0F38444438447C2A2A3E14E3
:100570007E02020606027E027E026355494163380E
:1005800044443C04407E201E2006027E020299A5BF
:10059000E7A5991C2A492A1C4C7201724C304A4D1D
:1005A0004D303048784830BC625A463D3E49494952
:1005B000007E0101017E2A2A2A2A2A44445F4444FB
:1005C00040514A444040444A51400000FF0103E08A
:1005D00080FF000008086B6B083612362436060FC1
:1005E000090F06000018180000001010003040FF2E
:1005F0000101001F01011E00191D1712003C3C3CA7
:100600003C0000000000080B000202020000090488
:100610000000010202000005240010010524010170
:1006200001042402060524060001070581031000C9
:100630004009040100020A00000007050202400010
:1006400000070583024000000403090412010002B0
:10065000EF02014041233680000101020301417293
:100660006475696E6F204C4C430041726475626F13
:100670007900F0F89C8E8783878E9CF8F00000FE4E
:10068000FF0303030303070EFCF80000FEFF030350
:10069000030303070EFCF80000FFFF00000000004A
:1006A0000000FFFF0000FEFF8383838383C7EE7C8F
:1006B000380000F8FC0E07030303070EFCF80000E7
:1006C0003F7FE0C08080C0E07F3FFFFF010101016C
:1006D000010101FFFF0000FFFF0C0C0C0C1C3E771A
:1006E000E3C100007FFFC0C0C0C0C0E0703F1F007A
:1006F000001F3F70E0C0C0C0E0703F1F00007FFFE0
:10070000C1C1C1C1C1E3773E1C00001F3F70E0C002
:10071000C0C0E0703F1F000000000001FFFF0100AB
:100720000000D5F08D14A1C881CFD9F1AF20008091
:1007300040FF01010101010101010101010101016C
:100740000101010101010101010101010101810119
:100750000101010101010101010101010101010189
:1007600001010101010101010101810101010101F9
:100770000101010101010101010101010101010169
:1007800001010101810101010101010101010101D9
:100790000101010101010101010101010101010149
:1007A00081010181414141418101010101010101B9
:1007B000FFFF00000000000000000000000000003B
:1007C0000000000000000000000000000000FF002A
:1007D0000000000000000000000000000000000019
:1007E00000000000000000000000FF00000000000A
:1007F00000000000000000000000C04040C040C0F9
:1008000000000000FF0000000000000000000000E9
:10081000000000001C24241C241C00000000FF0019
:10082000FF000093F2929090E300000000000000AF
:10083000FFFF0000000000000000000000000000BA
:100840000000000029292F29290920000000FF00AD
:100850000000000000000000000000000000384020
:1008600040300870000000000000FF0000000000A1
:1008700000000000000000000000E192E28162013F
:1008800000000000FF000000000000000000000069
:1008900000000000C121C101C70000000000FF00EE
:1008A000FF000044444454546C0000000000000069
:1008B000FFFF00000000000000000000000000003A
:1008C000000000008E50504C821C00000000FF0011
:1008D00000000000000000000000000000001C827A
:1008E00082821C00000000000000FF0000000000E9
:1008F00000000000000000000000242424241C004C
:1009000000000000FF0000000000000000000000E8
:100910000000000049494949380000000000FF007C
:10092000FF00001E02020E021E0000000000000078
:10093000FFFF0000000000000000000000000000B9
:100940000000000033484848330000000000FF006A
:100950000000000000000000000000000000232450
:100960002424E300000000000000FF00000000005D
:10097000000000000000000000004E494E48C60084
:1009800000000000FF000000000000000000000068
:10099000000000009C8282829C8080000000FF009A
:1009A000FF00001824242424180000000000000088
:1009B000FFFF000000000000000000000000000039
:1009C00000000000E111F191670000000000FF004D
:1009D00000000000000000000000000000003804DB
:1009E0003C241800000000000000FF000000000090
:1009F00000000000000000000000E292E2826100BE
:100A000000000000FF0000000000000000000000E7
:100A100000000000C424E424C30000000000FF0024
:100A2000FF0000C64649C949C90000000000000097
:100A3000FFFF0000000000000000000000000000B8
:100A40000000000000000000000000000000FF00A7
:100A50000000000000000000000000000000000096
:100A600000000000000000000000FF000000000087
:100A7000000000000000000000001C2018043800E6
:100A800000000000FF000000000000000000000067
:100A90000000000039403109700000000000FF0034
:100AA000FF00009350709190730000000000000060
:100AB000FFFF808080808080808080808080808038
:100AC0008080808080808080808080808080838023
:100AD0008080808080808080808080808080808016
:100AE0008080808080808080808083808080808003
:100AF00080808080808080808080808080808080F6
:100B000080808080838080808080808080808080E2
:100B100080808080808080808080808080808180D4
:100B200083808084808484848480808080808080AE
:100B3000FF10103F3FC1FF81FF06FE08F810F020B4
:100B4000E020E040C040C040C040C080808080C005
:100B5000C0C0C0000000000101030306070407082D
:100B60000F080F080F080F080F0407020301010008
:100B70000000001F1F213F213F427E427E82FE84F3
:100B8000FC84FC84FC84FC88F84878487810303079
:100B90003010100000000000000000000000000005
:100BA0000000000000000000000000000000000045
:100BB000000000F8F88CFC427E427E427E427E417C
:100BC0007F213F213F213F223E121E121E141C187E
:100BD00018101000000000000000000000000000DD
:100BE0000000000000000000000000000000000005
:100BF000000000E0E010F008F804FC02FE82FE4174
:100C00007F213F213F213F213F121E141C141C183D
:100C10001830300F0F080F04070203010100000015
:100C200000000000000000000000000000000000C4
:100C30000000000000E0E018F804FC02FE81FF4123
:100C40007F213F213F213F223E121E141C181830E5
:100C500030303003030C0F080F0C0F0303000000AB
:100C60000000000000000000000000000000000084
:100C70000000000000787886FE82FE417F213F213F
:100C80003F213F111F111F121E121E0C0C0C0C0CC9
:100C90000C08080000000000000000000000000038
:100CA0000000000000000000000000000000000044
:100CB00000000000000606191F213F213F417F422E
:100CC0007E427E427E223E243C141C141C0C0C0CE2
:100CD0000C04040000000000000000000000000000
:100CE0000000000000000000000000000000000004
:100CF00000000000007E7E81FF02FE0CFC10F02050
:100D0000E040C040C040C08080808080808080C043
:100D1000C0C0C0000000000101020304070407086E
:100D20000F080F080F080F080F0407020301010046
:100D30000000000803030707070505070708030667
:100D4000070707050707060B026400B80164005D8A
:100D500001640026016400F7007800C4007800A553
:100D6000009600008010033200DC033200270546A5
:100D70000000801010C0C020E016F619F911F11122
:100D8000F110F010F0C8F828F88CFC42FE12FE9C1E
:100D9000FCF0F0C0C003037C7F80FF80FFFCFF7C81
:100DA0007FC0FFFCFF090F0A0F181F213F243F1CC3
:100DB0001F07070101C0C020E016F619F911F11153
:100DC000F110F010F0C8F828F88CFC42FE12FE9CDE
:100DD000FCF0F0C0C07F7F80FF80FFFCFF04077C39
:100DE0007FC0FFFCFF090F0A0F181F213F243F1C83
:100DF0001F07070101C0C020E016F619F911F11113
:100E0000F110F010F0C8F828F88CFC42FE12FE9C9D
:100E1000FCF0F0C0C07F7F80FF80FFFCFF04070470
:100E2000077C7FC0FFF9FF0A0F181F213F243F1CDA
:100E30001F07070101C0C020E016F619F911F111D2
:100E4000F110F010F0C8F828F88CFC42FE12FE9C5D
:100E5000FCF0F0C0C07F7F80FF80FFFCFF04070430
:100E6000070407787FC9FFFAFF181F213F243F1CA2
:100E70001F0707010106013C0093023C00100350CC
:100E80000093023C0006013C0000801010FEFE01B1
:100E9000FF01FF7FFF40C070F008F864FC929E895C
:100EA0008F46C640C040C040C08080000007070891
:100EB0000F101F203F203F203F101F101F203F40DA
:100EC0007F82FF91FF91FF427F203F1F1F1010E0A4
:100ED000E010F008F804FC04FC04FC08F808F8042E
:100EE000FC02FE41FF89FF89FF42FE04FCF8F87F07
:100EF0007F80FF80FFFEFF02030E0F101F263F4979
:100F00007991F16263020302030203010100000709
:100F1000100101C3FFFFFF000000007FFFFF0C076F
:100F200010000000FEFFFF308080C3FFFFFF0007BE
:100F300018010103FFFFFF00000000FFFFFF030097
:100F40000018FFFFFF000718000018FFFFFF000058
:100F50000000FFFFFFC08080C0FFFFFF00072001EF
:100F60000103FFFFFF00000000F3FFFF000000008F
:100F7000FFFFFF0300000CFFFFFF00072000003011
:100F8000FFFFFF00000000FFFFFFC0000000CFFFD9
:100F9000FF008080C0FFFFFF001D27001C828282AF
:100FA000021C000000000047484846C14E400000B7
:100FB000000000000000000000C3242424C300003F
:100FC00000000000E212F29261000000000000C088
:100FD0004040C040C000310909090909090000006A
:100FE00000188484840404040000006081E292916B
:100FF0009201004949494939000100000000C72415
:101000002424C70404000000000000000000000CBD
:10101000101C12121C000000000000484949493809
:101020000000000000000000000000001B3200C0B3
:10103000202020E020200000000000000000000030
:1010400000000041414749C9070018242424180022
:10105000000000000E9292928E02020000007008C2
:10106000784831000020504040404000400000C718
:10107000242424E420200000008E100C821C000098
:101080009C929292920000000000188484841C04B8
:10109000040000000304030007004048CA4A4AC78E
:1010A000000000000023242424E300000000003896
:1010B0002438201800001001121211101000000036
:1010C0000101010100000000008009894949470031
:1010D0000000000000000000000000000000000010
:1010E00000000000010203020202000B3EFCFCFCB7
:1010F0009898F8F83830F0F0F1F37777E703C3C742
:101100000707077667E7E7E7E7E767000000E7E636
:10111000EEEECE0F8F8F000000EDCFCECECFCECF34
:10112000CF000000CECCDDDD9D1F1F1E000000DBC8
:10113000DF5D1D9F9C9F1F000000070F0E0F0F0318
:101140000F0F0000000B3E00000000000000000038
:10115000000000000000000000000000000000008F
:1011600000000000000000007CFE8F87CFFEFCCE58
:10117000CEFEF81E3F393B02060F0F0101000000B2
:10118000000000000000000000000000000000005F
:101190000000000000000000000000000000000B44
:1011A0003E7FFFFFE6E6FEFECECCFCFC1C38393964
:1011B00039F8F8D90101016F7F77777E707C7D0067
:1011C00000007766EEEEEEFEFEF60000003C7E5E6E
:1011D0000E0E5CFCF800000033777777666EFE7EBB
:1011E0000E0C1C3E3F077F7FEEFE780000001F3F85
:1011F000393C3E0E3E3C0000001010C0C03EFE01D7
:10120000FF01FF3FFF3EFE03FF3FFF90F050F0184D
:10121000F884FC24FC38F8E0E080800303040768CD
:101220006F989F888F888F080F080F131F141F3126
:101230003F427F487F393F0F0F0303FEFE01FF014E
:10124000FF3FFF20E03EFE03FF3FFF90F050F0180D
:10125000F884FC24FC38F8E0E0808003030407688D
:101260006F989F888F888F080F080F131F141F31E6
:101270003F427F487F393F0F0F0303FEFE01FF010E
:10128000FF3FFF20E020E03EFE03FF9FFF50F018ED
:10129000F884FC24FC38F8E0E0808003030407684D
:1012A0006F989F888F888F080F080F131F141F31A6
:1012B0003F427F487F393F0F0F0303FEFE01FF01CE
:1012C000FF3FFF20E020E020E01EFE93FF5FFF18BD
:1012D000F884FC24FC38F8E0E0808003030407680D
:1012E0006F989F888F888F080F080F131F141F3166
:1012F0003F427F487F393F0F0F0303009B141124A7
:101300001FBECFEFDAE0DEBFCDBF11E0A0E0B1E05D
:10131000E4E8F7E402C005900D92AC37B107D9F7C5
:1013200026E0ACE7B1E001C01D92AD3EB207E1F7A7
:1013300019E0CFE7D9E004C02197FE010E94C8213F
:10134000CE37D107C9F70E9418150C94C0230C940E
:101350000000809196010895E1EDF1E0A0E0B8E091
:1013600000800EBC8111012C1197A0FDFDCF0192D0
:10137000B9F70DB40895FC018091D001882311F1D3
:101380003FB7F89482E08093E9002091F200822F29
:1013900090E01816190614F481E090E0882339F0E3
:1013A000289844E64093CF014091F10040832223E6
:1013B00039F02091F200211103C02BE62093E800C0
:1013C0003FBF08958FEF9FEF08952FB7F89483E004
:1013D0008093E9009091E800892F807295FF04C006
:1013E0009091F20080E4891B2FBF08958091C7017E
:1013F00081110DC082E08093C30184E08093C40119
:101400001092C6011092C50181E08093C70183EC60
:1014100091E008953FB7F8948091BF019091C00189
:10142000A091C101B091C20126B5A89B05C02F3F74
:1014300019F00196A11DB11D3FBFBA2FA92F982FFA
:101440008827BC01CD01620F711D811D911D42E0F5
:10145000660F771F881F991F4A95D1F708958F92BD
:101460009F92AF92BF92CF92DF92EF92FF926B0169
:101470007C010E940A0A4B015C01C114D104E10401
:10148000F104B9F00E940A0A681979098A099B09CE
:10149000683E73408105910580F321E0C21AD108AE
:1014A000E108F10888EE880E83E0981EA11CB11CAB
:1014B000E4CFFF90EF90DF90CF90BF90AF909F90E0
:1014C0008F90089540918C0150918D0120918A0157
:1014D00030918B0142175307B4F49091E800957056
:1014E000E1F39091E80092FD19C08093F1008091A2
:1014F0008C0190918D0101968F739927892B19F496
:101500008EEF8093E80080918C0190918D0101967F
:1015100090938D0180938C0181E0089580E008957F
:10152000DF92EF92FF920F931F93CF93DF93D82E0A
:101530008A01EB017B01E40EF51ECE15DF0559F0A3
:10154000D7FE12C0FE0184910E94620A2196811189
:10155000F4CF0FEF1FEFC801DF91CF911F910F91D3
:10156000FF90EF90DF9008958881EECF0F931F9347
:10157000CF93DF931F92CDB7DEB782E0898342E439
:1015800050E066E076E080E80E94900A0E94F6094A
:10159000DC0112960D911C910115110589F0D801FD
:1015A000ED91FC910280F381E02DBE016F5F7F4FD2
:1015B000C801099597FD04C0F80100851185ECCF9D
:1015C00089810F90DF91CF911F910F910895615004
:1015D00030F02091F100FC0120830196F8CF28988B
:1015E00084E68093CF010895AF92BF92CF92DF92AD
:1015F000EF92FF920F931F93CF93DF936C017B01C8
:101600008B01040F151FEB015E01AE18BF08C01758
:10161000D10759F06991D601ED91FC910190F081CB
:10162000E02DC6010995892B79F7C501DF91CF918E
:101630001F910F91FF90EF90DF90CF90BF90AF90F0
:1016400008958F929F92AF92BF92CF92DF92EF92C6
:10165000FF920F931F93CF93DF936C017B018A015D
:1016600080910B01882309F45CC08091D00188230C
:1016700009F457C08091900180FF05C08091E0007F
:1016800082608093E000E801B12C8AEFA82E93E0FD
:10169000892E2AE3922E209711F4BB20D9F10E94C3
:1016A000E50981110AC0AA94AA20D9F161E070E08D
:1016B00080E090E00E942F0AEECF8C171D0611F0FB
:1016C0000CF08C2F9FB7F8948092E9002091E800ED
:1016D00025FD02C09FBFDFCF282F30E0C21BD30BF8
:1016E000F701815020F041914093F100FACFE20ED2
:1016F000F31EBB2021F09092E800B12CEBCF80913B
:10170000E80085FDE7CF9092E800BB24B3942097D2
:1017100009F3F3CF5D9884E680938F0110161106CC
:101720003CF081E090E0F6019383828310E000E0DA
:10173000C801DF91CF911F910F91FF90EF90DF9043
:10174000CF90BF90AF909F908F900895CF93DF93ED
:10175000FC01448155816081718181ED95E00E9499
:10176000210BEC0142E050E060E671E081ED95E094
:101770000E94210B8C0F9D1FDF91CF910895CF9375
:10178000DF931F92CDB7DEB76983DC01ED91FC9149
:101790000280F381E02D41E050E0BE016F5F7F4F9A
:1017A00009950F90DF91CF91089583E08093E90030
:1017B0008091F200882319F08AE38093E80008956D
:1017C0000E94E50990E00895CF93DF931F92CDB773
:1017D000DEB7FC018485958597FD08C02FEF3FEFAC
:1017E000358724870F90DF91CF910895CE01019620
:1017F0000E94BB09019719F4898190E0F3CF8FEF24
:101800009FEFF0CF0F931F93CF93DF931F92CDB72E
:10181000DEB78C01FC018485958597FF0BC0CE0156
:1018200001960E94BB09019771F4898190E0F8014B
:1018300095878487F801848595850F90DF91CF91F6
:101840001F910F9108958FEF9FEFF1CFFC018485D9
:10185000958597FD0BC09FB7F89482E08093E900CF
:101860008091F2009FBF90E0019608959FB7F89491
:1018700082E08093E9008091F2009FBF90E008959C
:1018800020918301E0918101F0918201CF010296C4
:101890009093820180938101222319F08591949184
:1018A0000895808191810895CF92DF92EF92FF9207
:1018B000CF93DF930E94400C811520E8920791F4AA
:1018C000809171008D7F80937100109291004698F5
:1018D000479810928001DF91CF91FF90EF90DF90B9
:1018E000CF90089521E020938001813020E8920775
:1018F00051F480917E0190917F01909382018093B9
:1019000081010E94400C97FD05C020917D0122239A
:1019100009F454C020917C01211150C021E0209392
:101920008401EC01DF77209709F04BC081E08093C0
:10193000850146983FE9C32E3FE0D32EE12CF12CE0
:10194000CAEFD0E0E0912F06F091300609958111A1
:1019500003C081E08093850180918401882329F070
:1019600080918501882309F43FC047980E94400C6C
:101970000097F1F19C01DE010E94D620DC01CB0131
:1019800029E0B595A795979587952A95D1F7109257
:1019900090002AE020939100D0929900C092980084
:1019A0008093860190938701A0938801B093890169
:1019B000809171008260809371008DCF10928401BC
:1019C000B0CF9E0150E040E060E472E48FE090E030
:1019D0000E944B2069017A0181E0C81AD108E10810
:1019E000F10810928501AECF4699BFCF479ABECF7E
:1019F0008FEF9FEFDC01CBCF9C01E1E7F0E090811E
:101A00009D7F908381E080938301309382012093B6
:101A1000810130937F0120937E010C94540C4F92EE
:101A20005F926F927F928F929F92AF92BF92CF926E
:101A3000DF92EF92FF920F931F93CF93DF934C01AE
:101A40005901FC2DC02FD0E0CE01880D991D18162C
:101A500019060CF06CC020E8821691040CF067C0E7
:101A60009B012E0D311D121613060CF060C0603460
:101A700071050CF05CC04115510509F458C0E62F02
:101A8000E770FE2EDB0177FD179633E0B595A7953D
:101A90003A95E1F73A2F77FF04C0FF2011F03FEFAE
:101AA0003A0F662777276819790997FC02C070E01A
:101AB00060E0803891050CF44BC090E89819961BB3
:101AC000A32F032E000CBB0B1A2F10953F3F0CF0D9
:101AD00010E021E08E2D877009F420E0E694E69472
:101AE000E694E20EAE0DB11D19971CF028E0E22E2F
:101AF000E31AE11A310F20E83203D0011124A80DB6
:101B0000B91DA60FB71F019F600D711D1124460F4F
:101B1000571F0F2D0F2C000C110BF33009F41CC1B3
:101B2000C8F4F13009F4D0C0F23009F47CC0DF9180
:101B3000CF911F910F91FF90EF90DF90CF90BF90CA
:101B4000AF909F908F907F906F905F904F9008958F
:101B5000902FB5CFFA3FB1F1232F2E0DFB3F39F770
:101B6000321729F3BD016F527E4FD12CC12CC916FB
:101B700008F0A4C0FA01EC0DFD1DE491F0E04F0166
:101B8000002E02C0880C991C0A94E2F737FD06C0AB
:101B9000FB018081E82CE0948E218083FF2061F09E
:101BA000373054F45B01F0E8AF0EB11CE92CE0943F
:101BB000F50180818E218083FFEFCF1ADF0A6F5FEE
:101BC0007F4FD5CF232F2E0D321709F4B0CFBD0193
:101BD0006F527E4FD12CC12CC91608F069C0FA0192
:101BE000EC0DFD1DE491F0E04F01002E02C0880CC9
:101BF000991C0A94E2F737FD04C0FB018081882913
:101C00008083FF2051F0373044F45B01F0E8AF0EE1
:101C1000B11CF501808189298083FFEFCF1ADF0A8B
:101C20006F5F7F4FD9CF6FEF70E00F2C02C0660F50
:101C3000771F0A94E2F760957095772E232F2E0D6B
:101C4000321709F474CFFD01EF52FE4F6F01B12C32
:101C5000A12CA91638F5FA01EA0DFB1DE491F0E07C
:101C60002F01002E02C0440C551C0A94E2F737FDE8
:101C700005C0F6018081862384298083FF2059F0E6
:101C800037304CF44601F0E88F0E911CF40180814E
:101C9000872185298083FFEFAF1ABF0A8FEFC81A0B
:101CA000D80AD7CF3F5F4C0F5D1FA058BF4FC8CF9A
:101CB0003F5F4C0F5D1FA058BF4F86CF3F5F4C0F5B
:101CC0005D1FA058BF4F4CCF6A0D7B1D232F2E0DDB
:101CD000321709F42CCFFD01EF52FE4F6F01B12CEA
:101CE000A12CA91688F5FB01EA0DFB1D8490912C0F
:101CF000002E02C0880C991C0A94E2F780949094FC
:101D0000FA01EA0DFB1D6490712C002E02C0660CD6
:101D1000771C0A94E2F737FD05C0F601808188211F
:101D200086298083FF2049F037303CF4F601E058E3
:101D3000FF4F8081892187298083FFEFAF1ABF0A77
:101D40008FEFC81AD80ACDCF3F5F4C0F5D1F6C0FC5
:101D50007D1FA058BF4FBCCFC92ED12CFA01E60F72
:101D6000F71FAF52BE4F00E810E00C191D09CC1947
:101D7000DD09BE01660F771F41E050E06A010F2CBC
:101D800001C0CC0C0A94EAF7592F2E2D792ECF934F
:101D9000DF93ED01EF96EF9622968590A590FF20B8
:101DA00059F08C9C4001AC9C500137302CF4E880F9
:101DB000B094EB20E928E99233233AF0EC90A09418
:101DC000EA20E828ED920C94E60E11965A9529F730
:101DD0002A9551F0572D33951124E60FF11DA00FD0
:101DE000B11DC00FD11DD9CFDF91CF9111249FCE4E
:101DF000CF92EF920F934115510561F0FA010491D2
:101E00003196E4904E5F5F4F22E0C22E30E020E03A
:101E10000E940F0D0F91EF90CF9008952D9A089585
:101E2000BC0190E080E00C942F0A8FB18095807FF8
:101E3000669B88601C9B846008955C988EBD000042
:101E40000DB407FEFDCF5C9A08953E9A3F9A81E05B
:101E500080939601089580E0E1EDF1E081118FEF2C
:101E6000002481938193819381930394D1F71092FD
:101E7000930110929201109295011092940108958D
:101E8000AF92BF92CF92DF92EF92FF920F931F9388
:101E9000CF93DF936D3079F0C0919201D09193018F
:101EA0006A30B1F410929501109294012896D09363
:101EB0009301C093920181E090E0DF91CF911F9157
:101EC0000F91FF90EF90DF90CF90BF90AF9008956B
:101ED000409194015091950185E0689FF001112493
:101EE000EA5FFE4F9A01C12C80E1E82EA5E070E088
:101EF000CA1621F0CF0101967491FC0110E000E0B8
:101F0000B72FB170DB2E20383105D0F4CE01800F11
:101F1000911F80349105A0F461E081FD64E080FDB3
:101F2000660F82FD6295887FE89ED0011124A20F82
:101F3000F62EAF52BE4F8C91DD20A9F0862B8C93EC
:101F400076950F5F1F4F08301105D1F6C3942F5FB0
:101F50003F4F86E0C812CACF4A5F5F4F509395014A
:101F600040939401A8CFF0948F21E9CF9091A801DC
:101F7000982329F49091A901982381E009F480E045
:101F8000089580E00C94AC0901978930910540F4E4
:101F9000880F991FFC01E75DFE4F808191810895B4
:101FA0008DEF90E0089580E20E94B60F811117C076
:101FB00080E40E94B60F811112C080E80E94B60F23
:101FC00081110DC080E10E94B60F811108C088E028
:101FD0000E94B60F811103C084E00C94B60F0895DF
:101FE000089590E080E00895CF93DF930E94F11E62
:101FF000C2E1D1E02CE330E040E050E00E944B2011
:1020000060567F4F798368830E94F11E24E230E09E
:1020100040E050E00E944B206A5F6A838AE097EDBF
:10202000A3E2BDE38D839E83AF83B88719861A86AA
:102030001B861C86DF91CF910895CF93DF93EC012F
:1020400088819981009711F00E946A221982188272
:102050001D821C821B821A82DF91CF910895FC01A0
:1020600080819181009711F00C946A2208950C945C
:1020700035200F931F93CF93DF93EC0188819981D3
:10208000009759F02A813B812617370730F081E00D
:10209000DF91CF911F910F9108958B016F5F7F4F5B
:1020A0000E94F322009759F0998388831B830A8347
:1020B0002C813D81232B59F7FC011082E8CF80E071
:1020C000E7CFEF92FF920F931F93CF93DF936115AA
:1020D000710541F480E0DF91CF911F910F91FF9046
:1020E000EF90089541155105B1F07B01EC010C8191
:1020F0001D81040F151FB8010E943910882351F368
:10210000288139818C819D81B701820F931F0E94A4
:10211000B9231D830C8381E0DECFCF93DF93EC01E5
:10212000FB0101900020E9F73197AF01461B570BE7
:102130000E946110811103C0CE010E941D10CE01CA
:10214000DF91CF910895CF93DF93EC01FB014481A0
:102150005581608171810E946110811103C0CE019F
:102160000E941D10CE01DF91CF910895EF92FF9252
:102170000F931F93CF93DF93EC017B018A01BA0188
:102180000E94391081110BC0CE010E941D10CE019A
:10219000DF91CF911F910F91FF90EF9008951D83D4
:1021A0000C83B701888199810E94B923F0CFEF9207
:1021B000FF920F931F93CF93DF93CDB7DEB7629754
:1021C0000FB6F894DEBF0FBECDBF8C01CB01F80176
:1021D0001182108213821282158214824AE09E01BB
:1021E0002F5F3F4F7901B9010E94491FF70101900C
:1021F0000020E9F73197AF014E195F09B701C80117
:102200000E94B61062960FB6F894DEBF0FBECDBF27
:10221000DF91CF911F910F91FF90EF900895FC01F6
:1022200011821082138212821582148243E050E0E0
:1022300063E671E00C94B6101F920F920FB60F92E6
:1022400011242F933F938F939F93AF93BF938091CC
:10225000BB019091BC01A091BD01B091BE01309134
:10226000BA0123E0230F2D3758F50196A11DB11DAA
:102270002093BA018093BB019093BC01A093BD0150
:10228000B093BE018091BF019091C001A091C101A6
:10229000B091C2010196A11DB11D8093BF01909321
:1022A000C001A093C101B093C201BF91AF919F91B2
:1022B0008F913F912F910F900FBE0F901F90189507
:1022C00026E8230F0296A11DB11DD2CF1F920F92B7
:1022D0000FB60F9211248F939F938091E1009091FC
:1022E000E100937F9093E10083FF0FC01092E9001B
:1022F00091E09093EB001092EC0092E39093ED004C
:102300001092D00198E09093F00082FF22C093E0F9
:102310009093E9009091F200992319F09AE3909339
:10232000E80090918F01992341F090918F01915095
:1023300090938F01911101C05D9A9091CF019923E3
:1023400041F09091CF0191509093CF01911101C034
:10235000289A84FF18C08091E2008E7E816080936D
:10236000E2008091E1008F7E8093E10080919001F6
:102370008E7E8061809390019F918F910F900FBE10
:102380000F901F90189580FFF7CF8091E2008E7E0E
:1023900080618093E2008091E1008E7E8093E10075
:1023A000809190018E7E8160E5CF1F920F920FB6D3
:1023B0000F921124CF92DF92EF92FF920F931F930F
:1023C0002F933F934F935F936F937F938F939F933D
:1023D000AF93BF93EF93FF93CF93DF93CDB7DEB768
:1023E0006C97DEBFCDBF1092E9008091E80083FFBB
:1023F00025C068E0CE0145960E94E70A82EF8093EF
:10240000E8008D8987FF39C09091E80090FFFCCFEC
:10241000982F907609F034C19E894F89588D2F8965
:10242000F88C911131C0803861F5809191018093D1
:10243000F1001092F1008EEF8093E8006C960FB6D9
:10244000F894DEBF0FBECDBFDF91CF91FF91EF912A
:10245000BF91AF919F918F917F916F915F914F91BC
:102460003F912F911F910F91FF90EF90DF90CF90B0
:102470000F900FBE0F901F9018959EEF9093E8005D
:10248000C7CF1092F100D5CF913059F48111D3CF3D
:102490004130510581F6809191018D7F80939101AA
:1024A000CACF933049F48111C6CF4130510519F696
:1024B000809191018260F2CF953041F48091E800E3
:1024C00080FFFCCF20682093E300B5CF963009F061
:1024D000A9C00B8D1C8D22E01092E90010928D0195
:1024E00010928C01F2122EC010928B0110928A0170
:1024F0000E94B60A1F8299E09983FA8291E09E8336
:1025000090EA98879AEF998720918C0130918D01FC
:10251000275F3F4F3C832B838D831092E9001092FD
:102520008D0110928C0110938B0100938A0149E078
:1025300050E0BE016F5F7F4F80E00E94900A0E94D2
:10254000B60A79CF10938B0100938A010E94F60995
:10255000DC0112960D911C910115110509F451C170
:10256000D801ED91FC910480F581E02DBE016B5EF8
:102570007F4FC8010995009709F03EC1F801008519
:102580001185EACFF3E0FF120EC08F89882309F48A
:1025900040C0823061F440E867E08AE696E00E943D
:1025A0006814811148CF81E28093EB0047CF8130DE
:1025B00029F440E86BE08EE596E0F1CF833099F79F
:1025C0000E94F609DC011296ED90FC908E010F5FDF
:1025D0001F4F6801E114F10479F0D701ED91FC91EE
:1025E0000680F781E02DB801C7010995080F111D7C
:1025F000F701E084F184EECFD8011C92F60101903E
:102600000020E9F73197BF016C197D0940E0C60150
:10261000C6CF68E476E0FB01449150E080E80E9478
:10262000900A09CF973009F4BECF983021F481E0A9
:102630008093F10000CF993009F0FDCE837009F04E
:10264000B2CFECE3F1E081E031E096E32191222387
:1026500071F08093E9003093EB00DF0111972C912A
:102660002093EC009093ED008F5F873079F78EE731
:102670008093EA001092EA008F898093D001DBCE2C
:102680008B8D9C8D1092E90010928D0110928C011F
:1026900090938B0180938A01898D811192C08E89DC
:1026A0009D89913A49F4813209F07DCF47E050E0AD
:1026B00064E071E080E0B3CF913209F074CF8332EF
:1026C00069F48F89988DB0E0A0E080930001909329
:1026D0000101A0930201B0930301ADCE803269F4F1
:1026E0008091E80082FFFCCF67E084E091E00E94E7
:1026F000E70A8BEF8093E8009ECE823209F09BCEF2
:102700008F8980930B01EEEFFFE7859194918B3FCA
:102710009C4D51F1E0E0F8E08091040190910501B9
:10272000A0910601B0910701803B9440A105B1053D
:10273000F1F480910B0180FD1AC0EE3F8AE0F807AA
:1027400089F587E797E79183808380916000809384
:102750008E0188E19BE00FB6F894A8958093600005
:102760000FBE9093600067CEEEEFFAE0D5CF808188
:1027700091818737974709F05ECEA89580916000D8
:1027800088618093600080918E0180936000EE3FAD
:102790002AE0F20789F08091FE0A9091FF0A918366
:1027A000808349CE808191818737980751F2909339
:1027B000FF0A8093FE0AC5CF1092FF0A1092FE0A0C
:1027C0003ACE0E94F609DC0112960D911C9101157A
:1027D000110509F4E8CED801ED91FC910190F0814A
:1027E000E02DBE016B5E7F4FC8010995811123CE9C
:1027F000F80100851185EBCF181619060CF41BCED5
:10280000D2CEF1E0FF12BECE6CE476E004CF1F9290
:102810000F920FB60F9211242F933F934F935F9314
:102820006F937F938F939F93AF93BF93EF93FF9398
:102830008091860190918701A0918801B0918901D2
:10284000892B8A2B8B2B09F440C080918501811143
:102850000BC088B190E4892788B9809184018823CE
:1028600019F088B1805888B98091860190918701CC
:10287000A0918801B0918901181619061A061B0645
:102880009CF48091860190918701A0918801B0917C
:1028900089010197A109B10980938601909387016D
:1028A000A0938801B0938901FF91EF91BF91AF91FF
:1028B0009F918F917F916F915F914F913F912F9158
:1028C0000F900FBE0F901F9018950E94540CECCFE4
:1028D000EF92FF920F931F93CF93DF93F82E192F50
:1028E000E62E042F81E0860F880F0E94620A83E0A3
:1028F0000E94620ACF2DD12FEC0EFD2EF11CCE15B9
:10290000DF05B9F007FF13C0FE0184910E94620A3F
:10291000182F80E00E94620A812321968111EFCF57
:10292000DF91CF911F910F91FF90EF9008958881D3
:10293000EDCF81E0F5CF1092D4051092D30588EE4B
:1029400093E0A0E0B0E08093D5059093D605A093E6
:10295000D705B093D80586E491E09093D205809393
:10296000D1058FEF9FEF9093DE058093DD051092E8
:10297000E8061092E70688E591E09093E6068093DA
:10298000E50689EA99E09093300680932F0680E06F
:1029900090E890932E0680932D0646983E9A47988D
:1029A0003F9A85EE96E09093D2068093D10684EE0E
:1029B00096E09093D4068093D30685E090E09093C0
:1029C000D6068093D5061092D8061092D70680E0DE
:1029D00090E0A0E0BEE38093D9069093DA06A0933E
:1029E000DB06B093DC061092DD061092DE06109234
:1029F000DF0689EF91E19093E1068093E006109263
:102A0000E2061092E306E1E3F6E04CE850E023E052
:102A100030E087E090E051834083338322839783C3
:102A200086831386709666E0E13DF607A1F7089568
:102A3000CF93DF93CDB7DEB7E3970FB6F894DEBF41
:102A40000FBECDBF789484B5826084BD84B58160AB
:102A500084BD85B5826085BD85B5816085BD809169
:102A60006E00816080936E001092810080918100E1
:102A700082608093810080918100816080938100D9
:102A800080918000816080938000809191008260BD
:102A9000809391008091910081608093910080915A
:102AA00090008160809390008091C1008460809349
:102AB000C1008091C10082608093C1008091C100FB
:102AC00081608093C1008091C30081608093C300C6
:102AD0008091C00082608093C0008091C2008160BC
:102AE0008093C20080917A00846080937A00809104
:102AF0007A00826080937A0080917A00816080936E
:102B00007A0080917A00806880937A001092D001D8
:102B100010929101109290018091D7008160809372
:102B2000D70080EA8093D80089B5806189BD89B5D6
:102B3000826089BD09B400FEFDCF61E070E080E0F5
:102B400090E00E942F0A8091D8008F7C8061809352
:102B5000D8008091E000807F8093E0008091E100C8
:102B60008E7E8093E1008DE08093E200559A209A5A
:102B700081EC80937C0085B1806F85B984B1877EBC
:102B800084B984B1876E84B95E9A5F988AB1806D8A
:102B90008AB9769A6E9881B3806F81BB899880B329
:102BA0008D7080BB80E58CBD81E08DBD85E090E0BF
:102BB0000E94100F5F9A85E090E00E94100F5E98CF
:102BC0005C98E2E2F7E084918EBD00000DB407FE50
:102BD000FDCF319607E0EF32F007A9F75C9A81E864
:102BE00080936400809165008160809365000E94FD
:102BF000C10F0E94150F87FF10C085EA0E941D0FAC
:102C00002E982F982D9880916400806280936400A4
:102C100081E083BF889513BEFCCF0E94150F82FF11
:102C200048C02D980E94150F84788438E1F40E94E2
:102C30000E0F88EC90E00E94100F2F9882E090E039
:102C40000E9435208F3F29F06FEF82E090E00E94D4
:102C50003D2084EF91E00E94100F2F9A0E94150FE3
:102C600084788438D9F30E94150F84718431E1F49B
:102C70000E940E0F88EC90E00E94100F2E9882E0C8
:102C800090E00E943520882329F060E082E090E007
:102C90000E943D2084EF91E00E94100F2E9A0E9426
:102CA000150F84718431D9F388EC90E00E94100FE5
:102CB000B4CF0E940E0F82E090E00E94371088236C
:102CC00009F498C00E94250F81E090E00E9437101F
:102CD00081FF12C0182F1470312E82FD2E9801EF43
:102CE0001FEFE8E0AE2EB12C0E94150F86FF87C0C3
:102CF0002E9A2F9A0E940E0F82E390E00E94100FEE
:102D00000E94150F8111F8CF8FEF9FEF9093DE0592
:102D10008093DD050E942B0F1092B9011092B8012B
:102D20001092B0011092B1011092B2011092B30151
:102D30001092B4011092B5011092B6011092B70131
:102D40001092AD011092AC011092AF011092AE0141
:102D5000809164008E7F8093640080917A0080640B
:102D600080937A0080917A0086FDFCCF00917800F4
:102D7000109179000E940A0AAB01BC01C801B0E0C1
:102D8000A0E0DC01992788278C019D01040F151F05
:102D9000261F371FC901B8012091640021602093CC
:102DA0006400611571058105910511F00E94401FB5
:102DB00080E180930C010E94250F9E012F5F3F4F01
:102DC00039018FB7F8944091BB015091BC016091DB
:102DD000BD017091BE018FBF80919901882309F4D4
:102DE000D1C01092990180E090E0892B51F30E94AC
:102DF0000000E3CF109296013E983F9865CF3320B4
:102E000029F00430110511F42E9A2F9881E00E94C8
:102E1000AC09980117FF04C022273327201B310B70
:102E200027703327C80117FD079673E0959587959E
:102E30007A95E1F717FF05C00197A501421B530BD7
:102E40009A01AC015695542F4427579547954F52F8
:102E50005E4FB0E0A0E02501421A530A8E3F6FEFAB
:102E6000960709F43FC07A0170E060E0FD01EE587A
:102E7000F94F4F013A01F0E86F0E711C8F3F980730
:102E800079F0F401E60FF71FE491F0E06F01022EF4
:102E900001C0CC0C0A94EAF7F701D488CD28C48A83
:102EA00021153105B9F0F401E60FF71F24906301F5
:102EB000C60ED71EE22DF0E0042C02C0F595E79572
:102EC0000A94E2F7FF8BEE8BF6012488FE892F2A05
:102ED000F601248A6F5F7F4FFFEFEF1AFF0A683514
:102EE000710561F60196A85ABF4F40585F4FA03B4D
:102EF000B10509F0B3CF0E94C10F8FE090E00E94AE
:102F0000100F0F5F1F4F0931110509F0EDCE33206F
:102F100011F02F9A2D9880E991E00E94100F0E94E5
:102F20000E0F81E090E00E94371080FFE5CE8AE02E
:102F300090E00E9437109FEF980F9E3F08F0DCCE84
:102F400022E330E0309395012093940128E330E0B0
:102F500030939301209392010BE010E0682F85EEEF
:102F600096E00E94400FC8010E9437100F5F1F4F6C
:102F70000131110599F70E94C10F88EE93E00E947C
:102F8000100FBACE80919A01342F381B832F909165
:102F90000C01391748F48F5F891708F024CF81E0BE
:102FA00083BF889513BE1FCF11E010939901409302
:102FB0009A018091970190919801019690939801C0
:102FC000809397018091A9018093A8010E94150F19
:102FD0008093A9010E942B0F8091B8019091B901B3
:102FE0008130910509F461C08230910509F470C403
:102FF000892B09F04CC0C0900F01D09010017601D0
:103000004FEFE41AF40A4FE951E1B70184E790E089
:103010000E94F80E01E010E0B8016C197D0945E44A
:1030200051E185E690E00E94F80E4BEE50E1B701C9
:1030300089E590E00E94F80E0E94D30F882351F09A
:103040008091A6019091A701892B21F51092100182
:1030500010920F0180910F0190911001181619061E
:10306000F4F081E090E09093A7018093A6014CE2F8
:1030700050E168E070E08CE290E00E94F80E49E9CF
:103080005FE06DE070E090E080E00E94F80E0E944A
:10309000C10FA9CE1093B9010093B801DBCF0297FD
:1030A0009093100180930F01F2CF87EA0E941D0FC9
:1030B000C090B001D090B10180919E0181110CC0EF
:1030C0000E94F11E20E130E040E050E00E944B20E1
:1030D00060939D0110939E0180910E018150809319
:1030E0000E018111E7C0E1E3F6E010E000E0838526
:1030F00081118AC394E0000F111F9A95E1F7B8017E
:103100006F5C794F7B01ECE8F0E0DB011196FC93FA
:10311000EE9383E090E013969C938E9312970E9417
:10312000F11E2AE030E040E050E00E944B20D70141
:1031300019967C936E9318970E94F11E22E030E05E
:1031400040E050E00E944B2021E0611571058105AF
:10315000910509F420E0F701228721E0F801EF5CF6
:10316000F94F2387208531852230310509F027C3A7
:10317000672B682B692B09F41FC38BE79FE0F801CD
:10318000EF5CF94F9587848780E290E09583848394
:10319000F801EF5CF94F8285882341F02481358165
:1031A0008DE390E0821B930B938382838601809151
:1031B0000D0190919D01890F80930E01B601CE0102
:1031C00040960E94D71080910E011B861A861D869C
:1031D0001C861F861E864AE0B30190E00E94541FA1
:1031E000F30101900020E9F73197AF014619570923
:1031F000B301CE010A960E94B6101A8219821C826F
:103200001B821E821D826A857B856115710529F0EE
:103210004E855F85C3010E94B61063E671E0C3016D
:103220000E948D10BE01605F7F4F0E94A310DC01E1
:1032300014964D915C9115976D917C9181ED95E07F
:103240000E94210BC3010E942F10CE010A960E94FA
:103250002F10CE0140960E942F100438B3E01B07B8
:103260000CF0DAC20E94F11E20E130E040E050E0B4
:103270000E944B2060939D0180E280930D01B80174
:10328000CE010A960E94D710C3010E940F11BE0101
:10329000665F7F4FC3010E94A31067E671E00E9442
:1032A0008D100E94A60BC3010E942F10CE010A961A
:1032B0000E942F102091B0013091B1014091B201D4
:1032C0005091B3016091B4017091B5018091B60144
:1032D0009091B701A1E00E94BC212093B0013093EE
:1032E000B1014093B2015093B3016093B401709364
:1032F000B5018093B6019093B7010E94D30F882344
:10330000B1F08091DD06811112C08091DE06882324
:1033100009F4C2C28DEC9EE09093E1068093E00632
:1033200081E08093DD0685E79EE00E94FC0C8091A1
:10333000DD068823E1F02091DE068091D70690918A
:10334000D806222309F4ABC204979093D806809341
:10335000D7068091D7069091D806009711F0C097B4
:1033600089F41092DD0681E028272093DE06809103
:10337000DE06882309F495C283E79DE09093E10679
:103380008093E0068091DF06882309F448C0C0904E
:10339000D906D090DA06E090DB06F090DC0660916A
:1033A000D5067091D606072E000C880B990B0E944B
:1033B000851FA70196010E94E5200E9452218B01E2
:1033C0007093D6066093D5068091D7069091D80663
:1033D0002091DE06222309F467C202979093D80653
:1033E0008093D70620E030E040EA50E4C701B60100
:1033F0000E947E1F87FF0EC0A7019601C701B6017C
:103400000E94E6206093D9067093DA068093DB066B
:103410009093DC060E3C1F4F14F41092DF0680914F
:10342000E2068F5F8093E20666E00E948821911198
:1034300008C08091E3068F5F843008F037C2809324
:10344000E306209117013091180140911901509124
:103450001A0160911B0170911C0180911D019091D6
:103460001E010E94E6206B017C01C0921B01D092DC
:103470001C01E0921D01F0921E01609112017091F9
:103480001301072E000C880B990B0E94851FA701C2
:1034900096010E94E5200E945221709313016093CF
:1034A00012018091140181110BC00E94F11E24E2CF
:1034B00030E040E050E00E944B206A5F60931401CE
:1034C0008091120190911301843C9F4F14F40E944B
:1034D000F40F80911501982F969596959695909357
:1034E00016018F5F803408F0E4C1809315012091AC
:1034F0001201309113018091D5069091D606A90151
:10350000415F5F4F4817590724F10F9682179307C1
:1035100004F18091D7069091D8062091140130E0F3
:10352000A901455F5F4F481759079CF00F96821716
:1035300093077CF085E69DE00E94FC0C8091AE0133
:103540009091AF0101969093AF018093AE010E94DC
:10355000F40F2091D5063091D606D9011D964091E1
:10356000D7065091D8068A01035F1F4F81E3A82E2A
:1035700086E0B82EF50183858823D9F060817181BA
:1035800086819781860F971F0197281739078CF43A
:10359000A617B70774F06281738184819581860FC5
:1035A000971F02974817590724F4061717070CF0BE
:1035B000B8C3709661ED76E06E177F07E1F68091F3
:1035C000D5069091D6068E3C9F4F34F482E090E071
:1035D0009093B9018093B801E1E3F6E08081918195
:1035E0008C3F9F4F0CF4A7C3709601ED16E00E17A9
:1035F0001F07A1F7F0901101FF2069F08091AA0147
:103600009091AB01873091050CF056C101969093D3
:10361000AB018093AA0110E000E08091AA01909193
:10362000AB014DE35DE070E060E09801281B390BD1
:10363000C9010E94F80E8091AA019091AB0143E369
:103640005DE06DE370E0D801A81BB90BCD010E94CD
:10365000F80E085F1F4F08381105F9F6F50183854C
:10366000882339F1FF2059F08081918101978B3FA8
:10367000FFEF9F070CF425C1D5018D939C93D501D5
:103680001C964D915C911D974115510591F0FA01E1
:1036900004913196E4904E5F5F4F12966D917C914C
:1036A00013971AEFC12E30E020E08D919C910E947B
:1036B0000F0DB0E1AB0EB11CE1EDF6E0EA15FB0534
:1036C00069F6209116016091140170E08091120159
:1036D00090911301E1E3FBE00491E2E3FBE0E4906D
:1036E00043E35BE02223F1F041E050E03E2D3770F0
:1036F00011F450E040E03E2D369536953695430F57
:10370000511D049FF001059FF00D112430E0220FA0
:10371000331FE29FA001E39F500DF29F500D112433
:103720004D5C544FF3E0CF2E30E020E00E940F0DAF
:103730008091DD0681111092E3064091E0065091E0
:10374000E1064115510509F4A2CC8091E306FA0186
:1037500004913196E4904E5F5F4F8823F1F021E0B1
:1037600030E09E2D977011F430E020E09E2D96956C
:1037700096959695290F311D029FB001039F700DFC
:10378000112490E0880F991F689F9001699F300D68
:10379000789F300D1124420F531F6091D70670910E
:1037A000D80633E0C32E30E020E08091D50690911A
:1037B000D6060E940F0D6BCC8DE59FE0E0CC273044
:1037C00031058CF0672B682B692B51F086E49FE064
:1037D000F801EF5CF94F9587848788E190E0D6CCBB
:1037E0008FE29FE0F5CF672B682B692B51F08FE1BB
:1037F0009FE0F801EF5CF94F9587848780E190E0C6
:10380000C5CC8FE09FE0F5CF0F5F1F4F70960A3059
:10381000110509F06CCCCACC0830E7E01E07F4F4BF
:103820000E94F11E28E030E040E050E00E944B2072
:1038300060939D018AE180930D01B801CE010A9643
:103840000E94D710C3010E940F11BE01665F7F4F17
:10385000C3010E94A3106DE671E021CD0E94F11E0C
:1038600028E030E040E050E00E944B2060939D0152
:1038700086E180930D01B801CE010A960E94D7100F
:10388000C3010E940F11BE01665F7F4FC3010E94FA
:10389000A31065E771E003CD8BE89EE03DCD049673
:1038A00054CD89EF91E16ACD029698CD1092E3064E
:1038B000C8CD109215011BCE1092AB011092AA0137
:1038C000AACE0CE810E0F501118300831386D7CE51
:1038D000C090AE01D090AF01A090AC01B090AD010E
:1038E0007601EE0CFF1CEC0CFD1CEA0CFB1C80911D
:1038F0009B0190919C018E159F0520F4F0929C01F4
:10390000E0929B0120909B0130909C0180E1882EE9
:1039100087E2982EC501B4010E94A821CB01992706
:103920000E94C40F9F8B8E8BC50168EE73E00E94CE
:10393000A821CB010AE010E0B8010E94A821992734
:103940000E94C40F998F888F94E6492E512CC5018F
:10395000B2010E94A821CB01B8010E94A821992799
:103960000E94C40F9B8F8A8FC501B8010E94A821B5
:103970005C01CB01B8010E94A82199270E94C40FC5
:103980009D8F8C8FC50199270E94C40F9F8F8E8FAA
:10399000C601B4010E94A821CB0199270E94C40F3F
:1039A00099A388A3C60168EE73E00E94A821CB0109
:1039B000B8010E94A82199270E94C40F9BA38AA343
:1039C000C601B2010E94A821CB01B8010E94A82122
:1039D00099270E94C40F9DA38CA3C601B8010E9421
:1039E000A8216C01CB01B8010E94A82199270E944F
:1039F000C40F9FA38EA3C60199270E94C40F99A745
:103A000088A7C701B4010E949421CB010E94C40F72
:103A10009BA78AA7C70168EE73E00E949421CB019F
:103A2000B8010E9494210E94C40F9DA78CA7C701D2
:103A3000B2010E949421CB01B8010E9494210E94FE
:103A4000C40F9FA78EA7C701B8010E9494217C01D3
:103A5000CB01B8010E9494210E94C40F6C01C701E0
:103A60000E94C40F99AB88ABC101B4010E94A82188
:103A7000CB0199270E94C40F9BAB8AABC10168EEB2
:103A800073E00E94A821CB01B8010E94A8219927C8
:103A90000E94C40F7C01C101B2010E94A821CB0188
:103AA000B8010E94A82199270E94C40F5C01C1019E
:103AB000B8010E94A8214C01CB01B8010E94A821A5
:103AC00099270E94C40F8C01C40199270E94C40F3A
:103AD0004C0186EA0E941D0F4FE257E070E060E063
:103AE00090E080E00E94F80E4E895F8961E170E00D
:103AF00088E590E00E94F80E488D598D67E170E0EE
:103B000088E590E00E94F80E4A8D5B8D6DE170E0D3
:103B100088E590E00E94F80E4C8D5D8D63E270E0C8
:103B200088E590E00E94F80E4E8D5F8D69E270E0AE
:103B300088E590E00E94F80E48A159A161E170E08B
:103B40008EE390E00E94F80E4AA15BA167E170E06D
:103B50008EE390E00E94F80E4CA15DA16DE170E053
:103B60008EE390E00E94F80E4EA15FA163E270E048
:103B70008EE390E00E94F80E48A559A569E270E036
:103B80008EE390E00E94F80E4AA55BA561E170E02B
:103B900082E290E00E94F80E4CA55DA567E170E01E
:103BA00082E290E00E94F80E4EA55FA56DE170E004
:103BB00082E290E00E94F80EA60163E270E082E2E9
:103BC00090E00E94F80E48A959A969E270E082E2EB
:103BD00090E00E94F80E4AA95BA961E170E088E0DC
:103BE00090E00E94F80EA70167E170E088E090E0A5
:103BF0000E94F80EA5016DE170E088E090E00E945F
:103C0000F80EA80163E270E088E090E00E94F80EF0
:103C1000A40169E270E088E090E00E94F80E0E9442
:103C2000D30F882309F433CA85E090E09093D60639
:103C30008093D5061092D8061092D70600E010E0C7
:103C400020E03EE30093D9061093DA062093DB06CA
:103C50003093DC061092DD061092DE061092DF062D
:103C600089EF91E19093E1068093E006E1E3F6E0CD
:103C700043E050E020E130E087E090E06CE870E065
:103C80007183608353834283358324839783868340
:103C900013867096A1EDB6E0AE17BF0779F711E075
:103CA000109311011092AF011092AE011092AD016C
:103CB0001092AC011092B0011092B1011092B201B9
:103CC0001092B3011092B4011092B5011092B60196
:103CD0001092B70180919E0181110CC00E94F11ECB
:103CE00020E130E040E050E00E944B2060939D01D5
:103CF00010939E0180E680930E010E94F11E20E148
:103D000030E040E050E00E944B2060939D0180E253
:103D100080930D0181E090E09093B9018093B80108
:103D2000B6C987E49DE00E94FC0C81E08093DF0629
:103D30001092110144CC8091AC019091AD0101969B
:103D40009093AD018093AC0155CC8F929F92AF922E
:103D5000BF92CF92DF92EF92FF92CF93DF93EC016D
:103D6000688179818A819B81611571058105910541
:103D700021F464E279ED8BE597E02DE133EF41E04A
:103D800050E00E944B2049015A019B01AC01A7EA77
:103D9000B1E40E946A206B017C01ACEEB4EFA50196
:103DA00094010E947820C60ED71EE81EF91EF7FE69
:103DB00006C081E0C81AD108E10880E8F80AC88284
:103DC000D982EA82FB82C701B6019F77DF91CF914A
:103DD000FF90EF90DF90CF90BF90AF909F908F902B
:103DE00008958F929F92AF92BF92CF92DF92EF92FF
:103DF000FF9260911F0170912001809121019091AB
:103E00002201611571058105910521F464E279EDC6
:103E10008BE597E02DE133EF41E050E00E944B202D
:103E200049015A019B01AC01A7EAB1E40E946A2052
:103E30006B017C01ACEEB4EFA50194010E947820E7
:103E4000C60ED71EE81EF91EF7FE06C081E0C81A8E
:103E5000D108E10880E8F80AC0921F01D092200141
:103E6000E0922101F0922201C701B6019F77FF90F5
:103E7000EF90DF90CF90BF90AF909F908F9008957C
:103E800060931F0170932001809321019093220180
:103E90000895BB274A3031F4992322F4BDE290956E
:103EA00081959F4F0C94551FBB27FB015527AA27CF
:103EB000880F991FAA1FA41710F0A41B83955051B7
:103EC000B9F7A05DAA3308F0A95DA193009779F72F
:103ED000B111B1931192CB010C946E1FDC01FC0166
:103EE000672F71917723E1F7329704C07C916D932E
:103EF00070836291AE17BF07C8F308950E94C01F78
:103F000008F481E00895E89409C097FB3EF4909589
:103F10008095709561957F4F8F4F9F4F9923A9F0A2
:103F2000F92F96E9BB279395F69587957795679531
:103F3000B795F111F8CFFAF4BB0F11F460FF1BC075
:103F40006F5F7F4F8F4F9F4F16C0882311F096E908
:103F500011C0772321F09EE8872F762F05C06623B6
:103F600071F096E8862F70E060E02AF09A95660F6F
:103F7000771F881FDAF7880F9695879597F9089528
:103F8000990F0008550FAA0BE0E8FEEF161617066A
:103F9000E807F907C0F012161306E407F50798F0D2
:103FA000621B730B840B950B39F40A2661F0232BEB
:103FB000242B252B21F408950A2609F4A140A69567
:103FC0008FEF811D811D089597F99F6780E870E04C
:103FD00060E008959FEF80EC089500240A9416167F
:103FE000170618060906089500240A9412161306E7
:103FF000140605060895092E0394000C11F4882375
:1040000052F0BB0F40F4BF2B11F460FF04C06F5F90
:104010007F4F8F4F9F4F089557FD9058440F551F66
:1040200059F05F3F71F04795880F97FB991F61F03A
:104030009F3F79F087950895121613061406551FB1
:10404000F2CF4695F1DF08C0161617061806991F1D
:10405000F1CF86957105610508940895E894BB2712
:1040600066277727CB0197F90895F999FECF92BD7E
:1040700081BDF89A992780B50895262FF999FECF2A
:104080001FBA92BD81BD20BD0FB6F894FA9AF99A75
:104090000FBE01960895052E97FB1EF400940E9412
:1040A000622057FD07D00E94B42007FC03D04EF4D5
:1040B0000C94622050954095309521953F4F4F4F7D
:1040C0005F4F089590958095709561957F4F8F4FC4
:1040D0009F4F08950E94D620A59F900DB49F900DEC
:1040E000A49F800D911D11240895B7FF0C946A20A0
:1040F0000E946A20821B930B08952F923F924F9249
:104100005F926F927F928F929F92AF92BF92CF9267
:10411000DF92EF92FF920F931F93CF93DF93CDB770
:10412000DEB7CA1BDB0B0FB6F894DEBF0FBECDBFE8
:1041300009942A88398848885F846E847D848C84B9
:104140009B84AA84B984C884DF80EE80FD800C81C2
:104150001B81AA81B981CE0FD11D0FB6F894DEBFA5
:104160000FBECDBFED010895A1E21A2EAA1BBB1B05
:10417000FD010DC0AA1FBB1FEE1FFF1FA217B30733
:10418000E407F50720F0A21BB30BE40BF50B661F49
:10419000771F881F991F1A9469F76095709580950D
:1041A00090959B01AC01BD01CF010895A29FB00184
:1041B000B39FC001A39F700D811D1124911DB29F5B
:1041C000700D811D1124911D08955058BB27AA27F9
:1041D0000E94FD200C94FB1F0E94ED1F38F00E94EE
:1041E000F41F20F039F49F3F19F426F40C94EA1FD1
:1041F0000EF4E095E7FB0C94E41FE92F0E940C20DD
:1042000058F3BA17620773078407950720F079F40B
:10421000A6F50C942E200EF4E0950B2EBA2FA02DAF
:104220000B01B90190010C01CA01A0011124FF2763
:10423000591B99F0593F50F4503E68F11A16F0405E
:10424000A22F232F342F4427585FF3CF469537955D
:104250002795A795F0405395C9F77EF41F16BA0B22
:10426000620B730B840BBAF09150A1F0FF0FBB1FD0
:10427000661F771F881FC2F70EC0BA0F621F731F19
:10428000841F48F4879577956795B795F7959E3F76
:1042900008F0B0CF9395880F08F09927EE0F979507
:1042A000879508950E9459216894B1110C942F208C
:1042B00008950E94142088F09F5798F0B92F9927ED
:1042C000B751B0F0E1F0660F771F881F991F1AF001
:1042D000BA95C9F714C0B13091F00E942E20B1E018
:1042E00008950C942E20672F782F8827B85F39F017
:1042F000B93FCCF3869577956795B395D9F73EF49A
:1043000090958095709561957F4F8F4F9F4F089541
:10431000991B79E004C0991F961708F0961B881F17
:104320007A95C9F780950895AA1BBB1B51E107C078
:10433000AA1FBB1FA617B70710F0A61BB70B881F35
:10434000991F5A95A9F780959095BC01CD010895C4
:1043500097FB072E16F4009407D077FD09D00E9432
:10436000942107FC05D03EF4909581959F4F0895C8
:10437000709561957F4F08950024A7FD00942A0F42
:10438000301D401D501D601D701D801D901D089525
:10439000EE0FFF1F0590F491E02D09940F931F93EA
:1043A000CF93DF938230910510F482E090E0E091AA
:1043B000EB06F091EC0630E020E0B0E0A0E03097B2
:1043C00099F42115310509F44AC0281B390B243012
:1043D0003105D8F58A819B816115710589F1FB0151
:1043E00093838283FE0111C0408151810281138138
:1043F00048175907E0F04817590799F4109761F0EA
:1044000012960C93129713961C933296CF01DF915C
:10441000CF911F910F9108950093EB061093EC0636
:10442000F4CF2115310551F04217530738F0A90197
:10443000DB019A01BD01DF01F801C1CFEF01F9CF26
:104440009093EC068093EB06CDCFFE01E20FF31FB5
:10445000819391932250310939832883D7CF2091BA
:10446000E9063091EA06232B41F420912501309191
:1044700026013093EA062093E9062091230130912A
:1044800024012115310541F42DB73EB74091270194
:1044900050912801241B350BE091E906F091EA06C2
:1044A000E217F307A0F42E1B3F0B2817390778F00B
:1044B000AC014E5F5F4F2417350748F04E0F5F1F6A
:1044C0005093EA064093E906819391939FCFF0E0E1
:1044D000E0E09CCFCF93DF930097E9F0FC013297A7
:1044E00013821282A091EB06B091EC06ED0130E050
:1044F00020E01097A1F420813181820F931F209139
:10450000E9063091EA062817390709F061C0F093EF
:10451000EA06E093E906DF91CF910895EA01CE170C
:10452000DF07E8F54A815B819E0141155105B1F72E
:10453000E901FB83EA8349915991C40FD51FEC1718
:10454000FD0761F4808191810296840F951FE90136
:1045500099838883828193819B838A83F0E0E0E062
:1045600012968D919C9113970097B9F52D913C91DE
:104570001197CD010296820F931F2091E906309189
:10458000EA062817390739F6309751F51092EC06EC
:104590001092EB06B093EA06A093E906BCCFD38352
:1045A000C28340815181840F951FC817D90761F4D8
:1045B0004E5F5F4F88819981480F591F5183408317
:1045C0008A819B81938382832115310509F0B0CFC5
:1045D000F093EC06E093EB069ECFFD01DC01C0CF2B
:1045E00013821282D7CFB0E0A0E0E9EFF2E20C94A0
:1045F0007F208C01009751F4CB010E94CE218C01C9
:10460000C801CDB7DEB7E0E10C949B20FC01E60FBA
:10461000F71F9C0122503109E217F30708F49DC0EF
:10462000D901CD91DC911197C617D70798F0C53005
:10463000D10530F3CE0104978617970708F3C61B00
:10464000D70B2297C193D1936D937C93CF010E9496
:104650006A22D6CF5B01AC1ABD0A4C018C0E9D1E9E
:10466000A091EB06B091EC06512C412CF12CE12CE1
:10467000109731F58091E9069091EA068815990521
:1046800009F05CC04616570608F058C08091230117
:1046900090912401009741F48DB79EB74091270176
:1046A00050912801841B950BE817F90708F055C0B5
:1046B000F093EA06E093E906F90171836083A0CFE5
:1046C0008D919C91119712966C90129713967C90F5
:1046D0001397A815B90559F56C0142E0C40ED11C19
:1046E000CA14DB0420F1AC014A195B09DA01129605
:1046F000159780F06282738251834083D9016D9354
:104700007C93E114F10471F0D7011396FC93EE93BE
:10471000129776CF22968C0F9D1FF901918380838B
:10472000F301EFCFF093EC06E093EB0669CF481668
:10473000590608F42C017D01D3019ACFCB010E94C8
:10474000CE217C01009749F0AE01B8010E94B02350
:10475000C8010E946A22870153CF10E000E050CFC9
:10476000FB01DC0102C001900D9241505040D8F78E
:104770000895FB01DC0101900D920020E1F70895FE
:04478000F894FFCFDB
:10478400FFFFFFFF00E10000000000001020605068
:104794000001F4010000000AD7233D0000000001DD
:1047A4000000000000ED068000F400EB00E200D9F8
:1047B40000D000C700BE00B500AC0000C18081007D
:1047C400000000000000BF0B210BE00BD50B260CF2
:1047D400E40B020C00000000400FF40AF10FF00F8C
:1047E4000D0A00207C2000206561737900206D652E
:0C47F4006469756D00206861726400004B
:00000001FF
