:100000000C94400B0C94680B0C94680B0C94680BCC
:100010000C94680B0C94680B0C94680B0C94680B94
:100020000C94680B0C94680B0C948E1C0C94FD1CA7
:100030000C94680B0C94680B0C94680B0C94680B74
:100040000C94680B0C94680B0C94680B0C94680B64
:100050000C94680B0C94680B0C94680B0C942F1F79
:100060000C94680B0C94680B0C94680B0C94680B44
:100070000C94680B0C94680B0C94680B0C94680B34
:100080000C94791F0C94680B0C94680B0C94680BFF
:100090000C94680B0C94680B0C94680B0C94680B14
:1000A0000C94680B0C94680B0C94680B1CFEFEFF00
:1000B000FFFFFF1FF8FCFCFEFEFE3E3E3CFEFEFE88
:1000C000FE7E3E001FFFFFFFFFFEFE1C3E3EFEFECB
:1000D000FEFCFCF8003E7EFEFEFEFE3C080800082A
:1000E000641C2A6E0A0000503838741C1400001872
:1000F0007C743C140000000A6E2A1C640800001482
:100100001C74383850000000143C747C1800080837
:10011000000640567640060000004C4C604C000043
:10012000000040567640000000004C406C4C00003F
:1001300008080076625A5A6276003CFFFFFFFFFF14
:100140003C1C78FEFEFEFEFE78387CFFFFFFFFFFC2
:100150007C381C3CFFFFFFFFFF3C3878FEFEFEFEB4
:10016000FE78387CFFFFFFFFFF7C080800187E3A0E
:100170007A18080000307C347430100000387E3A61
:100180007A3810000008187A3A7E1800001030748F
:10019000347C30000010387A3A7E38003C7FFFFF14
:1001A000FF7F3C1C78FEFEFE7E7E78387C7F7F7F62
:1001B0007F7F7C383C7F7F7FFFFFFC1C787E7EFE4C
:1001C000FEFE78387C7F7F7F7F7F7C381C3C7FFF02
:1001D000FFFF7F3C38787E7EFEFEFE78387C7F7F96
:1001E0007F7F7F7C1CFCFFFF7F7F7F3C3878FEFE9B
:1001F000FE7E7E78387C7F7F7F7F7F7C08080018BA
:100200003E7A3A18080000307C3434301000003850
:100210003E3A3A38100000183E3A3A58080000308A
:100220003C347430100000383E3A3A381000000870
:10023000183A7A3E180000103034347C3000001038
:10024000383A3A3E38000008583A3A3E1800001052
:100250003074343C30000010383A3A3E3800080719
:10026000403E66665E66663E020740500207405E9C
:100270000407405C42520407405C5E5EDC00D6002E
:100280000080101000006030B07060E040DCAE8E86
:1002900022140000000000101C5E7834402104008D
:1002A000010902004020FCF8F8F8F8F8F8F8F8F82E
:1002B000F8F0F0F0F0F0F0F0F0F0E0E0E0E0E0E096
:1002C000E0E0C0C0C0C0C0C0C080808080808080AE
:1002D000000000000000000000000000000000001E
:1002E000000000000000FF7FFF7FFFFF7FFFFFFF98
:1002F000FFFFFFFFFFFFFFFFFFFFFFFFFFFFFFFF0E
:10030000FFFFFFFFFFFFFFFFFF7FFFDFFFFFBF7F5D
:10031000FFFFFFFFFFFFFEFEFEFEFEFEFEFCFCFCFD
:10032000FCFCF8F8F8F83F1F271F2555AA55AB55D8
:10033000A9512D1F373F1D1F171F1F3FBFFFFFFF75
:10034000FFFFFFFFFFDFEF1F3F1F9F7FF67F9E55E1
:10035000AA55AA4587070D0F071F1F7F7FFFFFFFC5
:100360007FF78B57AF1F80408050A050A051A850FE
:10037000281008140200008080D0E8FC7EFFFFFFF8
:100380003F3719070301020100002A158255AAF51B
:10039000F2FDFEFD70F5EA54AA54A840A10201073F
:1003A00057BF5D0F86554020FF7FBF7FBF7FBF7F58
:1003B000BF7F3FDFFFFFFFFFFFFFFFFFFFFFFFFFED
:1003C000FFFFFFFFFFFFFFFFFFFFFFFFFFFFFEFE3F
:1003D000FEFEFEFEFEFEFEFEFEFEFEFEFEFCFCFC43
:1003E000FCFCFCFCFCFCFCFC000563E5D3FD76FD9D
:1003F000DD7F371FBF5F275FAF572FD7EFF7EFF7CF
:10040000EFFDF7FFFFFFFFFF7FFF7FFFFFFFDFFF36
:10041000FFEFFFFFFFFFFFFFFFFFFFFFFFFFFFFFFC
:10042000FFFFFFFFBF7FBF7F00000B0701874381F6
:10043000D0E870F4D8FD747CDC7FB75F2F5FAFD756
:10044000E7D76BF7DBF173FDFFFE7F7FFF7FBF7F99
:100450001F1FB75FBFDFF7DFEFF7F3FDFDFFFFFF04
:10046000FDFFFF7F3F7F2F5F00000040B85CB75F5C
:100470002D172B152A15228542810060D0F8777F31
:10048000BD5FAF5729178B1522150A05828142E0FF
:10049000D8F87E7FDF7F3F5F2FB75BA75B150A052C
:1004A000080508000040804000000000003E5B4F4F
:1004B0005B3E3E6B4F6B3E1C3E7C3E1C183C7E3CC4
:1004C000181C577D571C1C5E7F5E1C00183C1800D2
:1004D000FFE7C3E7FF0018241800FFE7DBE7FF3062
:1004E000483A060E2629792926407F050507407FD0
:1004F00005253F5A3CE73C5A7F3E1C1C08081C1C43
:100500003E7F14227F22145F5F005F5F06097F0138
:100510007F006689956A606060606094A2FFA29423
:1005200008047E040810207E201008082A1C0808F1
:100530001C2A08081E101010100C1E0C1E0C30383F
:100540003E3830060E3E0E06000000000000005F40
:1005500000000007000700147F147F14242A7F2A5C
:10056000122313086462364956205000080703001E
:10057000001C2241000041221C002A1C7F1C2A086A
:10058000083E0808008070300008080808080000CD
:1005900060600020100804023E5149453E00427F41
:1005A000400072494949462141494D331814127F90
:1005B0001027454545393C4A494931412111090730
:1005C0003649494936464949291E000014000000B1
:1005D0004034000000081422411414141414004183
:1005E00022140802015909063E415D594E7C121140
:1005F000127C7F494949363E414141227F41414178
:100600003E7F494949417F090909013E41415173F2
:100610007F0808087F00417F41002040413F017F63
:10062000081422417F404040407F021C027F7F042B
:1006300008107F3E4141413E7F090909063E415174
:10064000215E7F09192946264949493203017F0164
:10065000033F4040403F1F2040201F3F4038403F65
:10066000631408146303047804036159494D43007B
:100670007F4141410204081020004141417F0402B2
:100680000102044040404040000307080020545449
:1006900078407F2844443838444444283844442827
:1006A0007F385454541800087E090218A4A49C787A
:1006B0007F0804047800447D40002040403D007FD6
:1006C0001028440000417F40007C047804787C08B6
:1006D0000404783844444438FC182424181824248A
:1006E00018FC7C08040408485454542404043F446F
:1006F000243C4040207C1C2040201C3C4030403C9E
:1007000044281028444C9090907C4464544C4400FD
:100710000836410000007700000041360800020161
:100720000204023C2623263C1EA1A161123A40404D
:10073000207A3854545559215555794121545478CB
:1007400041215554784020545579400C1E52721264
:1007500039555555593954545459395554545800EC
:1007600000457C410002457D420001457C40F02966
:100770002429F0F0282528F07C54554500205454B5
:100780007C547C0A097F49324949493232484848F9
:1007900032324A4848303A4141217A3A4240207840
:1007A000009DA0A07D39444444393D4040403D3C3B
:1007B00024FF2424487E4943662B2FFC2F2BFF095E
:1007C00029F620C0887E0903205454794100004452
:1007D0007D413048484A32384040227A007A0A0A3D
:1007E000727D0D19317D2629292F282629292926B0
:1007F00030484D4020380808080808080808382FF5
:1008000010C8ACBA2F102834FA00007B000008147E
:100810002A142222142A14089500220095AA0055B1
:1008200000AAAA55AA55AA000000FF00101010FF48
:1008300000141414FF001010FF00FF1010F010F04F
:10084000141414FC001414F700FF0000FF00FF1440
:1008500014F404FC141417101F10101F101F14148C
:10086000141F00101010F0000000001F10101010D6
:100870001F10101010F010000000FF1010101010CA
:1008800010101010FF10000000FF140000FF00FF08
:1008900000001F10170000FC04F4141417101714A4
:1008A00014F404F40000FF00F714141414141414C6
:1008B000F700F7141414171410101F101F14141439
:1008C000F4141010F010F000001F101F0000001FA3
:1008D00014000000FC140000F010F01010FF10FFD6
:1008E000141414FF141010101F00000000F010FF6B
:1008F000FFFFFFFFF0F0F0F0F0FFFFFF000000004F
:1009000000FFFF0F0F0F0F0F38444438447C2A2A92
:100910003E147E02020606027E027E0263554941B3
:10092000633844443C04407E201E2006027E0202BE
:1009300099A5E7A5991C2A492A1C4C7201724C30D2
:100940004A4D4D303048784830BC625A463D3E49A9
:100950004949007E0101017E2A2A2A2A2A44445F4D
:10096000444440514A444040444A51400000FF0141
:1009700003E080FF000008086B6B0836123624364F
:10098000060F090F060000181800000010100030B4
:1009900040FF0101001F01011E00191D1712003C3C
:1009A0003C3C3C0000000000F0F89C8E8783878E62
:1009B0009CF8F00000FEFF0303030303070EFCF89E
:1009C0000000FEFF0303030303070EFCF80000FF13
:1009D000FF00000000000000FFFF0000FEFF838317
:1009E000838383C7EE7C380000F8FC0E0703030303
:1009F000070EFCF800003F7FE0C08080C0E07F3F32
:100A0000FFFF01010101010101FFFF0000FFFF0CD9
:100A10000C0C0C1C3E77E3C100007FFFC0C0C0C0BF
:100A2000C0E0703F1F00001F3F70E0C0C0C0E0701A
:100A30003F1F00007FFFC1C1C1C1C1E3773E1C0061
:100A4000001F3F70E0C0C0C0E0703F1F000000000A
:100A50000001FFFF01000000D5F08D14A1C881CF77
:100A6000D9F1AF200040300000000000000000007D
:100A70000000000000000000000000000080C0E056
:100A8000E0F0F0F8F8F8F8F8F878F878F8F0F0F026
:100A9000F0F0E0E0C0800000000000000000000076
:100AA00000000000000000000000000004204420BE
:100AB00054247430786878B8380860F8FEFFBFFDB9
:100AC0001EBD51B9F1F2F9FAFD8D04020303070FBF
:100AD0000F1F3FFFFFFDF78C40000040E0E8E8E813
:100AE000A08880808000000000000000000200025A
:100AF000000204020182C4E2F1F8FC3A1C2A14004C
:100B00001102050A55AA5DBFFFFFFFFEFC7C3838C5
:100B10001CDE7B050303020DA200000000010002A1
:100B200001000100000000000000000000000000C3
:100B30001068D000F4FAFFFF0BB1A0000000000025
:100B40000000040602080D0102C3E54FBF6B170049
:100B500006830582048442830180C080E4EC4C401B
:100B60004400400000000000010001200022452B4D
:100B70005FAE7F801F3F5FBF7EF965CCB03080C025
:100B80001000112A14AA45AA10A840A915A844AA21
:100B900015BB5DBA7DFEFFBAFFEEFDBA55AA55AA98
:100BA00054A84428000000000000000000000008D5
:100BB00000080408010A04080108050001000402F5
:100BC0000000040000000002010204020102000013
:100BD00001000400110011011102050A05020502BD
:100BE00001020000000000183000000C7AEAAEFAA2
:100BF000EA0FCD676DE5EFE776B0B070F0B0B0E02A
:100C0000000000000000000000000398C1DD5757FD
:100C1000191F9F9F0C5B4A5F3C00000000F058D8F2
:100C200000305813D190010000032F03010600008B
:100C3000008080C0C0400FC5350139F804010000B4
:100C40000000008304000000000102021B3B003A88
:100C50000B0118230000000000000001000000004C
:100C6000000000000000000001020000BC000000C5
:100C700000000000000000000040300090D900009B
:100C80000000000200081C2030404080C0800000AE
:100C900080C0C0C0C0E0E0E0E0E0E0E0E0E0E0E034
:100CA000E0C0C0C0C080000080C080404030201C38
:100CB00008000200000000000000000000055EE0E7
:100CC00000000000000000F4004000FC04F8F0E127
:100CD00003C7C7C7878F0F0F8F8F8F8F8F8F0F0F10
:100CE0008F87C7C7C703E1F0F804FC004000F40099
:100CF000A0A0A090908C48C4064401000000000011
:100D000003040810002000FF004200FF00FFFFFF67
:100D100000FFFFFF1F01030207010800080107038E
:100D2000010F3FFFFF00FFFFFF00FF004200FF0039
:100D300000000000000000000000000000000000B3
:100D400000000000000000FF004200FF00FFFFFF66
:100D500000FFFF370100E03800000000000000182D
:100D60006000079FFF00FFFFFF00FF004200FF0041
:100D70000000000000000000000000000000000073
:100D800000000000000000170002009F104F07E362
:100D9000F0F1FBFEFC1F00000000E0FFF800000087
:100DA000001FF9F9F1F0E3074F109F000200170050
:100DB0000000000000000000000000000000000033
:100DC0000000008040A050A854AA55A0408204080A
:100DD0000509130B03000000002017271726100039
:100DE0000000030B11090482418050AA54A850A0AE
:100DF00040800000000000000000002030000000E3
:100E000000000000F87C54D4DCD4DCF8B8A8B8F8B2
:100E1000B8FAF101555D7D567EEAAEFA7C0000001D
:100E20000000001E3F2B2B2F3A3B1A0E2A0F2FAF2C
:100E3000EFEFC00000000000000000000000000014
:100E4000FEABABABABBA2A1E0A5E8000000000000E
:100E500000C64F00008000000000000000000000FD
:100E60000F1A1B1E0B06000000000000000000000F
:100E70000000040301058FFC70400000000000002A
:100E8000000000000000000010040000000000004E
:100E90000000000C000100144E382000000000008B
:100EA0000000000000000000000000000000000042
:100EB00000000030000200010000000000DC00ED36
:100EC0000200006B00DC006B0000006B00C4006BD4
:100ED0000000006B00C400410100006B00DC006BEF
:100EE0000000006B00F70017020080B8014101000C
:100EF000006B00B801410100006B00B80141010026
:100F0000006B00008026016B0000800E0EFF0101C7
:100F10003D090D3D2D012D190101FF3F20202F22FC
:100F2000232F2B202B2620203F0E0EFF01818181B5
:100F3000A1B139FDF9312101FF3F202327282423C6
:100F40002021212020203F0E0EFF0141C14181813F
:100F5000113D7D3D1101FF3F20212D25232C212016
:100F6000202020203F0E0EFF01818181B18925259F
:100F700015897101FF3F20232728242320212120C8
:100F800020203F0E0EFF0141C14191892525158981
:100F90007101FF3F20212D25232C212021202020FD
:100FA0003F0E0EFF01818101B109252515897101CF
:100FB000FF3F202A2A202A202121212020203F0E05
:100FC0000EFF01414151E1F1451D55414101FF3FF6
:100FD0002020202120212027212620203F0E0EFF27
:100FE00001818101A131F9FDF9312101FF3F202A61
:100FF0002A202A202121212020203F0E0EFF01013E
:1010000001C1C111797DF9312101FF3F2023232F37
:101010002F232320212020203F0E0EFF01294D01E8
:1010200019A5AD19014D2901FF3F20202824212CAD
:101030002F2D2C2820203F0E0EFF010101C1C109D8
:101040001D0921712501FF3F2023232F2F2323205A
:10105000202020203FDC006B0000006B00DC006BD8
:101060000000006B00DC00410100006B00F7004154
:101070000100006B00A500410100006B000080032F
:10108000030703050303070605030305060708080E
:101090003C5EBFBFFFBF7E3C08085EBFBFBFBFFF57
:1010A000BF7E08187E977FFFFFFFFF7E3C1881C23E
:1010B000C281182C7E97BFBFBFFFBF7E08087E8B02
:1010C000BFBFBFBFFF5EDC006B0000006B00DC0039
:1010D0006B0000006B00DC006B0000006B00DC00AC
:1010E0006B0000001702DC006B0000006B00DC00EE
:1010F0006B0000006B00DC006B0000006B00DC008C
:101100006B0000001702DC006B0000006B00C400E5
:101110006B0000006B00F700410100006B00DC0079
:101120006B0000006B00DC006B0000006B00DC005B
:101130006B0000006B00DC006B0000001702DC009D
:101140006B0000006B00DC006B0000006B00DC003B
:101150006B0000006B00DC006B0000001702DC007D
:101160006B0000006B00C4006B0000006B00F70018
:10117000410100006B00DC006B0000006B00DC0034
:101180006B0000006B00DC006B0000006B00DC00FB
:101190006B0000001702DC006B0000006B00DC003D
:1011A0006B0000006B00DC006B0000006B00DC00DB
:1011B0006B0000001702DC006B0000006B00C40035
:1011C0006B0000006B00F700410100006B00DC00C9
:1011D000AC010000D600F700AC010000D600DC0036
:1011E000AC010000D600C400AC010000D600C40071
:1011F000D6000000D600DC00D6000000D60000803B
:101200003820000E0E0ECEFEFE3E0E00FCFEFE0E40
:101210000EFEFEFC0000FEFEFE3EFCE000E0FC3E9A
:10122000FEFEFE00FEFEFE8E8EFEFE7C0000FEFE3A
:10123000FE0000FEFEFE8E8E8E0000E0B886BBA68D
:10124000A1A0E0007FC5BFA0A0BFC27F0000FF8BB0
:10125000FF001FF387F51F00FF82FF00FF85BFA37C
:10126000A3BFCB7F0000FF8BFF0000FF85BFA3A3C0
:10127000E30000FCFEFE8E8EBEBE3C0000FEFEFEC5
:10128000000000000000E0FEFE3EFEFEE0000E7EDC
:10129000FEF080F0FE7E0E0000FEFEFE8E8E8E00C2
:1012A00000FEFEFE8E8EFEFE7C000079CBBBA3A36B
:1012B000BFC57F0000FF8BBFA0A0E00000F88FE259
:1012C0002F282FE58FF8000001FF8BFF01000000A1
:1012D00000FF85BFA3A3E30000FF8BFF0303FF977D
:1012E000FE00404000000000000000000000000080
:1012F00000000000000000000000000000C08000AE
:101300000030785878584830000080000000000015
:1013100000000000000000000000000000000000CD
:1013200000000000000000000000000000000000BD
:10133000000000000000000090B078DC9EDF6D3BF4
:101340001083C602A802068318367B9E3C78B060E4
:10135000600000000000000000000000000000002D
:101360000000000000A010004020008800000020C5
:1013700000000000000010285CBEFEE0ECCEC28839
:101380001010860A06341131216020C85CC8948090
:1013900080004020400804200400000800000002F3
:1013A00000000000558855E24520000080C0E09014
:1013B0004840000040804020508800E3F6E5D2E03D
:1013C00044070D0E1F0A0015830593323A3228197F
:1013D000009B296B40060002000000000000000096
:1013E00000000000FDFFFF1FCDE6F0F83F8F47240F
:1013F000528855E2D5F80158FEFEFCFDF9FA51F08D
:101400000502010850800A102A1F0F9FDEC0E5C2A6
:1014100001C04020000020C000E0000000000000EB
:10142000000000005F7F7700FCFFFF783C1E32B2B7
:10143000FECE88235D3F9FC0CFDB5BD7B300643314
:10144000E008552295A8B538421F7B0F3F3F7FDF4C
:10145000780350A0010932263F7FF8E0C0800042A7
:1014600080E00000FFFECAD5FA3F1F0796DEEFFFBF
:10147000F7EBD1F3E6E0D7E7D5F775F4F4F2F8F53A
:1014800018F4FE87173D030F83DEEFFF3EFA74AAC0
:10149000F2E8FC7CFC70E8FA58EE4F27B3C3C0B802
:1014A000FD9F0088EFE6C38180041E3E22060300F4
:1014B0000141727F676D4103007FFFFFF9F3F7FF82
:1014C000FFCFE7F3F1E0BCFFFF9F8F010021386DF4
:1014D000263F650100000100217B7F7D6AD3A7DFE5
:1014E0008D50F0C01820FFFFFF0F01E1011FFFFF2B
:1014F000FFFFFFEF87337979797B71C1FFFFFFBF72
:101500008380B9FBFB9083BFBFFFFF818F9FBFBF6D
:10151000BF9ECEC0E1FFFFF9F901791D0FE1F1F99E
:10152000FDFFFFFFFF0F01E1011FFFFFFFFFFFBFF7
:101530009F809EBFFCB0879FBFFFFFBF8380B9FB2A
:10154000FB9083BFBFFF3020FFFFFFFF3F8FF7FB04
:10155000FBFDFDFDFDFDFDFDFDFDFDFEFEFEFEFEB8
:10156000FEFEFEFDFDDBDBE7F7F73B09837FFFFFB8
:10157000FFFFFFFFFFFFFFFFFFFFFF07F8FFFFFF7A
:10158000FFE70737E7E7E7F7FFFFFFFFFFFFFFFF93
:10159000FFFFFFFFFFFFFFFF7F3F1E1E1F1B1A7590
:1015A000E3EF9F7FFFFFFFFFFFFFFFFEF0C31FFF83
:1015B000FFFFFEFCFEFFFFFFFFFF0F070707070708
:1015C000070F9FFFFFFFC70F8E9C18F070F8F8BE43
:1015D000EFC7A178FFFFFFFFFFFFFFFFFFFFFEF058
:1015E000E3EFDFDFDFDF9F9FBFBFBFBEBE9E9E8EEC
:1015F000E2E3E7C71F3F230E9FDFDFC7CE90C3E7BD
:10160000F8F8F9F9FCFFFFFF080B000202020000E6
:101610000904000001020200000524001001052455
:1016200001010104240206052406000107058103C7
:1016300010004009040100020A0000000705020230
:101640004000000705830240000004030904120162
:101650000002EF0201404123368000010102030134
:1016600041726475696E6F204C4C43004172647521
:10167000696E6F204C656F6E6172646F00000D20A3
:1016800011241FBECFEFDAE0DEBFCDBF11E0A0E036
:10169000B1E0ECEEFFE502C005900D92A03DB10770
:1016A000D9F729E0A0EDB1E001C01D92A635B2073F
:1016B000E1F71BE0C0E4DBE004C02197FE010E94DB
:1016C000DA2FCF33D107C9F70E9442200C94F42FB0
:1016D0000C9400008091FF0108959C01215F3F4F11
:1016E0002F38310578F59C0197FF02C030E020E0EB
:1016F00040968138910514F080E890E0821BAB01A0
:101700004770552791E001C0990F4A95EAF777FF96
:1017100002C0695F7F4FFB0143E0F595E7954A956D
:10172000E1F7F695FE2FEE27F795E795E20FF31F09
:10173000E551FB4F815030F02191DF011197292BAA
:101740002C93F8CF0895EBEEF4E0A0E0B8E0008031
:101750000EBC8111012C1197A0FDFDCF0192B9F7AC
:101760000DB40895FC018091EA04882311F13FB77C
:10177000F89482E08093E9002091F200822F90E0BB
:101780001816190614F481E090E0882339F028989F
:1017900044E64093E9044091F1004083222339F06C
:1017A0002091F200211103C02BE62093E8003FBFF7
:1017B00008958FEF9FEF08952FB7F89483E08093FB
:1017C000E9009091E800892F807295FF04C0909104
:1017D000F20080E4891B2FBF08958091E1048111FC
:1017E0000DC082E08093DD0484E08093DE041092DB
:1017F000E0041092DF0481E08093E1048DED94E039
:101800000895CF93DF931F92CDB7DEB76983DC01D4
:10181000ED91FC910280F381E02D41E050E0BE01AA
:101820006F5F7F4F09950F90DF91CF91089583E00F
:101830008093E9008091F200882319F08AE3809375
:10184000E80008950E94DC0B90E00895CF93DF93A9
:101850001F92CDB7DEB7FC018485958597FD08C042
:101860002FEF3FEF358724870F90DF91CF910895B9
:10187000CE0101960E94B20B019719F4898190E084
:10188000F3CF8FEF9FEFF0CF0F931F93CF93DF93A3
:101890001F92CDB7DEB78C01FC018485958597FF3B
:1018A0000BC0CE0101960E94B20B019771F48981A1
:1018B00090E0F80195878487F801848595850F90DD
:1018C000DF91CF911F910F9108958FEF9FEFF1CF8F
:1018D000FC018485958597FD0BC09FB7F89482E045
:1018E0008093E9008091F2009FBF90E001960895F7
:1018F0009FB7F89482E08093E9008091F2009FBF47
:1019000090E008954091D7045091D8042091D504D7
:101910003091D60442175307B4F49091E8009570C3
:10192000E1F39091E80092FD19C08093F10080915D
:10193000D7049091D80401968F739927892B19F4B5
:101940008EEF8093E8008091D7049091D80401969F
:101950009093D8048093D70481E0089580E008959F
:10196000DF92EF92FF920F931F93CF93DF93D82EC6
:101970008A01EB017B01E40EF51ECE15DF0559F05F
:10198000D7FE12C0FE0184910E94820C2196811123
:10199000F4CF0FEF1FEFC801DF91CF911F910F918F
:1019A000FF90EF90DF9008958881EECF0F931F9303
:1019B000CF93DF931F92CDB7DEB782E0898342E4F5
:1019C00050E068E076E180E80E94B00C0E94ED0BE8
:1019D000DC0112960D911C910115110589F0D801B9
:1019E000ED91FC910280F381E02DBE016F5F7F4F8E
:1019F000C801099597FD04C0F80100851185ECCF59
:101A000089810F90DF91CF911F910F9108956150BF
:101A100030F02091F100FC0120830196F8CF289846
:101A200084E68093E90408953FB7F8948091D10447
:101A30009091D204A091D304B091D40426B5A89B70
:101A400005C02F3F19F00196A11DB11D3FBFBA2F50
:101A5000A92F982F8827BC01CD01620F711D811D10
:101A6000911D42E0660F771F881F991F4A95D1F795
:101A700008958F929F92AF92BF92CF92DF92EF9292
:101A8000FF926B017C010E94140D4B015C01C1149B
:101A9000D104E104F104B9F00E94140D6819790928
:101AA0008A099B09683E73408105910580F321E016
:101AB000C21AD108E108F10888EE880E83E0981E6A
:101AC000A11CB11CE4CFFF90EF90DF90CF90BF90AE
:101AD000AF909F908F9008958F929F92AF92BF92F8
:101AE000CF92DF92EF92FF920F931F93CF93DF93EA
:101AF0006C017B018A0180912601882309F45CC076
:101B00008091EA04882309F457C08091DC0480FFA7
:101B100005C08091E00082608093E000E801B12C74
:101B20008AEFA82E93E0892E2AE3922E209711F4B3
:101B3000BB20D9F10E94DC0B81110AC0AA94AA2013
:101B4000D9F161E070E080E090E00E94390DEECFC5
:101B50008C171D0611F00CF08C2F9FB7F894809213
:101B6000E9002091E80025FD02C09FBFDFCF282FAC
:101B700030E0C21BD30BF701815020F0419140931C
:101B8000F100FACFE20EF31EBB2021F09092E800A4
:101B9000B12CEBCF8091E80085FDE7CF9092E80073
:101BA000BB24B394209709F3F3CF5D9884E6809328
:101BB000DB04101611063CF081E090E0F6019383FF
:101BC000828310E000E0C801DF91CF911F910F9157
:101BD000FF90EF90DF90CF90BF90AF909F908F904D
:101BE0000895AC01403187E2580774F4483E83E021
:101BF00058076CF44436510564F481E090E04A30B3
:101C0000510524F480E0089584E090E0089583E095
:101C1000FCCF82E0FACFAF92BF92CF92DF92EF92E9
:101C2000FF920F931F93CF93DF936C017B018B0186
:101C3000040F151FEB015E01AE18BF08C017D107D6
:101C400059F06991D601ED91FC910190F081E02D60
:101C5000C6010995892B79F7C501DF91CF911F91B5
:101C60000F91FF90EF90DF90CF90BF90AF900895CD
:101C70002091EF08E091ED08F091EE08CF01029677
:101C80009093EE088093ED08222319F085919491AA
:101C90000895808191810895E1E7F0E080818D7F52
:101CA000808310929100469847981092FE01089503
:101CB000CF92DF92EF92FF92CF93DF930E94380E84
:101CC000811520E8920741F4DF91CF91FF90EF90CA
:101CD000DF90CF900C944C0E21E02093FE018130D8
:101CE00020E8920751F48091EB089091EC089093D2
:101CF000EE088093ED080E94380E97FD05C02091F4
:101D0000D701222309F45BC02091D601211157C0CD
:101D100021E02093D801EC01DF77209709F052C031
:101D200081E08093D90146983FE9C32E3FE0D32E4E
:101D3000E12CF12CCAEFD0E0E0914E09F0914F096F
:101D40000995811103C081E08093D9018091D80168
:101D5000882329F08091D901882309F446C0479847
:101D60000E94380E009709F444C09C01DE010E94D5
:101D7000862EDC01CB0129E0B595A795979587952F
:101D80002A95D1F7109290002AE020939100D092EA
:101D90009900C09298008093DA019093DB01A093A0
:101DA000DC01B093DD01809171008260809371004D
:101DB000DF91CF91FF90EF90DF90CF900895109238
:101DC000D801A9CF9E0150E040E060E472E48FE0CA
:101DD00090E00E94322E69017A0181E0C81AD10890
:101DE000E108F1081092D901A7CF4699B8CF479AD8
:101DF000B7CF8FEF9FEFDC01C5CF9C01E1E7F0E0AB
:101E000090819D7F90831092EF08E0E4F9E0F093D9
:101E1000EE08E093ED08F093EC08E093EB083183D3
:101E200020838BE690E09383828380E090E8958323
:101E300084830C94580E9C01E1E7F0E090819D7F33
:101E4000908381E08093EF083093EE082093ED08B3
:101E50003093EC082093EB080C94580E4F925F924D
:101E60007F928F929F92AF92BF92CF92DF92EF922A
:101E7000FF920F931F93CF93DF93EC01FA01D4905D
:101E80003196E4914E5F5F4FAD2DB0E0211102C05D
:101E9000EE2039F1AA24A394B12C9E2F977011F44F
:101EA000B12CA12C8E2F8695869586958A0D9B2D1B
:101EB000911D8A9F50018B9FB00C9A9FB00C1124EA
:101EC0000115110539F0EA9CC001EB9C900D11241D
:101ED000080F191F2A9DC0012B9D900D1124480F3A
:101EE000591FCD018C0F9D1F181619060CF0F9C053
:101EF000C038D1050CF0F5C09B012E0F311D121614
:101F000013060CF0EEC0603471050CF0EAC0411508
:101F1000510509F4E6C0F62FF7707F2E7B0177FF9D
:101F200003C027E0E20EF11C23E0F594E7942A9524
:101F3000E1F72E2D77FF04C0772011F02FEF2E0D43
:101F4000662777276C1B7D0BD7FD02C070E060E031
:101F50009D2C803891051CF090E8992E9C1A961AB9
:101F6000E22E022E000CFF08FE2DF0952F3F0CF004
:101F7000F0E091E08E2F877009F490E08E2E869429
:101F800086948694890EE80CF11C89E0E816F10429
:101F90001CF088E0882E821A8F1A2F0F30E8230356
:101FA000C00111248C0F9D1F860F971FDF9E600DAF
:101FB000711D1124460F571FC72D072C000CDD0B78
:101FC000820EE2E0CE1244C06FEF70E0072C02C038
:101FD000660F771F0A94E2F760957095B72E281563
:101FE00009F47FC08C0105511B4FF12CE12CE91441
:101FF00048F5FA01EE0DFF1DE491F0E02F010C2EE3
:1020000002C0440C551C0A94E2F727FD05C0F801F4
:10201000D080D622D428D082772071F0273064F483
:102020006801F0E8CF0ED11CF6013081E32FEB21DF
:102030003E2F3529F6013083FFEFEF1AFF0A0F5FBD
:102040001F4FD5CF2F5F4A0F5B1F80589F4FC7CFC1
:10205000060F171F281509F444C0BC0165517B4FBA
:102060007B01D12CC12CC914A0F5F801EC0DFD1D8C
:10207000649170E00C2E02C0660F771F0A94E2F79D
:1020800060957095FA01EC0DFD1DE491F0E02F01D3
:102090000C2E02C0440C551C0A94E2F727FD05C023
:1020A000F701B080B622B428B082772059F02730EB
:1020B0004CF45701F0E8AF0EB11CF50160816723C5
:1020C00065296083FFEFCF1ADF0A3FEFE31AF30AB7
:1020D000CACF2F5F4A0F5B1F0A0F1B1F80589F4FED
:1020E000B9CFDF91CF911F910F91FF90EF90DF90CB
:1020F000CF90BF90AF909F908F907F905F904F90C8
:102100000895CF92EF920F931F9332E0C32EE12CEC
:1021100010E000E00E942E0F1F910F91EF90CF90E2
:1021200008952D9A0895BC0190E080E00C94390D3B
:102130008FB18095807F669B88601C9B846008952A
:102140005C988EBD00000DB407FEFDCF5C9A08952B
:102150001092FF013E983F9808953E9A3F9A81E081
:102160008093FF0108959091C404982329F49091DD
:10217000C504982381E009F480E00895CF93C82F27
:102180000E949810982F9C2381E09C1380E0CF91AF
:10219000089580E00C94A30BEBEEF4E081118FEF37
:1021A000002481938193819381930394D1F70895BF
:1021B00080389105B8F460347105A0F420E191E015
:1021C00061FD94E060FD990F62FD9295687F269F06
:1021D000D0011124A80FA551BB4F8C9140FF03C023
:1021E000892B8C93089590958923FBCF8F929F9292
:1021F000AF92BF92CF92DF92EF92FF920F931F9315
:10220000CF93DF936D3089F0C090C804D090C9049B
:102210006A30D1F41092C7041092C60488E0C80E48
:10222000D11CD092C904C092C80481E090E0DF9133
:10223000CF911F910F91FF90EF90DF90CF90BF90C3
:10224000AF909F908F9008950091C6041091C7049D
:10225000E5E06E9FE0011124C855DB4F4801F12CE9
:10226000F5E0E12CFF1629F0CE010196FE01E49085
:10227000EC01B12CA12C4E2D4170B6016A0D7B1DD5
:10228000C4010E94D810E694FFEFAF1ABF0A88E09D
:10229000A816B10481F7F394EFEF8E1A9E0AF6E0C8
:1022A000FF12DECF0A5F1F4F1093C7040093C604CE
:1022B000BCCFDF92EF92FF920F931F93CF93DF93E8
:1022C0007C01D22E8B01040F111DEB0177FF02C0A0
:1022D000D0E0C0E0C8010134110514F080E490E0C2
:1022E000C817D9073CF44D2DBE01C7010E94D81074
:1022F0002196F0CFDF91CF911F910F91FF90EF903A
:10230000DF900895DF92EF92FF920F931F93CF9388
:10231000DF937B01D22EEC018C01040F111DC0173D
:10232000D10744F420E04D2DB701CE010E94591190
:102330002196F5CFDF91CF911F910F91FF90EF90F4
:10234000DF9008952F923F924F925F926F927F920B
:102350008F929F92AF92BF92CF92DF92EF92FF92B5
:102360000F931F93CF93DF9300D000D0CDB7DEB78C
:102370006C015B01322E842F90E09C838B83440F91
:102380004F5F681B790BC6010E94591101E010E0F4
:10239000EB81FC810E1B1F0B4F01919481949108DE
:1023A000880C991C66246394712CF12CE12C17FD88
:1023B0000AC08B819C8101979C838B8392E0890E5C
:1023C000911C080D191DEFEFEE1AFE0AF2E06F0ED8
:1023D000711C060D171D2B80220C2394232D422DDA
:1023E00025018B819C81481A590AB201C7018C0DC5
:1023F0009D1D0E945911F501EE19FF09FA83E98329
:10240000232D462DBF018B819C818C0D9D1D0E942B
:102410005911232D422DB201C6018E199F090E9428
:102420005911232D462D69817A81C601EB81FC81EA
:102430008E1B9F0B0E9459118B819C81E816F90617
:102440000CF4B5CF0F900F900F900F90DF91CF91BC
:102450001F910F91FF90EF90DF90CF90BF90AF90C2
:102460009F908F907F906F905F904F903F902F90B4
:1024700008952F923F924F925F926F927F928F9228
:102480009F92AF92BF92CF92DF92EF92FF920F9303
:102490001F93CF93DF9300D01F92CDB7DEB79B83FE
:1024A0008A837B016A0109838901061B170B17FFC9
:1024B00003C011950195110946018A819B81881AF3
:1024C000990A97FE03C09194819491088016910611
:1024D0005CF49C2D8D2D6901292F382F9A818B81D9
:1024E000FB82EA82E92EF82E8A819B81C816D906E2
:1024F0005CF49E2D8F2D7901292F382F9A818B81A5
:10250000DB82CA82C92ED82E16018A819B81281AA5
:10251000390A29014E185F0857FE03C051944194AF
:102520005108310137FE03C09FEF691A790A75948B
:1025300067948FEFE216F3060CF481E0A82E880F63
:10254000BB088A819B81C816D906CCF04981BC01A1
:10255000C701801691061CF0B7018A819B810E94F9
:10256000D8106418750877FE04C0EA0CFB1C620CD6
:10257000731C8A819B8101969B838A83E2CF0F9093
:102580000F900F90DF91CF911F910F91FF90EF90DF
:10259000DF90CF90BF90AF909F908F907F906F9083
:1025A0005F904F903F902F900895AF92BF92CF923F
:1025B000DF92EF92FF920F93CF93DF937C016B0139
:1025C000EA01590101E00E943912AE01415051095E
:1025D00000E09501B601C70101970E943912AE01D2
:1025E0004F5F5F4F9501B601C70101960E943912F6
:1025F000DF91CF910F91FF90EF90DF90CF90BF9040
:10260000AF900895CF93DF93EC0120E046EA53E0CA
:1026100060E270E090E080E00E94811020E044EAF7
:1026200052E060E270E080E490E00E94811020E0DF
:1026300042E852E068E070E0CE01DF91CF910C9467
:1026400081100F931F93CF93DF9300911901109185
:102650001A01C091A204D091A304C8018C0F9D1F40
:102660008138910554F04C2F400F405820E470E021
:1026700060E090E080E00E948211C80180589F4F86
:102680008C1B9D0B803891053CF4402F4C1B20E4A3
:1026900070E060E00E9482119E01D7FF02C02F5FB0
:1026A0003F4F359527950091170110911801C901E9
:1026B000800F911F8134910554F080EC800F280F1A
:1026C00040E870E060E090E080E00E948211D7FD79
:1026D0002196D595C795D195C195D109B801605C72
:1026E0007F4F6C0F7D1F603471055CF42C2F200F21
:1026F00040E890E080E0DF91CF911F910F910C9422
:102700008211DF91CF911F910F9108950F931F9325
:10271000CF93DF93D0E0C0E0809115019091160136
:10272000C817D907CCF4CE01880F991F880F991FBD
:1027300020919E0430919F04C217D3074CF420E0EF
:1027400046E752E070E060E00E9481102196E4CFFD
:1027500020E040E752E0F6CFD0E0C0E080911301E6
:1027600090911401C817D907BCF4CE01880F991FA6
:1027700020919C0430919D04C217D3074CF420E0B3
:102780004CE652E068E070E00E9481102196E6CFAE
:1027900020E048E652E0F6CF20E04EE552E070E05F
:1027A00060E088E790E00E94811006E710E0D0E04A
:1027B000C0E08091A8049091A90420E04CE652E08A
:1027C000C817D90714F048E652E070E060E0C8018D
:1027D0000E948110219602501109C830D10549F795
:1027E000DF91CF911F910F9108950F931F93CF9376
:1027F000DF93C0E1D2E003E010E088819981009787
:1028000079F02A813B8121503109A1F03B832A8351
:10281000888199818230910521F194F40197C1F06A
:10282000289682E0C039D80741F7DF91CF911F91F8
:102830000F9108951B830A83019699838883E8CFBB
:102840008330910599F0049759F719821882E8CFDF
:102850006E817F8121E043E08C819D810E94A211E5
:10286000DFCF6E817F8120E046E0F6CF6E817F81F1
:1028700021E044E0F1CFCF93DF93C0E9D2E088813B
:102880009981892B41F06C817D8121E042E08A8130
:102890009B810E94A211289683E0C031D80779F766
:1028A000DF91CF910895CF92EF920F931F93CF9323
:1028B000DF93C2E1D3E02881398121153105C9F0C8
:1028C0004A815B816C817D8164507109CA010497E2
:1028D000E0911901F0911A014E175F07B4F42150ED
:1028E000CC24C394E22E0CEA10E04CED50E00E94A0
:1028F0002E0F269684E0C239D807E9F6DF91CF91F2
:102900001F910F91EF90CF9008952E5FE9CFCF9256
:10291000EF920F931F93CF938091B604882381F099
:102920006091E8017091E901645071098091EA01B8
:102930009091EB0120E040E351E004970E94811068
:102940008091B504882399F18091B2049091B304E9
:1029500001969093B3048093B204059769F4809133
:10296000B0049091B1041092B3041092B204019695
:102970009093B1048093B0048091B0049091B1041D
:10298000049721F41092B1041092B0046091E80110
:102990007091E901645071098091EA019091EB0115
:1029A0002091B0044EE051E004970E9481100E94F3
:1029B0005314C09194049091930460911701709105
:1029C0001801E0911901F0911A0140919504CC236E
:1029D00009F442C0911108C0109297041092960415
:1029E0001092990410929804809196049091970403
:1029F000059789F4209198043091990410929704D6
:102A0000109296042F5F3F4F2630310501F130932D
:102A10009904209398042091980464507109CF017F
:102A2000049741112A5FCC24C394E22E0CE911E0F3
:102A30004CEF51E00E942E0FC09393040E943B1470
:102A4000CF911F910F91EF90CF900C94F5131092AE
:102A5000990410929804DFCF992341F010929704C3
:102A60001092960410929904109298048091960402
:102A700090919704059789F42091980430919904D6
:102A800010929704109296042F5F3F4F2330310528
:102A9000A1F03093990420939804209198046450F5
:102AA0007109CF01049741112D5FCC24C394E22E0C
:102AB0000AE311E04AE651E0BDCF1092990410926A
:102AC0009804EBCF8091D2019091D301019690931D
:102AD000D3018093D201069744F120919E04309156
:102AE0009F041092D3011092D2012F5F3F4F309379
:102AF0009F0420939E048091FE01811116C04AE03C
:102B0000429FC001439F900D1124805C9E4F8034F2
:102B100021E0920710F480E491E081382CE09207E4
:102B200010F080E89CE00E94FD0E20919E04309100
:102B30009F0480911501909116012817390711F40F
:102B400010920A0108958091EC019091ED0120917D
:102B50009204222309F44EC005969093ED018093D0
:102B6000EC018091EC019091ED014091D0015091E8
:102B7000D1018417950754F120919C0430919D0454
:102B8000841B950B9093ED018093EC012F5F3F4FD9
:102B900030939D0420939C048091FE01811116C006
:102BA00048E2429FC001439F900D112480579E4FE1
:102BB000803421E0920710F480E491E081382CE029
:102BC000920710F080E89CE00E94FD0E20919C048A
:102BD00030919D04809113019091140128173907B9
:102BE00041F41092ED011092EC0110920901109243
:102BF000920408950A96B1CFE0E1F2E030E020E0DF
:102C000040815181452BA9F443E0220F331F4A959F
:102C1000E1F7F901E05FFD4F21E030E031832083EF
:102C200023E030E033832283958384837783668334
:102C300008952F5F3F4F38962031310509F70895E9
:102C4000809107019091080197FD079623E09595E3
:102C500087952A95E1F72091030130910401820FB5
:102C6000931F2091010130910201820F931F02975F
:102C70009093A9048093A8040895209111013091A4
:102C800012014AE0429FC001439F900D11246091C0
:102C90001301709114010E94C62F7093D1016093AB
:102CA000D00108950F931F93CF93DF9320910602D5
:102CB0003091070228173907ACF0209108023091B3
:102CC0000902281739071CF120910A0230910B02E2
:102CD000C2E0D0E0281739073CF0DF91CF911F9177
:102CE0000F910895D0E0C0E08C01C9010E945216F6
:102CF000CC0FDD1FFE01EA5FFD4F11830083C80189
:102D00000E94F10DC050DE4F99838883E6CFC1E069
:102D1000D0E0EACF0F931F93CF93DF93DB01E0E97D
:102D2000F1E0AE9FB001AF9F700DBE9F700D1124FA
:102D30009AE0949FF001959FF00D11246E0F7F1F74
:102D4000621B730B4CEE40039001419F300D112428
:102D5000620F731F811120C07093BA046093B9048D
:102D60008091B9049091BA0497FF04C01092BA04FC
:102D70001092B904C091B904D091BA04CE010E9456
:102D8000F10D9093E5018093E401CE01DF91CF91A5
:102D90001F910F910C945216072E000C880B990B63
:102DA0000E94CD2E2AE939E949E95FE30E94312FDB
:102DB0000E94952ED1CF089590E080E00895FF9273
:102DC0000F931F93CF93DF93EC01F62E08811981A7
:102DD000C8010E941C2EF81621F06F2DC8010E9418
:102DE000242ECE01DF91CF911F910F91FF90089576
:102DF000DF92EF92FF920F931F93CF93DF937C01AB
:102E00008C01C2E1D0E0F801D1908F01CE010E9487
:102E10001C2ED81621F06D2DCE010E94242E219655
:102E2000C931D10581F7C701DF91CF911F910F9172
:102E3000FF90EF90DF900895CF93DF9300D000D004
:102E400000D01F92CDB7DEB71A8219821C821B8276
:102E50001E821D8281E08F83CE0101960E94F816AA
:102E600027960FB6F894DEBF0FBECDBFDF91CF918E
:102E70000895CF93DF9300D000D000D01F92CDB73C
:102E8000DEB7E6E0F2E0808191819A8389838281D6
:102E900093819C838B83848195819E838D83809194
:102EA000FF018F83CE0101960E94F81627960FB678
:102EB000F894DEBF0FBECDBFDF91CF910895209172
:102EC0000A0230910B028091B9049091BA0428173C
:102ED000390714F40E94391781E090E09093CB04F5
:102EE0008093CA0408950C941C2E82E090E00E9406
:102EF000731781110C94AD100C94A8108F929F92AF
:102F0000AF92BF920F931F93CF93DF93CDB7DEB7EE
:102F1000A1970FB6F894DEBF0FBECDBF19A2423005
:102F200008F44AE08E010F5D1F4F842E912CB12CC6
:102F3000A12CA50194010E94642EE62FB901CA01BB
:102F4000EA3044F5E05DD801EE938D01232B242B6C
:102F5000252B79F790E080E0109769F0FD01019052
:102F60000020E9F73197AF014A1B5B0BBD0182E5F9
:102F700099E00E940B0EA1960FB6F894DEBF0FBE2B
:102F8000CDBFDF91CF911F910F91BF90AF909F90D8
:102F90008F900895E95CD7CFFC0101900020E9F7FC
:102FA0003197AF01481B590BBC0182E599E00C94A5
:102FB0000B0E0F931F93CF93DF93EB01813091059D
:102FC00009F44CC08230910509F466C0892BA1F543
:102FD0008B010E5D1F4F85E490E09093C7048093B2
:102FE000C6041093C9040093C80482E591E00E94CE
:102FF000CC178091FF01882321F180E790E0909326
:10300000C7048093C6041093C9040093C80488E5DC
:1030100091E00E94CC178091BC049091BD04892B53
:1030200059F4BE01665D7F4F01E09B014AE750E025
:1030300085E490E00E943912DF91CF911F910F91AA
:1030400008958AE690E09093C7048093C604109395
:10305000C9040093C8048BE591E0DBCF85E490E0E0
:103060009093C7048093C604CB018A969093C904B9
:103070008093C8048FE591E00E94CC178091BC0436
:103080009091BD040197C1F6BE016E5C7F4F01E0D7
:103090009B0143E750E0CCCF85E490E09093C704D8
:1030A0008093C604CB01C2969093C9048093C80450
:1030B00088E691E00E94CC178091BC049091BD04F9
:1030C000029709F0B9CFBE01665C7F4F01E09B011A
:1030D00041E650E0ADCF0F93CF93DF93EB0181300A
:1030E000910559F18230910509F445C0892B09F504
:1030F00085E490E09093C7048093C604CB01829648
:103100009093C9048093C8048EE691E00E94CC1786
:103110008091BC049091BD04892B59F4BE01665D79
:103120007F4F01E09B014BE550E085E490E00E9479
:103130003912DF91CF910F91089585E490E090933B
:10314000C7048093C604CB018A969093C9048093E8
:10315000C80483E791E00E94CC178091BC04909151
:10316000BD04019731F7BE016E5C7F4F01E09B010A
:1031700049E750E0DACF85E490E09093C70480936C
:10318000C604CB01C2969093C9048093C8048DE70E
:1031900091E00E94CC178091BC049091BD040297ED
:1031A00041F6BE01665C7F4F01E09B014DE650E0B9
:1031B000BCCFCF92DF92EF92FF92CF93DF9397FF36
:1031C0001BC06B017C016DE282E599E00E94F61064
:1031D000EC0166277727CB016C197D098E099F09C1
:1031E0004AE00E947E178C0F9D1FDF91CF91FF90C8
:1031F000EF90DF90CF9008954AE0DF91CF91FF905C
:10320000EF90DF90CF900C947E17CF92DF92EF92E9
:10321000FF926B017C01C114D104E104F10441F07F
:103220000E94C42DA70196010E94322E6B017C01E1
:10323000C701B601FF90EF90DF90CF90089560E452
:1032400070E080E090E00E9405196C5D7F4F709304
:10325000EB016093EA0160E270E080E090E00E94A0
:1032600005196C5E7F4F7093E9016093E8018091CE
:10327000EA019091EB012091190130911A01281B6C
:10328000390B215F3F4F2F31310598F42091170101
:1032900030911801261B370B215F3F4F2F3131052D
:1032A00040F4803491055CF448969093EB01809350
:1032B000EA018091EA019091EB010C94FC1548978A
:1032C000F4CF4F925F926F927F92BF92CF92DF9234
:1032D000EF92FF920F931F93CF93DF93C0E9D2E059
:1032E00072EEE72EFF24FA94BB24B394E0E4CE2ED2
:1032F000D12C88819981009791F0880F991F880FB0
:10330000991F2A813B81820F931F9B838A83089692
:1033100002E113E081399105A8F0198218822896FC
:10332000F3E0C031DF0729F7DF91CF911F910F91B3
:10333000FF90EF90DF90CF90BF907F906F905F9065
:103340004F900895F80180819181892B39F40A5FAB
:103350001F4FF4E002391F07A9F7E1CF8281938163
:103360002A813B81821B930B0396079708F0AFC01D
:10337000848195812C813D81821B930B0396079755
:1033800008F0A5C060910301709104016F5F7F4F49
:10339000072E000C880B990B16161706180619062F
:1033A0000CF09BC00E94051940900D0150900E0139
:1033B000052C000C660877086419750986099709B9
:1033C00016161706180619060CF478C0F8011182B3
:1033D00010828091AC049091AD0401969093AD045D
:1033E0008093AC042091AA043091AB042F5F3F4F2F
:1033F0003093AB042093AA04803491050CF457C099
:103400008091B6048111ABC08091B5048111A7C031
:103410001092AD041092AC0462E070E080E090E0A5
:103420000E940519672B682B692BA1F163E070E0FE
:1034300080E090E00E9405196130710581059105D9
:1034400009F454C0623071058105910509F467C023
:10345000672B682B692BE1F480910501909106019F
:1034600061E070E08835F2E09F072CF4B7010E941C
:10347000C62F6C5E7F4F8091070190910801680F05
:10348000791F613471056CF5709308016093070131
:103490000E9420168091B404882309F459C08091B9
:1034A000B504811155C0B092B5040E941F19F801EE
:1034B00064817581828193810E94FC158E819F8138
:1034C00001979F838E83892B11F41982188288813A
:1034D0009981892B09F03BCF22CF60E070E0CB01CE
:1034E00063CFD0920801C0920701D2CF209103018F
:1034F000309104018091B7049091B80497FD039630
:103500009595879595958795821793070CF4C0CF6D
:103510002F5F3F4F3093040120930301B9CF2091D7
:103520000101309102018091B7049091B80497FD98
:1035300003969595879595958795821793070CF433
:10354000A7CF2F5F3F4F3093020120930101A0CFFF
:103550008091B6048111ABCFB092B604A6CF109281
:10356000AD041092AC04A3CF2F923F925F926F9262
:103570007F928F929F92AF92BF92CF92DF92EF9203
:10358000FF920F931F93CF93DF938091100390913D
:10359000110301969093110380931003209105016C
:1035A00030910601281739079CF4109211031092EC
:1035B00010038091070190910801019681349105D3
:1035C0000CF039C190930801809307010E942016E6
:1035D000D12CC12C86E0582E66246394712C28E4EB
:1035E000822E912C38EFA32EBB24BA9448E8242EC7
:1035F000312CE090D401F090D501EC0CFD1C5E9CC8
:10360000E0015F9CD00D1124CE5EDC4F8881998152
:10361000892B21F58091070190910801E816F906A0
:103620000CF0E2C07982688266E070E080E090E0B1
:103630000E940519623071058105910509F423C1C5
:103640000CF0FCC0611571058105910509F405C1F7
:10365000613071058105910509F40AC15E9CF00194
:103660005F9CF00D1124EE5EFC4F828193814091AE
:10367000190150911A019A012250310982179307BA
:103680000CF022C10196938382835E9CF0015F9CC3
:10369000F00D1124EE5EFC4F84819581209117017D
:1036A00030911801B90162507109861797070CF023
:1036B00014C10196958384835E9CF0015F9CF00D9C
:1036C0001124EE5EFC4F82819381841B950B05963D
:1036D0000B9708F079C084819581821B930B059626
:1036E0000B9708F071C080919E0490919F0418166A
:1036F00019060CF069C08091E6019091E701181657
:1037000019060CF461C080910A01882331F01092EF
:103710000A011092D3011092D2010091010110917F
:10372000020180919A0490919B04081B190B1016BA
:1037300011069CF062E070E0601B710B072E000C1C
:10374000880B990B0E94051931E020E0672B682B4C
:10375000692B09F030E0032F122FC0919E04D09105
:103760009F04C01BD10BD0939F04C0939E048091F3
:10377000A0049091A104080F191F1093A1040093B5
:10378000A004609117017091180180911901909126
:103790001A010E94FC151C161D060CF4A7C02091EE
:1037A000A6043091A7044091AA045091AB04609103
:1037B000B7047091B80480E00E948A1684E090E01B
:1037C00090930D0280930C025E9CF0015F9CF00DC3
:1037D0001124EE5EFC4F8081918101968430910529
:1037E00009F494C09183808398E0C90ED11C80E4D1
:1037F000C816D10409F0FDCE8091D4019091D50175
:1038000001968830910509F484C09093D501809386
:10381000D401DF91CF911F910F91FF90EF90DF9036
:10382000CF90BF90AF909F908F907F906F905F9060
:103830003F902F90089580E490E0C4CE64307105ED
:1038400081059105B1F154F165307105810591054E
:1038500009F004CF3B822A822EC060E470E080E051
:1038600090E00E9405197B836A83BD82AC82F6CE0C
:1038700060E470E080E090E00E940519605C7F4F9A
:103880008F4F9F4FF0CF60E470E080E090E00E94A7
:1038900005197B836A839D828C82E0CE60E470E0B0
:1038A00080E090E00E940519605C7F4F8F4F9F4F32
:1038B000F0CFBB82AA8260E470E080E090E00E94DA
:1038C00005197D836C83CACE9A012E5F3F4F28175E
:1038D00039070CF0DACE0197D6CEB9016E5F7F4F73
:1038E000681779070CF0E8CE0197E4CE80910B01C0
:1038F00090910C019093E7018093E60187EA0E9482
:10390000A0108CE792E00E941B0F5ECF7182608254
:103910006BCF1092D5011092D4017BCF1F920F92E2
:103920000FB60F9211248F939F938091E100909195
:10393000E100937F9093E10083FF0FC01092E900B4
:1039400091E09093EB001092EC0092E39093ED00E5
:103950001092EA0498E09093F00082FF22C093E076
:103960009093E9009091F200992319F09AE39093D3
:10397000E8009091DB04992341F09091DB04915091
:103980009093DB04911101C05D9A9091E904992311
:1039900041F09091E90491509093E904911101C094
:1039A000289A84FF18C08091E2008E7E8160809307
:1039B000E2008091E1008F7E8093E1008091DC0441
:1039C0008E7E80618093DC049F918F910F900FBE5B
:1039D0000F901F90189580FFF7CF8091E2008E7EA8
:1039E00080618093E2008091E1008E7E8093E1000F
:1039F0008091DC048E7E8160E5CF1F920F920FB61E
:103A00000F921124CF92DF92EF92FF920F931F93A8
:103A10002F933F934F935F936F937F938F939F93D6
:103A2000AF93BF93EF93FF93CF93DF93CDB7DEB701
:103A30006C97DEBFCDBF1092E9008091E80083FF54
:103A400025C068E0CE0145960E94070D82EF809365
:103A5000E8008D8987FF39C09091E80090FFFCCF86
:103A6000982F907609F034C19E894F89588D2F89FF
:103A7000F88C911131C0803861F58091DA0480931F
:103A8000F1001092F1008EEF8093E8006C960FB673
:103A9000F894DEBF0FBECDBFDF91CF91FF91EF91C4
:103AA000BF91AF919F918F917F916F915F914F9156
:103AB0003F912F911F910F91FF90EF90DF90CF904A
:103AC0000F900FBE0F901F9018959EEF9093E800F7
:103AD000C7CF1092F100D5CF913059F48111D3CFD7
:103AE0004130510581F68091DA048D7F8093DA04AC
:103AF000CACF933049F48111C6CF4130510519F630
:103B00008091DA048260F2CF953041F48091E80030
:103B100080FFFCCF20682093E300B5CF963009F0FA
:103B2000A9C00B8D1C8D22E01092E9001092D804E0
:103B30001092D704F2122EC01092D6041092D5041F
:103B40000E94D60C1F8299E09983FA8291E09E83AD
:103B500090EA98879AEF99872091D7043091D804FA
:103B6000275F3F4F3C832B838D831092E900109297
:103B7000D8041092D7041093D6040093D50449E0DA
:103B800050E0BE016F5F7F4F80E00E94B00C0E944A
:103B9000D60C79CF1093D6040093D5040E94ED0B78
:103BA000DC0112960D911C910115110509F451C10A
:103BB000D801ED91FC910480F581E02DBE016B5E92
:103BC0007F4FC8010995009709F03EC1F8010085B3
:103BD0001185EACFF3E0FF120EC08F89882309F424
:103BE00040C0823061F440E860E18CE696E10E94DA
:103BF000DA1F811148CF81E28093EB0047CF8130FB
:103C000029F440E86BE080E696E1F1CF833099F744
:103C10000E94ED0BDC011296ED90FC908E010F5F7F
:103C20001F4F6801E114F10479F0D701ED91FC9187
:103C30000680F781E02DB801C7010995080F111D15
:103C4000F701E084F184EECFD8011C92F6010190D7
:103C50000020E9F73197BF016C197D0940E0C601EA
:103C6000C6CF6AE476E1FB01449150E080E80E940F
:103C7000B00C09CF973009F4BECF983021F481E021
:103C80008093F10000CF993009F0FDCE837009F0E8
:103C9000B2CFEEE2F1E081E031E096E32191222320
:103CA00071F08093E9003093EB00DF0111972C91C4
:103CB0002093EC009093ED008F5F873079F78EE7CB
:103CC0008093EA001092EA008F898093EA04DBCEA9
:103CD0008B8D9C8D1092E9001092D8041092D7041D
:103CE0009093D6048093D504898D811192C08E89DA
:103CF0009D89913A49F4813209F07DCF47E050E047
:103D00006FE171E080E0B3CF913209F074CF83327C
:103D100069F48F89988DB0E0A0E080931B019093A7
:103D20001C01A0931D01B0931E01ADCE803269F439
:103D30008091E80082FFFCCF67E08FE191E00E9474
:103D4000070D8BEF8093E8009ECE823209F09BCE68
:103D50008F8980932601EEEFFFE7859194918B3F49
:103D60009C4D51F1E0E0F8E080911F01909120011D
:103D7000A0912101B0912201803B9440A105B105A1
:103D8000F1F48091260180FD1AC0EE3F8AE0F80729
:103D900089F587E797E7918380838091600080931E
:103DA000D90488E19BE00FB6F894A8958093600051
:103DB0000FBE9093600067CEEEEFFAE0D5CF808122
:103DC00091818737974709F05ECEA8958091600072
:103DD0008861809360008091D90480936000EE3FF9
:103DE0002AE0F20789F08091FE0A9091FF0A918300
:103DF000808349CE808191818737980751F29093D3
:103E0000FF0A8093FE0AC5CF1092FF0A1092FE0AA5
:103E10003ACE0E94ED0BDC0112960D911C9101151A
:103E2000110509F4E8CED801ED91FC910190F081E3
:103E3000E02DBE016B5E7F4FC8010995811123CE35
:103E4000F80100851185EBCF181619060CF41BCE6E
:103E5000D2CEF1E0FF12BECE6EE476E104CF1F9227
:103E60000F920FB60F9211242F933F938F939F932E
:103E7000AF93BF938091CD049091CE04A091CF04D5
:103E8000B091D0043091CC0423E0230F2D3758F5A6
:103E90000196A11DB11D2093CC048093CD04909375
:103EA000CE04A093CF04B093D0048091D10490911C
:103EB000D204A091D304B091D4040196A11DB11DE8
:103EC0008093D1049093D204A093D304B093D404EC
:103ED000BF91AF919F918F913F912F910F900FBE06
:103EE0000F901F90189526E8230F0296A11DB11D73
:103EF000D2CF1F920F920FB60F9211242F933F93A0
:103F00004F935F936F937F938F939F93AF93BF93E1
:103F1000EF93FF938091DA019091DB01A091DC0196
:103F2000B091DD01892B8A2B8B2B09F440C0809145
:103F3000D90181110BC088B190E4892788B980919B
:103F4000D801882319F088B1805888B98091DA01A6
:103F50009091DB01A091DC01B091DD0118161906EA
:103F60001A061B069CF48091DA019091DB01A09166
:103F7000DC01B091DD010197A109B1098093DA015B
:103F80009093DB01A093DC01B093DD01FF91EF91F1
:103F9000BF91AF919F918F917F916F915F914F9161
:103FA0003F912F910F900FBE0F901F9018950E9478
:103FB000580EECCFEF92FF920F931F93CF93DF93A6
:103FC000F82E192FE62E042F81E0860F880F0E940D
:103FD000820C83E00E94820CCF2DD12FEC0EFD2E9F
:103FE000F11CCE15DF05B9F007FF13C0FE01849167
:103FF0000E94820C182F80E00E94820C812321965F
:104000008111EFCFDF91CF911F910F91FF90EF9032
:1040100008958881EDCF81E0F5CFE0EFF8E01382DD
:10402000128288EE93E0A0E0B0E084839583A683BB
:10403000B78388E391E0918380838FEF9FEF95872B
:104040008487E2E5F9E0138212828AE491E09183A9
:1040500080838AE69BE090934F0980934E0980E02D
:1040600090E890934D0980934C0946983E9A479862
:104070003F9A809127019091280190935109809354
:1040800050090895CF93DF93CDB7DEB72B970FB6C6
:10409000F894DEBF0FBECDBF789484B5826084BD36
:1040A00084B5816084BD85B5826085BD85B581603C
:1040B00085BD80916E00816080936E0010928100BA
:1040C0008091810082608093810080918100816075
:1040D0008093810080918000816080938000809136
:1040E0009100826080939100809191008160809323
:1040F0009100809190008160809390008091C10038
:1041000084608093C1008091C10082608093C1006F
:104110008091C10081608093C1008091C300816063
:104120008093C3008091C00082608093C000809122
:10413000C20081608093C20080917A008460809385
:104140007A0080917A00826080937A0080917A0070
:10415000816080937A0080917A00806880937A00F1
:104160001092EA041092DA041092DC048091D700D5
:1041700081608093D70080EA8093D80089B5806100
:1041800089BD89B5826089BD09B400FEFDCF61E0BB
:1041900070E080E090E00E94390D8091D8008F7C23
:1041A00080618093D8008091E000807F8093E00060
:1041B0008091E1008E7E8093E1008DE08093E200AB
:1041C000559A209A81EC80937C0085B1806F85B9E7
:1041D00084B1877E84B984B1876E84B95E9A5F9812
:1041E0008AB1806D8AB9769A6E9881B3806F81BBEF
:1041F000899880B38D7080BB80E58CBD81E08DBDDA
:1042000085E090E00E9493105F9A85E090E00E9424
:1042100093105E985C98E8E5FAE084918EBD00000A
:104220000DB407FEFDCF31960AE0E536F007A9F799
:104230005C9A81E88093640080916500816080933E
:1042400065000E94C91080E80E94BE1002E010E0E4
:10425000882381F085EA0E94A0102E982F982D982F
:104260008091640080628093640081E083BF8895C0
:1042700013BEFCCF84E00E94BE10882309F440C026
:104280002D9884E80E94BE108823C1F00E949110EE
:1042900088EC90E00E9493102F981A8309836FEFA7
:1042A000CE0101960E94DF1684EF91E00E949310E8
:1042B0002F9A84E80E94BE108111FBCF84E10E94F6
:1042C000BE108823C1F00E94911088EC90E00E94FB
:1042D00093102E981A83098360E0CE0101960E9404
:1042E000DF1684EF91E00E9493102E9A84E10E94E1
:1042F000BE108111FBCF88EC90E00E949310BACFE2
:104300000E9491100E94751781E090E00E9473173F
:10431000182F1470712E81FF13C011112E9801EF08
:104320001FEFB8E0EB2EF12C88E5682E80E40E94A8
:10433000BE10882309F4D2C02E9A2F9A0E949110A1
:1043400082E390E00E9493100E9498108111F8CFB0
:10435000809164008E7F8093640080917A008064F5
:1043600080937A0080917A0086FDFCCF00917800DE
:10437000109179000E94140DAB01BC01C801B0E09E
:10438000A0E0DC01992788278C019D01040F151FEF
:10439000261F371FC901B8012091640021602093B6
:1043A0006400611571058105910511F00E94132EBD
:1043B00081E2809300010E94751780E190E00E94E5
:1043C0007317182F81E190E00E9473171A3511F4CA
:1043D0008335A1F080E190E09A8389836AE5CE017C
:1043E00001960E94DF1681E190E09A83898363E55C
:1043F000CE0101960E94DF160E941C171A821982B4
:104400001C821B821E821D8281E08F839E012F5F92
:104410003F4F7901690102E110E0C8010E941C2EA2
:10442000D6018D936D010F5F1F4F09311105A9F75B
:1044300001E010E00C0F1D1F0A5F1F4F50E0C52E5A
:1044400052E0D52E66E0A62E62E0B62EF7018191ED
:1044500091917F01D5018D939D935D010E94F10D96
:10446000F601819391936F01E016F10679F780913F
:10447000FF019F81981729F0882309F4F2C00E9458
:10448000A81080E00E94CC101092C9041092C804B9
:104490001092C7041092C604EE24E394F12C48E075
:1044A000A42EB12C22E0222E312C8FB7F89440910B
:1044B000CD045091CE046091CF047091D0048FBF91
:1044C0008091E001882309F4CFC01092E00180E0E0
:1044D00090E0892B51F30E940000E4CF772029F06F
:1044E0000430110511F42E9A2F9881E00E94A30B3D
:1044F000980117FF04C022273327201B310B277098
:104500003327C80117FD0796A3E095958795AA95CF
:10451000E1F717FF05C00197A701421B530B9A0152
:10452000BC017695762F66277795679565517B4F09
:10453000B0E0A0E02701421A530A8E3F5FEF9507D3
:1045400009F43FC06A9E50016B9EB00C112450E0EC
:1045500040E0F501E855F64F5F014B01F0E88F0EA2
:10456000911C8F3F980791F0F501E40FF51FE4913E
:104570006B01C40ED51EF0E01F01022E01C0220CFB
:104580000A94EAF7F60134882328248A2115310594
:1045900099F0F501E40FF51FE4916401C40ED51EF6
:1045A000F0E01F01042C02C0359427940A94E2F72E
:1045B000F60134882328248A4F5F5F4F4835510520
:1045C00081F6019660587F4F119709F047C00E940D
:1045D000C9108FE090E00E9493100F5F1F4F0931C8
:1045E000110509F0A3CE772011F02F9A2D9880E9BC
:1045F00091E00E9493100E94911081E090E00E944F
:10460000731780FF9DCE8AE090E00E9473179FEFA2
:10461000980F9E3F08F094CE22E330E03093C70419
:104620002093C60428E330E03093C9042093C804E3
:104630000BE010E0682F82E599E00E94F610C801B7
:104640000E9473170F5F1F4F0131110599F70E94E8
:10465000C91088EE93E00E94931072CEA1E0B0E002
:104660006CCF0E94AD100DCF8091E101F42FF81BAB
:104670008F2F90910001F91748F48F5F891708F088
:1046800026CF81E083BF889513BE21CF81E0809340
:10469000E0014093E1018091DE019091DF010196FC
:1046A0009093DF018093DE0180E00E94CC10109295
:1046B000C9041092C8041092C7041092C6048091D5
:1046C000C5048093C4040E9498108093C50480910F
:1046D000CA049091CB048230910509F491C44CF442
:1046E000009709F45BC0019709F480C00E94C910CB
:1046F000EECE8330910511F40C94AF2B0497B1F7F3
:1047000020E045E65AE060E170E080E290E00E943F
:10471000811086E290E09093C7048093C60485ECF4
:1047200091E00E94CC174AE150E05093C7044093B7
:10473000C604B092C904A092C80488EB91E00E941C
:10474000CC172091E4013091E5014AEF4203C0010A
:10475000439F900D1124845A9F4F9093C7048093D8
:10476000C604B092C904A092C8046091B9047091C3
:10477000BA04072E000C880B990B0E94D91880915F
:10478000E2019091E3018C33910514F00C94D82C44
:1047900001969093E3018093E201A8CF0091C204B7
:1047A0001091C3040F5F1F4F1093C3040093C20402
:1047B00081E00E94CC1020E046E455E160E170E029
:1047C00088E190E00E94811020E044EE54E160E135
:1047D00070E088E490E00E9481100B3511050CF424
:1047E00085CFF092CB04E092CA0480CF20E042EE65
:1047F00052E170E060E090E080E00E94811020E0F3
:1048000040E052E170E060E084E490E00E948110BA
:104810008091FE01811104C086EC90E10E941B0F83
:10482000E091C004F091C104EB30F10508F05ECFD7
:10483000E45EFB4D0C94DA2F272457249A24FC24A1
:104840007C2529267623762376237623E0268091FD
:10485000BE049091BF0401969093BF048093BE0460
:104860004F9784F08CE490E09093C7048093C60443
:1048700088E290E09093C9048093C80485E891E0B1
:104880000E94CC178091BE049091BF04CD9724F074
:104890001092BF041092BE0488E00E94B3108823D7
:1048A00009F424CFF092C104E092C0041FCF10E0BD
:1048B00000E08091BC049091BD0464E070E080173A
:1048C000910714F070E060E0C8010E946B180F5F60
:1048D0001F4F0330110569F788E00E94B310882349
:1048E00009F4E8C08091BC049091BD048130910529
:1048F00089F08230910599F0892B09F0F7CE8AE092
:1049000090E09093C1048093C0041092BF04109271
:10491000BE04ECCE3092C1042092C004E7CE1092C7
:10492000BD041092BC041093C1040093C004109203
:10493000BB04DCCE00E012E01987088706E012E035
:104940001B870A87412C512C3201439402E210E06C
:1049500085E4882E912C98E5C92ED12C9092C7041D
:104960008092C6041093C9040093C804C301B20125
:104970000E94D91883EC91E00E94CC17D092C70412
:10498000C092C6041093C9040093C8048EEB91E052
:104990000E94CC17AA85BB856D917D91BB87AA87A4
:1049A000E885F98521913191F987E8874AEF42033B
:1049B000C001439F900D11248A589F4F9093C704C4
:1049C0008093C6041093C9040093C804072E000CFA
:1049D000880B990B0E94D918085F1F4F5FEF451A8B
:1049E000550A650A750A84E0481651046104710489
:1049F00009F0B4CF84E051CF10E000E08091BC0416
:104A00009091BD0464E070E08017910714F070E0AD
:104A100060E0C8010E94D9170F5F1F4F03301105D6
:104A200069F788E00E94B3108823A9F18091BC0443
:104A30009091BD0481309105E1F08230910501F142
:104A4000892B09F053CE8091FF01882379F00E94D1
:104A5000A81081E08093BB048091FF01882309F4B2
:104A600045CE86EC90E10E941B0F40CE0E94AD1017
:104A7000F0CF85E090E09093C1048093C00436CEDF
:104A8000F092BD04E092BC04A4E0B0E0B093C10495
:104A9000A093C0042BCE84E00E94B310882351F071
:104AA0008091BB0481110E9439173092BD0420927D
:104AB000BC04F8CE80E80E94B310882339F08091BE
:104AC000BC049091BD041816190684F080E10E9480
:104AD000B310882309F40ACE8091BC049091BD04E0
:104AE000823091050CF002CE019601C0019790939F
:104AF000BD048093BC04FACD05E410E01093C70414
:104B00000093C60482E290E09093C9048093C804A5
:104B100088E691E00E94CC171093C7040093C60466
:104B2000AAE2CA2ED12CD092C904C092C8048DE842
:104B300091E00E94CC1784E690E09093C7048093A4
:104B4000C604D092C904C092C80482E991E00E94D0
:104B5000CC171093C7040093C60402E310E010932F
:104B6000C9040093C80487E991E00E94CC1780E74C
:104B700090E09093C7048093C6041093C9040093F7
:104B8000C8048BE991E00E94CC17C090BC04D0907F
:104B9000BD0401E02AE330E045E550E06AE370E05F
:104BA00085E490E0C114D10431F04AE750E06AE3B3
:104BB00070E080E790E00E94391288E00E94B31014
:104BC000882339F1CD28D1F4109207021092060201
:104BD0001092010210920002109209021092080233
:104BE000109203021092020210920B0210920A021B
:104BF00010920502109204020E941C173092BD040C
:104C00002092BC04E3E0F0E0F093C104E093C00420
:104C10006DCD80E40E94B310882319F0C114D10433
:104C200059F080E20E94B31081110BC084E00E9411
:104C3000B3108111E3CF5ACDF092BD04E092BC04D1
:104C400055CDCA94CD2891F71092BD041092BC04A2
:104C50004DCD80E00E94CC1020E04CEB50E160E2B2
:104C600070E088E290E00E94811020E042EA50E18A
:104C700068E170E080E390E00E94811020E048E964
:104C800050E160E270E088E390E00E94811020E053
:104C90004EE850E162E270E088E490E00E9481100A
:104CA00020E04EE850E16EE170E080E590E00E9487
:104CB000811020E049E850E16DE170E085E290E08C
:104CC0000E94811020E044E850E16BE170E088E54B
:104CD00090E00E94811020E04FE750E16AE270E02E
:104CE00080E590E00E94811001E02DE130E048E095
:104CF00050E06DE170E084E290E00E9439122BE117
:104D000030E04FE750E06BE170E08BE590E00E940F
:104D100039122CE230E04FE750E06CE270E083E5BE
:104D200090E00E94391288E290E09093C70480934B
:104D3000C604B092C904A092C8048FE591E00E9415
:104D4000CC17B092C704A092C60485E190E090937E
:104D5000C9048093C8048EE991E00E94CC178DE5C8
:104D600090E09093C7048093C60483E190E0909311
:104D7000C9048093C80483EA91E00E94CC1783E6BB
:104D800090E09093C7048093C60484E290E09093EF
:104D9000C9048093C8048AEA91E00E94CC1784E099
:104DA0000E94B310882309F4A1CCF092BD04E092D4
:104DB000BC0403E010E01093C1040093C00496CC3F
:104DC00010E000E08091BC049091BD0464E070E0CC
:104DD0008017910714F070E060E0C8010E946B1822
:104DE0000F5F1F4F0330110569F78091BE0490914A
:104DF000BF048C010E5F1F4F1093BF040093BE04CD
:104E0000402F440FB80117FF02C06F5F7F4F7595A9
:104E10006795719561957109605E7F4FF0E4CF2EC3
:104E2000D12C202FC601801B910B0E9482110734C8
:104E300011050CF45BCC1092BF041092BE041092CA
:104E4000C1041092C0040E944C0E1092BA04109239
:104E5000B9041092B8041092B7041092B6041092DC
:104E6000B5041092B4041092B3041092B2041092DC
:104E7000B1041092B0041092AF041092AE041092DC
:104E8000AD041092AC041092AB041092AA041092DC
:104E9000A9041092A8041092A7041092A6041092DC
:104EA000A5041092A4041092A3041092A2041092DC
:104EB000A1041092A004D0921A01C092190186EFA9
:104EC0009FEF9093180180931701B0921601A09262
:104ED000150110929F0410929E0420E130E030935F
:104EE00014012093130110929D0410929C0480E5FC
:104EF00090E0909312018093110144E050E05093B0
:104F00002801409327015093510940935009F09292
:104F10001001E0920F01F0920E01E0920D0110924B
:104F20009B0410929A048FE090E090930C01809380
:104F30000B01109299041092980410929704109209
:104F4000960410929504109294041092930481E0B8
:104F500080930A0180930901109292040E943D16E9
:104F6000E2E1F3E082E994E011821082138212827E
:104F70001582148236968E179F07B1F7B0920801FA
:104F8000A09207018CE291E09093060180930501C5
:104F90001092110310921003F0920401E0920301A9
:104FA000F0920201E0920101E0E9F2E01182108248
:104FB000138212821582148217821682389653E069
:104FC000E031F50799F7E0E1F2E080E992E0118243
:104FD00010821382128215821482178216823896EA
:104FE0008E179F07A1F710920F0210920E021092D7
:104FF0000D0210920C023092CB042092CA0476CBA0
:10500000C0900C02D0900D0282E0C816D10409F4C1
:10501000CBC10CF0B1C0C114D10409F4D3C0A1E0DC
:10502000CA16D10409F062CB8091A4049091A50422
:1050300001968E31910509F408C19093A5048093DF
:10504000A4041092940480E80E94BE10882309F4FE
:105050000AC18091170190911801853091052CF0BB
:105060000197909318018093170181E08093940435
:1050700080E20E94BE10882309F405C180911901C5
:1050800090911A01853091052CF0019790931A01A7
:105090008093190181E0809395048093940490900B
:1050A000B604992009F49EC48091190190911A01C7
:1050B0002091EA013091EB01821B930B05960B972F
:1050C00008F090C480911701909118012091E80197
:1050D0003091E901821B930B05960B9708F082C46F
:1050E0001092B60486EA0E94A010F092F101E092BC
:1050F000F00130920D0220920C028091B704909141
:10510000B80409970CF0D5C01092F3011092F20187
:1051100004EF11E069E070E080E090E00E94051982
:10512000665F7F4F8091F4019091F501E091F60167
:10513000F091F7012091F8013091F9014091AE040E
:105140005091AF04A92D6E177F0729F0A1E08617B3
:10515000970709F0A0E06217730731F0641775072D
:1051600019F0AA2309F430C46F5F7F4F63317105D2
:105170004CF36AE070E0E6CFB3E0CB16D10409F45B
:105180009EC2E4E0CE16D10409F0B0CA8091A20418
:105190009091A30401969093A3048093A204803875
:1051A000910509F0B6C2D092CB04C092CA0485E53D
:1051B00090E10E941B0F0E94B41A0E9461190E9484
:1051C0008714A3C280910E0290910F028130910545
:1051D00021F13CF4892B89F00E9487140E948613E8
:1051E00085CA82309105F1F00397B1F70E9420162D
:1051F000F0920D02E0920C02EFCF0E9462158091B6
:105200000A018111E9CF80910E0290910F0201965F
:1052100090930F0280930E02DFCF0E94A31580911E
:105220000901EFCF00E210E010931801009317017D
:1052300060E270E080E490E00E94FC1523E030E042
:1052400030930F0220930E02C7CF1092A504109244
:10525000A4048091A6049091A70401969093A704BA
:105260008093A604EECE80E10E94BE10882309F44C
:10527000FFCE80911701909118018C3391050CF0AD
:10528000F4CE0196EECE80E40E94BE10882309F48D
:1052900006CF8091190190911A018C3791052CF459
:1052A000019690931A01809319011092950481E060
:1052B000F4CEF092F301E092F2012ACF88E00E944E
:1052C000BE10882309F466C080915009909151095D
:1052D000181619060CF4E1C380919C0490919D046A
:1052E000181619060CF040C0019790939D04809306
:1052F0009C04E0E9F2E090E080E020813181232B02
:1053000009F041C0209195042223D1F1CC24CA9404
:10531000DC2C2CEF3FEF63E0880F991F6A95E1F7D3
:10532000FC01E057FD4FD182C0828091190190911C
:105330001A01820F931F93838283809117019091AA
:1053400018019583848380910F01909110019783B8
:105350008683809127019091280190935109809331
:10536000500985E09FE009C0892B19F681E0809300
:105370000901809392048BEE9EE00E941B0F8DC367
:1053800024E030E0C8CF019638968031910509F0CD
:10539000B4CF83C384E00E94B310882309F47DC393
:1053A00081E08093090179C38091EE019091EF0132
:1053B0008E3191052CF401969093EF018093EE01CC
:1053C00080E20E94B3100091F0011091F101882356
:1053D00051F0101611063CF4015011091093F1011F
:1053E0000093F0010EC080E40E94B310882321F0E6
:1053F000033011050CF42CC088E00E94B310811119
:105400002AC00E94871432EFC32E31E0D32E01E26E
:1054100010E0D601ED91FD916D01E331F10508F049
:10542000FBC0EB5EF54D0C94DA2F042B372B0C2BC5
:105430000C2B0C2B0C2B0C2B0C2B0C2B0C2B3B2B85
:105440003F2B432B472B4B2B4F2B532B572B5B2B9C
:105450000F5F1F4FC3CF8091EE019091EF014E97E8
:1054600009F0CFCF000F111FF801EE50FE4F008161
:10547000118103311105D8F4F801EF5BF54D0C945F
:10548000DA2F542A6D2A572A572A572A572A572A79
:10549000572A572A572A712A8D2AAF2AB92AC82A89
:1054A000D32ADD2AF02AFA2A81E080930A01109398
:1054B000AF040093AE041092EF011092EE018091C0
:1054C000B7049091B80401969093B8048093B70400
:1054D000F0920D02E0920C0294CF81E08093B4042C
:1054E000E6CF8091150190911601029690931601D6
:1054F0008093150120919E0430919F042E5F3F4FB1
:1055000030939F0420939E0441978CF220E130E079
:105510003093160120931501CACF80911301909109
:105520001401803291052CF4049690931401809319
:105530001301809113019091140190939D04809325
:105540009C040E943D1680910901882309F4AFCF85
:10555000109209011092ED011092EC01A8CF8091F8
:105560000F019091100101969093100180930F010B
:105570009ECF8091110190911201813291052CF002
:10558000409790931201809311010E943D168FCF96
:1055900080910501909106018A569F4F90930601D4
:1055A0008093050184CF80910B0190910C010596A9
:1055B00090930C0180930B017ACF80910701909119
:1055C0000801803191054CF09595879590930801DD
:1055D000809307010E9420166ACF88E090E0F6CF02
:1055E00080919A0490919B04019690939B048093E0
:1055F0009A045DCF80910D0190910E0101969093D8
:105600000E0180930D0153CF20E047E350E169E1A3
:1056100070E0C8010E948110005F1F4F0136110524
:1056200009F0F7CE0091F0011091F1010E5F1F4FCC
:1056300024E0000F111F2A95E1F768E170E0C8012E
:105640000E946D0B67E270E0C8010E946D0B21E0C3
:1056500040E168E170E0C8010E94591121E040E199
:1056600068E170E0C8010F960E9459113FC820E020
:1056700049E150E1CCCF20E04BEF5FE0C8CF20E024
:105680004DED5FE0C4CF20E04FEB5FE0C0CF20E006
:1056900041EA5FE0BCCF20E043E85FE0B8CF20E024
:1056A00045E65FE0B4CF20E047E45FE0B0CF20E024
:1056B00049E25FE0ACCF20E04BE05FE0A8CF809113
:1056C000A2049091A30401969093A3048093A20452
:1056D0008038910581F4D092CB04C092CA04109214
:1056E000FD011092FC01E9E0F0E0F093FB01E09392
:1056F000FA010E944C0E0E94B41A0E9461190E9485
:1057000053140E943B140E94F5130E9421130C9421
:10571000762383709927892B09F04DCD68E070E0DE
:1057200080E090E00E940519009117011091180186
:1057300004501109060F171F68E070E080E090E048
:105740000E9405192091190130911A012450310944
:10575000C901860F971FB8010E94FC152CCDC0907F
:10576000FC01D090FD0186010F5F1F4F1093FD01DA
:105770000093FC01E091FA01F091FB013997E730C9
:10578000F10510F00C947623E853F44D0C94DA2FC5
:10579000CF2BE42BFA2B1B2C402C522C662C8FE4A5
:1057A00090E00E9402130C33110511F00C94762343
:1057B0001092FD011092FC018AE090E09093FB01B1
:1057C0008093FA010C94762380E590E00E94021306
:1057D0000E31110511F00C9476236AE370E083E436
:1057E00090E00E94FC151092FD011092FC018BE0EC
:1057F00090E0E4CF80E590E00E9402132DE130E0DC
:10580000201B310B220F331FA6014C5B5F4F6AE355
:1058100070E083E490E00E94D5120E94F5130031FD
:10582000110511F00C9476231092FD011092FC01E9
:105830008CE090E0C3CF80E590E00E9402136DE120
:1058400070E0601B710B660F771F28E130E044E5C4
:1058500050E0C6018C5B9F4F0E94D51200311105AC
:1058600011F00C94762367E170E084E590E00E94EB
:10587000FC151092FD011092FC018DE090E09ECF8E
:1058800080E590E00E9402130E94F5130E3111058D
:1058900011F00C9476231092FD011092FC018EE021
:1058A00090E08CCF81E590E00E9402130C3311054B
:1058B00011F00C9476238DEB9EE00E941B0F10924A
:1058C000FD011092FC018FE090E078CF0CE210E037
:1058D0001093C7040093C60480EB91E00E94CC179C
:1058E0002AE130E03093C7042093C604B092C90483
:1058F000A092C80488EB91E00E94CC172091E401AB
:105900003091E5014AEF4203C001439F900D1124FD
:10591000845A9F4F9093C7048093C604B092C904E1
:10592000A092C8046091B9047091BA04072E000CCB
:10593000880B990B0E94D91820E04BEF5DE060E1E5
:1059400070E090E080E00E94811020E049E75CE098
:1059500060E170E080E290E00E94811020E047EE7C
:105960005BE060E170E080E690E00E94811088E0FA
:105970000E94B3102091FC013091FD01882359F061
:105980002F31310544F01092FD011092FC010E946C
:105990005F170C9476232937310514F40C94762381
:1059A0008CE390E09093FD018093FC010C947623AE
:1059B00088E00E94B310882311F40C94762310928F
:1059C000E3011092E201E3CF6331710514F06AE064
:1059D00070E0D8016D937D938D01B1E00A3F1B0704
:1059E00009F098CB8091B504882309F44AC000914E
:1059F000190110911A018091EA019091EB0198012F
:105A0000281B390B2B5F3F4F2B303105D0F5809091
:105A10001701909018016091E8017091E9019401DB
:105A2000261B370B2B5F3F4F2B30310550F5EEE136
:105A3000F0E0F093E701E093E6011092B5040E94D4
:105A4000FC15B401C8010E94FC1586EA0E94A01052
:105A50000091A0041091A1042091A6043091A70404
:105A60004091AA045091AB046091B7047091B804BE
:105A700081E00E948A1603E010E010930D0200936B
:105A80000C0280910A0181110E9462158091090126
:105A9000882309F413CC0E94A3158091E60190910C
:105AA000E7011816190654F401979093E7018093C3
:105AB000E601892B19F486EA0E94A0108091500912
:105AC00090915109181619062CF4019790935109D9
:105AD0008093500980919604909197040196909339
